:020000040800F2
:102000000004002061210008FD410008FD41000896
:10201000FD410008FD410008FD410008FD410008A8
:10202000FD410008FD410008FD410008093E00088F
:10203000FD410008FD410008113E00080D3E00086A
:10204000FD410008FD410008FD410008FD41000878
:10205000FD410008FD410008FD410008FD41000868
:10206000FD410008FD410008FD4100085D690008D0
:1020700015690008CD680008856800083D680008FB
:10208000F5670008AD670008FD410008FD41000844
:1020900075560008FD410008FD410008FD4100089B
:1020A000FD410008FD410008FD410008FD41000818
:1020B000FD410008FD410008FD410008195C0008D1
:1020C000395B0008FD410008FD410008FD410008A2
:1020D000FD410008FD410008FD41000829590008A4
:1020E000FD410008FD410008FD410008FD410008D8
:1020F000FD410008FD410008FD410008FD410008C8
:10210000FD410008FD410008FD410008FD410008B7
:10211000FD410008FD410008FD410008FD410008A7
:10212000FD410008FD410008FD410008FD41000897
:10213000FD410008FD410008FD410008FD41000887
:10214000FD410008FD410008FD410008FD41000877
:10215000FD410008FD410008FD410008FD41000867
:1021600072B6264880F3098825484EF60851CEF20B
:1021700000010860022080F31488BFF36F8F02F023
:102180007FF803F09BF94FF055301E491E4A9142EB
:102190003CBF41F8040BFAE71C49184A91423CBF86
:1021A00041F8040BFAE71A491A4A1B4B9A423EBF00
:1021B00051F8040B42F8040BF8E700201749184ABD
:1021C00091423CBF41F8040BFAE702F039F802F003
:1021D00056F8144C144DAC4203DA54F8041B8847EB
:1021E000F9E706F09DFF114C114DAC4203DA54F8AB
:1021F000041B8847F9E702F041B8000000080020FE
:10220000002000080000002000040020000400203E
:1022100064D10008000800202409002028090020BB
:1022200038160020602100086021000860210008A5
:10223000602100082A2A2A2A2A2A2A2A2A2A2A2A1D
:102240002A2A2A2A2A2A2A2A2A2A2A2A2A2A2A2AEE
:102250002A2A2A2A2A2A2A2A2A2A2A2A2A2A2A2ADE
:102260002A2A2A2A2A2A2A2A2A2A2A2A2A2A2A2ACE
:102270002A2A2A2A2A2A2A2A2A2A2A2A2A2A2A2ABE
:102280002A2A2A2A2A2A0D0A4672656552544F5371
:10229000204B65726E656C205631302E302E300D1D
:1022A0000A436F7079726967687420284329203265
:1022B00030313720416D617A6F6E2E636F6D2C2047
:1022C000496E632E206F722069747320616666699F
:1022D0006C69617465732E2020416C6C20526967B3
:1022E0006874732052657365727665642E0D0A0DED
:1022F0000A5065726D697373696F6E206973206827
:102300006572656279206772616E7465642C2066FF
:10231000726565206F66206368617267652C207442
:102320006F20616E7920706572736F6E206F6274BA
:1023300061696E696E67206120636F7079206F66D6
:102340000D0A7468697320736F6674776172652013
:10235000616E64206173736F636961746564206486
:102360006F63756D656E746174696F6E2066696CFC
:10237000657320287468652022536F6674776172D4
:102380006522292C20746F206465616C20696E0DB4
:102390000A74686520536F66747761726520776987
:1023A00074686F7574207265737472696374696F91
:1023B0006E2C20696E636C7564696E672077697432
:1023C000686F7574206C696D69746174696F6E20D3
:1023D0007468652072696768747320746F0D0A757C
:1023E00073652C20636F70792C206D6F646966793A
:1023F0002C206D657267652C207075626C6973683E
:102400002C20646973747269627574652C2073750D
:10241000626C6963656E73652C20616E642F6F72E8
:102420002073656C6C20636F70696573206F660D37
:102430000A74686520536F6674776172652C206139
:102440006E6420746F207065726D6974207065729F
:10245000736F6E7320746F2077686F6D207468657A
:1024600020536F6674776172652069732066757298
:102470006E697368656420746F20646F20736F2CBD
:102480000D0A7375626A65637420746F20746865E1
:1024900020666F6C6C6F77696E6720636F6E64691E
:1024A00074696F6E733A0D0A0D0A54686520616293
:1024B0006F766520636F70797269676874206E6FDC
:1024C0007469636520616E64207468697320706547
:1024D000726D697373696F6E206E6F7469636520C6
:1024E0007368616C6C20626520696E636C756465ED
:1024F0006420696E20616C6C0D0A636F706965738E
:10250000206F72207375627374616E7469616C20E0
:10251000706F7274696F6E73206F662074686520C7
:10252000536F6674776172652E20496620796F75E6
:10253000207769736820746F20757365206F7572DA
:1025400020416D617A6F6E0D0A4672656552544F77
:1025500053206E616D652C20706C6561736520641D
:102560006F20736F20696E2061206661697220752B
:10257000736520776179207468617420646F657376
:10258000206E6F7420636175736520636F6E66756E
:1025900073696F6E2E0D0A0D0A54484520534F463D
:1025A00054574152452049532050524F56494445B3
:1025B0004420224153204953222C20574954484F4C
:1025C00055542057415252414E5459204F462041B4
:1025D0004E59204B494E442C204558505245535398
:1025E000204F520D0A494D504C4945442C20494E2C
:1025F000434C5544494E4720425554204E4F542099
:102600004C494D4954454420544F20544845205787
:10261000415252414E54494553204F46204D455258
:102620004348414E544142494C4954592C20464953
:10263000544E4553530D0A464F52204120504152AB
:10264000544943554C415220505552504F53452008
:10265000414E44204E4F4E494E4652494E47454DFD
:10266000454E542E20494E204E4F204556454E543F
:10267000205348414C4C2054484520415554484F24
:102680005253204F520D0A434F5059524947485414
:1026900020484F4C44455253204245204C4941422A
:1026A0004C4520464F5220414E5920434C41494D04
:1026B0002C2044414D41474553204F52204F544810
:1026C0004552204C494142494C4954592C205748C5
:1026D00045544845520D0A494E20414E204143542D
:1026E000494F4E204F4620434F4E54524143542CA5
:1026F00020544F5254204F52204F5448455257496E
:1027000053452C2041524953494E472046524F4D84
:102710002C204F5554204F46204F5220494E0D0A31
:10272000434F4E4E454354494F4E2057495448203D
:1027300054484520534F465457415245204F52204C
:1027400054484520555345204F52204F5448455238
:10275000204445414C494E475320494E205448455A
:1027600020534F4654574152452E0D0A0D0A6874A6
:1027700074703A2F2F7777772E4672656552544FD3
:10278000532E6F72670D0A687474703A2F2F617739
:10279000732E616D617A6F6E2E636F6D2F66726539
:1027A0006572746F730D0A2A2A2A2A2A2A2A2A2A6B
:1027B0002A2A2A2A2A2A2A2A2A2A2A2A2A2A2A2A79
:1027C0002A2A2A2A2A2A2A2A2A2A2A2A2A2A2A2A69
:1027D0002A2A2A2A2A2A2A2A2A2A2A2A2A2A2A2A59
:1027E0002A2A2A2A2A2A2A2A2A2A2A2A2A2A2A2A49
:1027F0002A2A2A2A2A2A2A2A2A0D0A434F505952BB
:102800004947485428632920323031362053544DEB
:102810006963726F656C656374726F6E6963730D63
:102820000A0D0A5265646973747269627574696F1E
:102830006E20616E642075736520696E20736F75FC
:1028400072636520616E642062696E6172792066D0
:102850006F726D732C2077697468206F72207769AE
:1028600074686F7574206D6F6469666963617469FB
:102870006F6E2C0D0A617265207065726D697474DB
:1028800065642070726F7669646564207468617431
:102890002074686520666F6C6C6F77696E67206363
:1028A0006F6E646974696F6E7320617265206D6507
:1028B000743A0D0A2020312E2052656469737472B7
:1028C00069627574696F6E73206F6620736F7572BD
:1028D000636520636F6465206D7573742072657421
:1028E00061696E207468652061626F766520636F30
:1028F00070797269676874206E6F746963652C0DF6
:102900000A202020202074686973206C6973742069
:102910006F6620636F6E646974696F6E7320616E99
:10292000642074686520666F6C6C6F77696E6720D1
:10293000646973636C61696D65722E0D0A202032C3
:102940002E205265646973747269627574696F6E62
:102950007320696E2062696E61727920666F726D94
:10296000206D75737420726570726F647563652075
:102970007468652061626F766520636F7079726933
:10298000676874206E6F746963652C0D0A202020BF
:10299000202074686973206C697374206F662063EB
:1029A0006F6E646974696F6E7320616E6420746801
:1029B0006520666F6C6C6F77696E672064697363FE
:1029C0006C61696D657220696E2074686520646F42
:1029D00063756D656E746174696F6E0D0A202020D9
:1029E0002020616E642F6F72206F74686572206D95
:1029F0006174657269616C732070726F7669646569
:102A000064207769746820746865206469737472DF
:102A100069627574696F6E2E0D0A2020332E204E68
:102A200065697468657220746865206E616D6520E3
:102A30006F662053544D6963726F656C6563747281
:102A40006F6E696373206E6F7220746865206E61AB
:102A50006D6573206F662069747320636F6E747286
:102A6000696275746F72730D0A20202020206D61D9
:102A700079206265207573656420746F20656E64CB
:102A80006F727365206F722070726F6D6F74652046
:102A900070726F64756374732064657269766564BF
:102AA0002066726F6D207468697320736F66747727
:102AB0006172650D0A2020202020776974686F7587
:102AC00074207370656369666963207072696F72E0
:102AD000207772697474656E207065726D697373A6
:102AE000696F6E2E0D0A20200D0A54484953205359
:102AF0004F4654574152452049532050524F564952
:102B00004445442042592054484520434F5059528F
:102B10004947485420484F4C4445525320414E4465
:102B200020434F4E5452494255544F525320224154
:102B300053204953220D0A414E4420414E5920450D
:102B4000585052455353204F5220494D504C4945FF
:102B5000442057415252414E544945532C20494E2E
:102B6000434C5544494E472C20425554204E4F5417
:102B7000204C494D4954454420544F2C205448453D
:102B80000D0A494D504C4945442057415252414E3F
:102B900054494553204F46204D45524348414E54D9
:102BA0004142494C49545920414E44204649544ED3
:102BB00045535320464F52204120504152544943DF
:102BC000554C415220505552504F5345204152458B
:102BD0000D0A444953434C41494D45442E20494E2A
:102BE000204E4F204556454E54205348414C4C20D2
:102BF00054484520434F5059524947485420484F64
:102C00004C444552204F5220434F4E545249425556
:102C1000544F5253204245204C4941424C450D0AE5
:102C2000464F5220414E59204449524543542C208E
:102C3000494E4449524543542C20494E434944454A
:102C40004E54414C2C205350454349414C2C204577
:102C500058454D504C4152592C204F5220434F4E15
:102C600053455155454E5449414C0D0A44414D413F
:102C70004745532028494E434C5544494E472C2044
:102C8000425554204E4F54204C494D495445442000
:102C9000544F2C2050524F435552454D454E5420D1
:102CA0004F46205355425354495455544520474F9D
:102CB0004F4453204F520D0A5345525649434553F2
:102CC0003B204C4F5353204F46205553452C204416
:102CD0004154412C204F522050524F464954533BAF
:102CE000204F5220425553494E45535320494E548C
:102CF000455252555054494F4E2920484F5745563A
:102D000045520D0A43415553454420414E44204FFE
:102D10004E20414E59205448454F5259204F46208D
:102D20004C494142494C4954592C20574845544834
:102D3000455220494E20434F4E54524143542C207B
:102D4000535452494354204C494142494C495459E7
:102D50002C0D0A4F5220544F52542028494E434CB8
:102D60005544494E47204E45474C4947454E4345FB
:102D7000204F52204F54484552574953452920412E
:102D8000524953494E4720494E20414E5920574100
:102D900059204F5554204F462054484520555345FF
:102DA0000D0A4F46205448495320534F465457412B
:102DB00052452C204556454E20494620414456490F
:102DC000534544204F462054484520504F535349C3
:102DD00042494C495459204F4620535543482044BA
:102DE000414D4147452E0D0A2A2A2A2A2A2A2A2AF3
:102DF0002A2A2A2A2A2A2A2A2A2A2A2A2A2A2A2A33
:102E00002A2A2A2A2A2A2A2A2A2A2A2A2A2A2A2A22
:102E10002A2A2A2A2A2A2A2A2A2A2A2A2A2A2A2A12
:102E20002A2A2A2A2A2A2A2A2A2A2A2A2A2A2A2A02
:102E30002A2A2A2A2A2A2A2A2A2A0D0A4368696261
:102E4000694F53202D20436F707972696768742031
:102E500028432920323030362E2E3230313620476A
:102E6000696F76616E6E6920446920536972696F7B
:102E70000D0A0D0A4C6963656E73656420756E6496
:102E800065722074686520417061636865204C69D3
:102E900063656E73652C2056657273696F6E2032A0
:102EA0002E30202874686520224C6963656E736536
:102EB00022293B0D0A796F75206D6179206E6F7440
:102EC0002075736520746869732066696C65206578
:102ED000786365707420696E20636F6D706C6961D2
:102EE0006E6365207769746820746865204C696337
:102EF000656E73652E0D0A596F75206D6179206FAF
:102F0000627461696E206120636F7079206F662042
:102F1000746865204C6963656E73652061740D0A81
:102F20000D0A20202020687474703A2F2F7777774D
:102F30002E6170616368652E6F72672F6C696365BF
:102F40006E7365732F4C4943454E53452D322E30D9
:102F50000D0A0D0A556E6C65737320726571756983
:102F6000726564206279206170706C696361626C63
:102F700065206C6177206F722061677265656420DF
:102F8000746F20696E2077726974696E672C207384
:102F90006F6674776172650D0A6469737472696231
:102FA0007574656420756E64657220746865204C64
:102FB0006963656E736520697320646973747269EF
:102FC0006275746564206F6E20616E20224153200B
:102FD0004953222042415349532C0D0A5749544822
:102FE0004F55542057415252414E54494553204F5A
:102FF0005220434F4E444954494F4E53204F462090
:10300000414E59204B494E442C20656974686572C5
:103010002065787072657373206F7220696D706CB3
:103020006965642E0D0A53656520746865204C69D6
:1030300063656E736520666F7220746865207370B7
:10304000656369666963206C616E67756167652099
:10305000676F7665726E696E67207065726D6973F1
:1030600073696F6E7320616E640D0A6C696D6974AB
:103070006174696F6E7320756E6465722074686523
:10308000204C6963656E73652E0D0A2A2A2A2A2A46
:103090002A2A2A2A2A2A2A2A2A2A2A2A2A2A2A2A90
:1030A0002A2A2A2A2A2A2A2A2A2A2A2A2A2A2A2A80
:1030B0002A2A2A2A2A2A2A2A2A2A2A2A2A2A2A2A70
:1030C0002A2A2A2A2A2A2A2A2A2A2A2A2A2A2A2A60
:1030D0002A2A2A2A2A2A2A2A2A2A2A2A2A0D0A4374
:1030E0006F707972696768742028632920323031E3
:1030F000372C20426572746F6C642056616E2064B8
:10310000656E204265726768202876616E64656E20
:10311000626572676840626572746F6C642E6F726C
:1031200067290D0A416C6C2072696768747320729C
:10313000657365727665642E0D0A5468697320772D
:103140006F726B20686173206265656E20646576BE
:10315000656C6F70656420746F20737570706F722A
:10316000742072657365617263682066756E64654C
:10317000642062790D0A2246756E6420666F7220A3
:10318000536369656E74696669632052657365612E
:103190007263682C20466C616E646572732220280D
:1031A000462E572E4F2E2D566C61616E64657265EA
:1031B0006E292E0D0A0D0A52656469737472696274
:1031C0007574696F6E20616E642075736520696E19
:1031D00020736F7572636520616E642062696E6131
:1031E000727920666F726D732C2077697468206F16
:1031F0007220776974686F75740D0A6D6F64696603
:1032000069636174696F6E2C2061726520706572EC
:103210006D69747465642070726F7669646564208A
:10322000746861742074686520666F6C6C6F776970
:103230006E6720636F6E646974696F6E732061726C
:1032400065206D65743A0D0A202020202A205265E1
:10325000646973747269627574696F6E73206F66E6
:1032600020736F7572636520636F6465206D75737D
:10327000742072657461696E207468652061626F84
:10328000766520636F707972696768740D0A202013
:10329000202020206E6F746963652C207468697328
:1032A000206C697374206F6620636F6E6469746943
:1032B0006F6E7320616E642074686520666F6C6C3D
:1032C0006F77696E6720646973636C61696D65729D
:1032D0002E0D0A202020202A205265646973747202
:1032E00069627574696F6E7320696E2062696E61C0
:1032F000727920666F726D206D75737420726570BF
:10330000726F64756365207468652061626F7665AD
:1033100020636F707972696768740D0A202020201D
:1033200020206E6F746963652C2074686973206C4B
:10333000697374206F6620636F6E646974696F6E61
:103340007320616E642074686520666F6C6C6F77A3
:10335000696E6720646973636C61696D6572206969
:103360006E207468650D0A202020202020646F6381
:10337000756D656E746174696F6E20616E642F6F18
:1033800072206F74686572206D6174657269616C1A
:10339000732070726F766964656420776974682041
:1033A00074686520646973747269627574696F6E9C
:1033B0002E0D0A202020202A204E6569746865722F
:1033C00020746865206E616D65206F662074686585
:1033D00020617574686F72206E6F72207468650D5D
:1033E0000A2020202020206E616D6573206F6620EA
:1033F00069747320636F6E7472696275746F72732F
:10340000206D6179206265207573656420746F207A
:10341000656E646F727365206F722070726F6D6F6E
:1034200074652070726F64756374730D0A202020B8
:10343000202020646572697665642066726F6D2055
:103440007468697320736F66747761726520776939
:1034500074686F7574207370656369666963207042
:1034600072696F72207772697474656E207065720C
:103470006D697373696F6E2E0D0A0D0A54484953B6
:1034800020534F4654574152452049532050524FE4
:1034900056494445442042592054484520434F5002
:1034A00059524947485420484F4C444552532041B3
:1034B0004E4420434F4E5452494255544F5253208C
:1034C0002241532049532220414E440D0A414E5976
:1034D0002045585052455353204F5220494D504C8F
:1034E0004945442057415252414E544945532C209E
:1034F000494E434C5544494E472C20425554204E8A
:103500004F54204C494D4954454420544F2C20548D
:10351000484520494D504C4945440D0A57415252A7
:10352000414E54494553204F46204D455243484152
:103530004E544142494C49545920414E4420464939
:10354000544E45535320464F52204120504152542F
:103550004943554C415220505552504F53452041FC
:1035600052450D0A444953434C41494D45442E2090
:10357000494E204E4F204556454E54205348414C0D
:103580004C2054484520415554484F52204F52201A
:103590004449535452494255544F52204245204CBD
:1035A0004941424C4520464F5220414E590D0A4454
:1035B00049524543542C20494E4449524543542CCA
:1035C00020494E434944454E54414C2C20535045CC
:1035D0004349414C2C204558454D504C4152592CA3
:1035E000204F5220434F4E53455155454E5449416B
:1035F0004C2044414D414745530D0A28494E434C08
:103600005544494E472C20425554204E4F54204C8F
:10361000494D4954454420544F2C2050524F435556
:1036200052454D454E54204F462053554253544920
:103630005455544520474F4F4453204F5220534533
:103640005256494345533B0D0A4C4F5353204F4666
:10365000205553452C20444154412C204F5220509A
:10366000524F464954533B204F5220425553494EE6
:1036700045535320494E54455252555054494F4E8C
:103680002920484F574556455220434155534544FC
:1036900020414E440D0A4F4E20414E59205448457A
:1036A0004F5259204F46204C494142494C495459A8
:1036B0002C205748455448455220494E20434F4EF0
:1036C00054524143542C20535452494354204C49A2
:1036D0004142494C4954592C204F5220544F525486
:1036E0000D0A28494E434C5544494E47204E454704
:1036F0004C4947454E4345204F52204F5448455270
:1037000057495345292041524953494E4720494E74
:1037100020414E5920574159204F5554204F4620A3
:1037200054484520555345204F4620544849530D91
:103730000A534F4654574152452C204556454E207A
:1037400049462041445649534544204F4620544859
:103750004520504F53534942494C495459204F46F4
:1037600020535543482044414D4147452E0D0A2AD8
:103770002A2A2A2A2A2A2A2A2A2A2A2A2A2A2A2AA9
:103780002A2A2A2A2A2A2A2A2A2A2A2A2A2A2A2A99
:103790002A2A2A2A2A2A2A2A2A2A2A2A2A2A2A2A89
:1037A0002A2A2A2A2A2A2A2A2A2A2A2A2A2A2A2A79
:1037B0002A2A2A2A2A2A2A2A2A2A2A2A2A2A2A2A69
:1037C0002A0D0A00D0400B1CD1409C46203AD34021
:1037D00018435242634693401843704753B94AB95D
:1037E000002908BF00281CBF4FF0FF314FF0FF3009
:1037F00000F07AB9ADF1080C6DE904CE00F006F8DE
:10380000DDF804E0DDE9022304B070472DE9F0475C
:103810008C460E460446089D002B50D18A4217461E
:103820006CD9B2FA82FEBEF1000F0BD0CEF1200CA3
:1038300001FA0EF620FA0CFC02FA0EF74CEA060C1E
:1038400000FA0EF43A0CBCFBF2F9BBB202FB19CC45
:1038500009FB03FA4FEA144848EA0C46B2450AD974
:10386000F61909F1FF3180F02581B24540F222813D
:10387000A9F102093E44A6EB0A06B6FBF2F002FBF0
:10388000106600FB03F3A4B244EA0644A34209D93C
:10389000E41900F1FF3280F00B81A34240F208816D
:1038A00002383C440021E41A40EA0940002D62D06D
:1038B000002324FA0EF42C606B60BDE8F0878B4285
:1038C00007D9002D55D0002185E841000846BDE804
:1038D000F087B3FA83F1002940F08F80B34202D31E
:1038E000824200F2FC80841A66EB03060120B44693
:1038F000002D40D085E81010BDE8F08712B90127EF
:10390000B7FBF2F7B7FA87FEBEF1000F35D1012100
:10391000F61B4FEA174C1FFA87F8B6FBFCF20CFBBC
:10392000126608FB02F0230C43EA0646B04207D9B0
:10393000F61902F1FF3302D2B04200F2D2801A46E9
:10394000361AB6FBFCF00CFB106608FB00F8A3B2BD
:1039500043EA0644A04507D9E41900F1FF3302D237
:10396000A04500F2B9801846A4EB080440EA0240E2
:103970009CE729462846BDE8F08707FA0EF7CEF106
:10398000200326FA03F24FEA174CB2FBFCF11FFAB0
:1039900087F80CFB112206FA0EF620FA03F301FB5E
:1039A00008F933431E0C46EA0246B14500FA0EF40C
:1039B00009D9F61901F1FF3280F08C80B14540F24F
:1039C000898002393E44A6EB0906B6FBFCF00CFBED
:1039D000106200FB08F99EB246EA0246B14507D9DB
:1039E000F61900F1FF3371D2B1456FD902383E4468
:1039F000A6EB090640EA01418FE7C1F1200722FA50
:103A000007F88B4048EA030326FA07F44FEA134EFF
:103A1000B4FBFEF91FFA83FC0EFB19448E4020FA1A
:103A200007F809FB0CFA48EA06084FEA184646EA86
:103A30000444A24502FA01F200FA01F608D9E4189A
:103A400009F1FF3044D2A24542D9A9F102091C4430
:103A5000A4EB0A04B4FBFEF00EFB104400FB0CFCCC
:103A60001FFA88F848EA0444A44507D9E41800F18D
:103A7000FF3E29D2A44527D902381C4440EA094018
:103A8000A0FB0289A4EB0C0CCC45C246CE4615D354
:103A900012D055B1B6EB0A036CEB0E0606FA07F727
:103AA000CB401F43CE402F606E600021BDE8F08701
:103AB0001046F7E68946DEE64645EAD2B8EB020A4A
:103AC00069EB030E0138E4E77046D7E718468FE745
:103AD0008146BDE7114676E702383C4444E7084694
:103AE00006E7023A3E442BE7704700BF844641EAAE
:103AF000000313F0030349D1403A23D30B6803605A
:103B00004B6843608B688360CB68C3600B6903615B
:103B10004B6943618B698361CB69C3610B6A036243
:103B20004B6A43628B6A8362CB6AC3620B6B03632B
:103B30004B6B43638B6B8363CB6BC3634030403110
:103B4000403ADBD230320BD30B6803604B684360E2
:103B50008B688360CB68C36010301031103AF3D2A9
:103B60000C3205D351F8043B40F8043B043AF9D237
:103B7000043208D0D2071CBF11F8013B00F8013B0A
:103B800001D30B8803806046704700BF082A13D317
:103B90008B07B1D010F00303AED0C3F10403D21AE7
:103BA000DB071CBF11F8013B00F8013BA4D331F83F
:103BB000023B20F8023B9FE7043AD9D3013A11F8BF
:103BC000013B00F8013BF9D20B7803704B7843704E
:103BD0008B7883706046704780EA010C1CF0030FFD
:103BE00037D110F0030C20F0030021F0030150F84E
:103BF000042B08BF51F8043B0ED08CF0030C6FF07F
:103C00007F434FEACC0C23FA0CFC51F8043B42EA08
:103C10000C0243EA0C0300BFA2F1013C9A4201BF2F
:103C20002CEA020C1CF0803F50F8042B51F8043BA6
:103C3000F2D04FEA02604FEA1222012828BFB0EB0F
:103C4000036F08BF1B0AF4D003F0FF03000EC01A75
:103C5000704710F0030F0AD010F8012B11F8013B48
:103C6000012A28BF9A42F4D0A2EB030070474DF816
:103C7000045D50F8042B01F0030521F0030151F815
:103C8000043B022D26D04DD822F07F45B5EB132FF3
:103C9000A2F1013C2CEA020C0DD11CF0803C08BFC3
:103CA00051F8043B0AD185EA0205B5EB036F0CD14C
:103CB00050F8042BE8E74FEA13235BE03CF07F4C1D
:103CC00054D10B784FEA126554E04FEA126503F0C5
:103CD000FF034FE04FEA0245A2F1013C4FEA1545D0
:103CE0002CEA020CB5EB134F18D11CF0803C08BF36
:103CF00051F8043B07D185EA0205B5EB034F09D122
:103D000050F8042BE6E75FEA0C4C2FD10B884FEA02
:103D100012452FE04FEA03434FEA12454FEA13439F
:103D200028E000BF02F0FF05B5EB136FA2F1013CE4
:103D30002CEA020C0DD11CF0803C08BF51F8043B6A
:103D40000AD185EA0205B5EB032F0AD150F8042BFE
:103D5000E8E74FEA13630DE012F0FF0F06D051F8C9
:103D6000043B4FEA122523F07F4303E04FF00000AD
:103D700020BC704705F0FF0203F0FF00012828BFB8
:103D8000904204BF2D0A1B0AF4D0A2EB000020BC15
:103D9000704700BF90F87630074A80F87E3043F0D5
:103DA000800310B5D364436804461B680BB101213E
:103DB00098470323237010BD005C0040704700004B
:103DC00090F8743003F06003202B19D190F875201F
:103DD000212A0AD0222A4FF000030ED0202A0FD128
:103DE000084A82660722C26604E0064B8366072300
:103DF000C36600230367012070478366C366F9E743
:103E0000002070470008002006F02ABE06F0FABD28
:103E100006F086BD10B5EFF31183DBB903F018FF90
:103E2000FEE7836813B903F013FFFEE7C368196068
:103E30008268013A8260826913444269C360934296
:103E400024BF036AC36000234362C36A83B1BDE831
:103E500010401847EFF3058313B103F0F9FEFEE7B6
:103E600019B18369043B9942DBD903F0F1FEFEE707
:103E700010BD10B5EFF31183ABB903F0E9FEFEE717
:103E800083688269013B836003691344426903616B
:103E9000934224BF036A036100234362C36A73B180
:103EA000BDE810401847EFF3058313B103F0D0FECF
:103EB000FEE78368002BE3D103F0CAFEFEE710BDE6
:103EC00038B504460D46EFF31183EBB903F0C0FE9D
:103ED000FEE72379ABB92946204603F00FFF0028FF
:103EE00019DBA368002BF4D0A36813B903F0B0FE6C
:103EF000FEE7E36800201A1D6262A2691344A36210
:103F000038BD6FF0010038BDEFF30583002BE8D01A
:103F100003F09EFEFEE738BD38B504460D46EFF3CC
:103F20001183EBB903F094FEFEE72379ABB9294680
:103F3000204603F0E3FE002819DBA368002BF4D031
:103F4000A36813B903F084FEFEE722690020131D65
:103F5000126863621344A36238BD6FF0010038BD7C
:103F6000EFF30583002BE8D003F072FEFEE738BDC7
:103F700038B5D0F89044014620680378042B1ED150
:103F80000B7D022B1BD101232279458903FA02F212
:103F90002A4214D1EFF311824AB903F059FEFEE729
:103FA0004FF48073617902F081FD002038BD4A6AC8
:103FB0008D6AAA4201D1096A09B90432F0D10120FF
:103FC00038BD113110B550F82140002C3CD007F01D
:103FD0007FF90421601803F0CEFED4F89024136812
:103FE000527903EB8203DB689B695A68EFF3118314
:103FF000FBB903F02DFEFEE7636AA16A8B4201D193
:10400000216AF1B91A60226A01322262226B1344DA
:10401000E26A6362934201D3A36B636204F1180006
:1040200004F0AEFC2046FFF7A3FFBDE8104007F008
:1040300049B91AB1236B043B9A42DDD903F008FE5B
:10404000FEE703F005FEFEE710BD006BFFF790BF33
:1040500008B5EFF31183C3B903F0FAFDFEE7114B86
:10406000114A19681160114A12682AB11A6822F4BB
:104070007F021A601A681A604FF080520C4B1A6067
:10408000BFF34F8FBFF36F8F08BDEFF3058212B1FF
:1040900003F0DEFDFEE7074B19681A600029DED148
:1040A00008BD00BF20ED00E0981000209C1000200B
:1040B00004ED00E0E810002008B510B903F0C8FDD9
:1040C000FEE7C068BDE8084004F0A2BA08B510B920
:1040D00003F0BEFDFEE74FF0FF31BDE80840C068C9
:1040E00003F0B0B908B5EFF3118313B903F0B0FDD5
:1040F000FEE70369C2689A4203D182680AB10020D0
:1041000008BD184650F8043B0B6008BD00EB810366
:10411000F7B59C6A05460E46002C48D007F0D8F843
:1041200005EB86070821201D03F025FEFB685B696F
:104130001B686BB3EFF31183ABB903F089FDFEE7A6
:10414000FB685A69126832B11B8A013B134002D1E5
:1041500005F1740225E0D4F8902493682BB3012173
:104160001068984721E0E36DA26D9A4201D1626D1B
:10417000FAB9626D01326265626E1344226EE365C4
:10418000934201D3E36EE36504F14C0004F0F8FBC5
:1041900001A904F14C00FFF7A5FF02460028CFD08B
:1041A000019B3146284602F045FC07F08BF803B02E
:1041B000F0BD03F04DFDFEE713B5046BD4F8903469
:1041C0001A681178042916D1217D022913D1197991
:1041D000012312898B4013420DD101A904F14C0037
:1041E000FFF780FF024630B1D4F89044019B21795B
:1041F000206802F01FFC02B010BD000008B50D4B96
:104200001968C1F308010F2911D90123103901F0F0
:104210001F00834008484A0940F82230A0F580700A
:1042200040F822300548BDE8084003F0E5BB03F044
:104230000FFDFEE704ED00E080E200E0F4BC0008C2
:1042400070B500240C4B03F18000A3F1100126C9C6
:104250000439AA4207D353F8041C8A4208D3103306
:104260008342F2D170BD51F8046F42F8046BF0E75D
:1042700042F8044BF1E700BF1CBD0008FEE77047A1
:104280007047000070B50D461646044608B101B1EE
:1042900012B903F0DDFCFEE706F0A4FB2378022B45
:1042A00002D003F0D5FCFEE763681B6813B103F08E
:1042B000CFFCFEE70323B5F5803F237002D303F064
:1042C000C7FCFEE7636E0F4A5868E36EC66043F0B2
:1042D000800345600360A36E5B68DA60226F5D60F7
:1042E0001A60026842F0010202601A6804F10800D4
:1042F00042F001021A6003F0DFFCBDE8704006F0F6
:1043000097BE00BF0ABD000870B5044610B903F09F
:104310009FFCFEE706F066FB23785A1E012A04D9AB
:10432000052B04D003F094FCFEE7012B36D04FF4AC
:1043300000420025A36F606F1A6042681D605D60D7
:104340005D611368016823F00F0313600E23027C84
:1043500003FA02F24A60226F5668316821F00F01B9
:1043600031601168127C93404B6002F029FB206F92
:1043700002F026FB0D4B9C4210D14FF000420C4B3B
:10438000C3F88020012283F81F53C3F88420094A10
:1043900083F82053D36923F40013D36100236360AF
:1043A00001232370BDE8704006F042BEF4140020E3
:1043B00000E100E0001002402DE9F74F0446894675
:1043C0001E46154612B903F043FCFEE74FF0000805
:1043D000234FD0F818A006F005FB06F07DFA3B68E5
:1043E00006F1FF3BF318009363680BB36368013B6E
:1043F000636023695A1C226109F10102019299F854
:1044000000201A70E36822699A4224BFA3682361DE
:10441000BAF1000F01D02046D04706F009FE013D59
:1044200008F1010817D006F0DDFADDF80490DBE7AB
:104430001BF1030F06D93146204603F05FFC00282C
:10444000D2D006E006F048FA3968009B591A8E422D
:10445000F2D206F0EDFD404603B0BDE8F08F00BF9C
:10446000E41000203830FFF7A7BF4FF0FF3338309B
:10447000FFF7A2BFF8B504460E46174606F0B2FA9B
:104480006368A3B16368013B636023695A1C2261BE
:104490001E70E36822699A4224BFA3682361A3695E
:1044A0000BB12046984706F0C3FD002507E03946CA
:1044B000204603F023FC051EE2DA06F0B9FD28468B
:1044C000F8BD3830FFF7D6BF4FF0FF323830FFF776
:1044D000D1BF00002DE9F74F044689461E46154618
:1044E00012B903F0B5FBFEE74FF00008234FD0F8F8
:1044F00018A006F077FA06F0EFF93B6806F1FF3BEB
:10450000F318009363680BB36368013B636009F1C0
:104510000103019363695A1C62611B7889F80030BA
:10452000E36862699A4224BFA3686361BAF1000F2D
:1045300001D02046D04706F07BFD013D08F101087F
:1045400017D006F04FFADDF80490DBE71BF1030FFC
:1045500006D93146204603F0D1FB0028D2D006E030
:1045600006F0BAF93968009B591A8E42F2D206F069
:104570005FFD404603B0BDE8F08F00BFE4100020AF
:104580001830FFF7A7BF4FF0FF331830FFF7A2BF77
:1045900070B504460E4606F025FA636883B1636879
:1045A0006269013B6360531C63611578E268934262
:1045B00024BFA3686361A36943B12046984705E01F
:1045C0003146204603F09AFB051EE6DA06F030FD80
:1045D000284670BD1830FFF7DBBF4FF0FF311830B1
:1045E000FFF7D6BF2DE9F74F04460D461F4692460A
:1045F00012B903F02DFBFEE706F0F4F906F06CF9B2
:10460000284B002698461A6807F1FF3B07EB020982
:10461000636A3BB91BF1030F2AD939462046FFF7DD
:104620004FFC68BB606AA36AAAEB06021B1A93429E
:1046300028BF1346402B29D905F1400355F8042B18
:104640009D4240F8042BF9D1636A403640336362DF
:10465000626AA36A9A4204D3A16920460439FFF72B
:10466000D9FB06F0E5FC56450CD206F0BBF9CFE7C6
:1046700006F032F9D8F80010A9EB01018F42CDD233
:1046800006F0D6FC304603B0BDE8F08F1A46294646
:104690000193FFF72BFA019B626A1D441A44626280
:1046A0001E44D5E7E41000202DE9F0410446D0F87F
:1046B00090040E4685681746984615B1012100689A
:1046C000A84743463A46314604F14C00BDE8F04164
:1046D000FFF788BF70B50446D0F890040D46836894
:1046E000164613B10121006898473246294604F165
:1046F0004C004FF0FF33BDE87040FFF773BF70B55B
:1047000004460E46154606F06DF9636A4BB9294614
:104710002046FFF7D5FB054618B106F089FC284670
:1047200070BD636A1E70636AA26A0133934263625A
:1047300004D3A16920460439FFF76CFB06F078FC2E
:104740000025ECE770B50446D0F890040D46836868
:10475000164613B10121006898473246294604F1F4
:104760004C00BDE87040FFF7CABFD0F8902438B5C0
:10477000936804460D4613B10121106898472946F5
:1047800004F14C004FF0FF32BDE83840FFF7B7BFEF
:104790002DE9F74F04460E461F46924612B903F024
:1047A00057FAFEE706F01EF906F096F8284B0025AA
:1047B00098461A6807F1FF3B07EB0209636A3BB9A9
:1047C0001BF1030F2AD939462046FFF7A5FB68BB2A
:1047D000616AA36AAAEB05025B1A934228BF1346DB
:1047E000402B29D9334601F1400251F8040B914284
:1047F00043F8040BF9D1636A4036403363624035B5
:10480000626AA36A9A4202D32046FFF732FB06F09F
:104810000FFC55450CD206F0E5F8CFE706F05CF842
:10482000D8F80010A9EB01018F42CDD206F000FCB0
:10483000284603B0BDE8F08F1A4630460193FFF7D3
:1048400055F9019B626A1E441A4462621D44D7E70F
:10485000E41000201830FFF79BBF4FF0FF331830F3
:10486000FFF796BF38B504460D4606F0BBF8636AFD
:104870004BB929462046FFF74FFB054618B106F015
:10488000D7FB284638BD636AA26A13F8015B9342DE
:104890006362F4D32046FFF7ECFAF0E71830FFF735
:1048A000E1BF4FF0FF311830FFF7DCBF0369C2688A
:1048B0009A421FBF4268D25C0133036114BF1046A5
:1048C0006FF0010070470000002AF8B50C4606DDC5
:1048D000144A15492046BDE8F84000F0E1BD002526
:1048E0002E46124B1F68124B1B681A688AB93A464B
:1048F0001049204600F0D4FD32460F49204600F012
:10490000CFFD3A460D49204600F0CAFD2A460C4923
:10491000E0E75B6803B101369D4238BF1D46134690
:10492000E3E700BFCBBE0008CFBE0008900900201F
:1049300098090020DBBE0008F9BE000811BF00087E
:104940002FBF0008012A084619BF034A03491A6805
:10495000034900F0A5BD00BFB8BD0008CFBE0008E8
:1049600082BE0008002AF7B50C4607DD20461D4A26
:104970001D4903B0BDE8F04000F092BD1B4A1C4940
:10498000204600F08DFD1B4A1B49204600F088FDA3
:104990001A4A1B49204600F083FD1A4A1A4920464C
:1049A00000F07EFD194B1A4A00931A491A4B204613
:1049B00000F076FD1949204600F072FD184D194EA1
:1049C000194FB54206D32046184903B0BDE8F04060
:1049D00000F066BD15F8012B3946204600F060FD59
:1049E000EFE700BFCCBD0008CFBE0008D1BD000876
:1049F000DEBD0008F1BD0008FEBD000811BE0008C4
:104A00003BBE00084EBE000874BE0008AEBE0008E3
:104A10008BBE000897BE000887BE0008B7BE00081E
:104A200048D100085CD10008C6BE0008FFCD0008D0
:104A3000002A10B50C4606DD064A07492046BDE8A7
:104A4000104000F02DBD05F047FF044B04491A68E3
:104A5000F4E700BF4DBF0008CFBE0008E4100020FF
:104A600055BF0008002A08B5084605DDBDE8084026
:104A7000064A074900F014BD05F0B4FF01210548BE
:104A800003F079F9BDE8084004F076B8C7BD000826
:104A9000CFBE0008680900202DE9FF474FF4806071
:104AA00002F064FE964C054624220021204606F0C2
:104AB000F5FF4FF4806350202560636002F056FEDE
:104AC000044650B10023012580F846302060C563BC
:104AD000036403F0A7FE84F84C50204602F016FE53
:104AE000884B89481C6002F0B5FF4FF480630024B6
:104AF000864D874E6B6174603460B46005F072FF60
:104B0000EFF31183002B40F0D28103F0A1F8FEE710
:104B100021464FF4847002F009FF012003F042FCAB
:104B20004FF4847002F00EFF06467A4C7A4802F089
:104B30002BFF7A4B2046E36706F0AEFA224678490F
:104B4000784805F03FFB05F04DFF774A137D591E6D
:104B5000012902D903F07CF8FEE7012B0CD173493F
:104B6000CB6943F48023CB61C021714B83F82713B9
:104B70008021C3F8841159604FF49C71936F002712
:104B8000996040214FF00109196142F22C11C3F8DC
:104B90001490D9601F6019684FF0FF0A5B68022308
:104BA00082F87CA01375FFF753FA05F00FFF03207E
:104BB00002F0FEFE8046742002F0D8FD5D4B0446F4
:104BC0000360477680F8707080F818A0203003F0FA
:104BD00054FE237EE061627E4946204601F07AFD64
:104BE0000746002800F0A081534B201D2361534B42
:104BF000A4606360524B49461A681860E26004F092
:104C000039FFB8F1000F07D00823C8F804304D4B26
:104C1000C8F80040C8F808304B4802F01BFF4B486A
:104C200002F0B2FE83E14A4802F014FF4FF00008A0
:104C3000F2E10DF10F03082206F032F938B92046EF
:104C400004F076FF47F6FF739842A0804CD14148AC
:104C500002F000FF37B3FF233F4C40492376404B1F
:104C6000224663613F4B4048236205F0ABFAB8F13E
:104C7000000F06D13D4802F0EDFEE36943F01E034C
:104C8000E36136B93A4802F0E5FEE36943F0010317
:104C9000E3613849304802F0EDFD00282DD1364857
:104CA00002F0D8FE00243548354B0121C360354B56
:104CB00044600360224B344E1A681860826004F02E
:104CC000D9FE324B802201930123314900933148B0
:104CD000234603F051FC05F085FE3278531E012B6C
:104CE00062D902F0B5FFFEE72B4802F0B3FE224680
:104CF0002A492B4805F066FAACE72A48D0E700BFFE
:104D000074100020780E0020E8BF00080008014061
:104D100068090020F4140020BCC100088CBD000804
:104D2000059D0008F8BF0008EC10002000100240AC
:104D300000E100E038C20008FCBF000881900008D4
:104D4000C4140020A0BD000857C1000898C1000885
:104D500027C000083CC0000828090020CD960008A4
:104D60005CBF0008859400087FC0000887C0000869
:104D70009BC0000820080020ADC000084C0900209E
:104D8000DFC00008AD9500082C0F0020C8140020DB
:104D9000E6C00008399A00085CC000086D9B000856
:104DA0007AC00008C7C00008AB4B2046736023469A
:104DB000F1180433202BC860FAD1012A1BD1A7496E
:104DC000CB6943F40003CB61A1F5DA310A64D02248
:104DD000A34B83F813234FF40022C3F880211A60F9
:104DE000E02283F814234FF48012C3F880211A6064
:104DF000086403F085FE4FF002089A4C86F80080A4
:104E0000FFF726F905F0E2FD974B0121236000230F
:104E10004FF4827704F180002362A3606360E36053
:104E2000A361A0626062A063E36323648F48E364CC
:104E3000236763678E4B04F522722175217784F80E
:104E4000501004F59261A367E2622763C4F83480CE
:104E50006064A464C4F85480E265A2652166676654
:104E6000C4F86880E266E46705F0BCFD237D013B81
:104E7000012B02D902F0ECFEFEE77E4BF462C4F88F
:104E80009034B464346384F81480FFF7E1F805F0DB
:104E90009DFD4FF4806378482B6102F0DBFD00221A
:104EA0007649774803F0DAFE04B0BDE8F087754B29
:104EB000F36006F0BDF80423734E3020337102F026
:104EC00055FC306070B32346704A04600134042CF2
:104ED0008260436000F10C00F7D16D4802F0BAFD2A
:104EE0006C49002002F07AFD6B49012002F076FD4A
:104EF0006A49022002F072FD00226949694805F002
:104F000061F903214FF4847002F010FD012003F0D9
:104F100049FA4FF4847002F015FD00287FF4F8ADD3
:104F2000012602E66048B8E7604802F093FD604B56
:104F3000604C01930123402200935F495F4B60481E
:104F400003F01AFB4FF480720021204606F0A6FD04
:104F50005C4B04F1080123608123204623746374B1
:104F600005F01AFCD4F800E02046BEF81430DEF854
:104F7000102013F0010F03BF5B0852084FF080713F
:104F80000021B3F5806FBFF44EAE012BB2FBF3F2FC
:104F900008BF002341EA8333DEF81810B2FBF1F4B6
:104FA00001FB142100297FF43EAEB4F5805FBFF40D
:104FB0003AAE4CF25031C0F8C03002F543434F33A3
:104FC000B3FBF1F39BB2B3F5806FA0F8BC40A0F83F
:104FD000C430BFF428AE3C4BC0F8B820C0F8F43061
:104FE0003A4B3B4CC0F8E8303A4BC0F8EC001A683A
:104FF0001C60C0F8F020A4F1E80005F065FB8046D5
:1050000000283FF410AE3448A4F1E802334905F01B
:10501000D9F8334802F01EFD0023324C07226360AA
:10502000314B1821236031480DF10E0304F0E4FDEB
:1050300000287FF40CAE9DF80E30022B7FF407AEF3
:1050400023681868197903238DF80F3000287FF43E
:10505000F0AD02F0FDFDFEE740C200080010024086
:1050600000E100E0A009002050C200084B40000809
:10507000B941000808C20008EEC00008FDC00008E1
:10508000EC100020159F0008780900207CC600085D
:1050900022C1000800080140000C0140001001403E
:1050A000DD9800083CC1000806C1000841C10008A5
:1050B0007C1200207811002004C000087812002023
:1050C00081A200086CC1000808C00008B9A7000848
:1050D00060120020C414002010C00008C15D000848
:1050E00014C00008600900208CC10008F4140020DE
:1050F000F8B50F46044618B94FF0FF363046F8BDF4
:105100008568C66800212846B04215D1012A04D11D
:105110002369002B43DD023B236123699942EBDBCA
:10512000A84201F1FF31266810D1765DC6B9012A87
:10513000E2D101332361E1E7236801311B5C0133D4
:10514000184463689842A8BFC01ADDE78B42ECD0D0
:10515000765D013635446668B542A8BFAD1BDFE712
:105160000133236140220021384606F097FC636832
:1051700072199A42206805F1010105DA01443246AC
:105180003846FEF7B3FCB9E75D1B013D01442A46F2
:105190003846FEF7ABFC721B21687819F1E7002650
:1051A000ACE72DE9F04105460E46174698462868BB
:1051B00010B90120BDE8F0813946FEF70DFD044627
:1051C00040B9A8686F68069B42463146B8472046FA
:1051D000BDE8F0810C35EAE770B50D4600B1086016
:1051E0002E68A6B10E49304606F06AFD315C3418CF
:1051F00022290FD10134204606F09EFC28602B683E
:105200001BB15A1C2A6000221A70237803B90024AB
:10521000204670BD0249204606F030FDEEE700BF93
:1052200094C10008C36882689A421FBF4268D15483
:10523000C36801331ABFC36000206FF001007047DC
:10524000024AD36843F08003D360704700480040AF
:1052500038B505462B69EC680846E41A944228BF25
:105260001446696822461944FEF740FC2B69204623
:1052700023442B6138BD38B5C36884680546E41AF9
:10528000944228BF1446406822461844FEF72EFC7C
:10529000EB6820462344EB6038BD08B50B0702D508
:1052A00002F0D6FCFEE708BD2DE9F04F0B46804624
:1052B00015464FF0000987B019785E1C002900F0F0
:1052C000E880252907D0D8F8003040469B689847E9
:1052D00009F1010987E05A784FF0000B2D2A08BF29
:1052E0009E1C37780CBF01230023302F18BF2027C6
:1052F000019308BF013616F8012BA2F13001C9B2A3
:10530000092903D92A2A05D1297804350A2303FB60
:105310000B1BF0E72E2A4FF000010ED116F8012BDF
:10532000A2F13000C0B2092803D92A2A05D1287871
:1053300004350A2303FB0101F0E702F0DF004C28EB
:1053400003D1307808B102460136632A4DD07BD8AC
:105350004F2A00F09C806ED8442A01D0492A6ED191
:10536000296805F1040A0029BCBF2D228DF80C2004
:105370004FF00A02BABF49420DF10D0003A803F035
:1053800028F903AC051B019AABEB050323EAE37391
:10539000002A3AD1C3F1000BDBB121782D290CD1C1
:1053A000302F0AD1D8F800204046926801939047E8
:1053B000019B013409F10109013DD8F8002039466B
:1053C00092684046019390471BF1010B019BF4D179
:1053D00099442B46013B1AD5002DA8BFA9445C4631
:1053E000FCB95546D944334666E720272A6806ACFF
:1053F00005F1040A04F80C2D0DF10D00C2E710228E
:1054000005F1040A296803A8B9E79B46E1E7D8F843
:10541000002014F8011B9268404601939047019BBD
:10542000D8E7D8F8003039469B6840469847013C99
:10543000D6E70A22E4E7552AFBD0582ADFD006AC8B
:1054400004F80C2DAA46D7E76F2A20D003D8642A87
:1054500086D0692A83E7752AEBD0782ACFD0732AC1
:10546000EDD12C680D4B47F6FF72002C08BF1C468F
:10547000002908BF1146224605F1040A10460578A6
:10548000013215B18D1AEC42F8D520277AE70822AF
:10549000B6E7484607B0BDE8F08F00BF70C200080D
:1054A0000EB403B503AA52F8041B0192FFF7FCFEE9
:1054B00002B05DF804EB03B0704700001C4B1A68A3
:1054C00042F001021A601A689207FCD51A6802F0CD
:1054D000F9021A6000225A605A6812F00C0FFBD1D0
:1054E0001A6842F480321A601A689003FCD55A6A2E
:1054F00042F001025A625A6A9107FCD55A6842F496
:10550000F8125A601A6842F080721A601A689201A2
:10551000FCD51221074A5A60074A11605A6842F0C6
:1055200002025A605A6802F00C02082AFAD1704747
:105530000010024000641F0000200240F8B500EB9C
:105540008103DE68336803F00303022B26D0032BAC
:1055500004D0012B1FD102F07BFBFEE74FF4C062A9
:10556000334B0F011C6D736904F1804404F5C04492
:105570003D19CBB100236B60338AD0F884E001334E
:1055800023F001037344B3F5007FC0F8843007D9DA
:1055900002F05EFBFEE74FF40072E1E70022DFE776
:1055A00047F804E042F02002B36933B3748A3E2C1A
:1055B00004F1FF3316D943F01F0301331D4E5B1175
:1055C00046EA83239BB2EB60D0F88430013424F0A8
:1055D00001041C44B4F5007FC0F884400AD902F0ED
:1055E00037FBFEE7022643F00103013393FBF6F39A
:1055F0009B02E7E7AB6042F4005248F2800042EAC7
:10560000010323F47843890023F0F00301F1804182
:1056100001F5B841034322F4F1620B6022F0070266
:105620000B685204520C5A4002430A60F8BD00BF96
:10563000005C00400080FFFF0D4B00011B6D10B5AA
:1056400003F1804303F5C043C418C358104603F167
:10565000005303F540535B006260141A00280C44A9
:1056600000DC10BD2488023843F8044BF5E700BF86
:10567000005C00402DE9F74F944D6C6C660504D535
:105680006FF480636B6403F03BFA200511D52B6C3B
:105690008F4843F008032B646FF400636B64037856
:1056A00080F880300523037043681B680BB1042128
:1056B0009847E10414D5854B9A6C12040CD41A6CEB
:1056C000834822F008021A6490F88030037043681F
:1056D0001B680BB1052198476FF480527B4B5A64CD
:1056E000A30508D57A484368DB6803B198476FF48F
:1056F0000072764B5A64764EDFF8EC8114F4004168
:105700001BD1744B1A681960A2B1734B734A1968A4
:105710001160734A12682AB11A6822F47F021A6073
:105720001A681A604FF080526E4B1A60BFF34F8FA9
:10573000BFF36F8F03B0BDE8F08F04F00F04A50036
:1057400005F1804505F5B845D5F800A0A71C06EB86
:1057500087031AF0800FD3F8049026D02A68D9F86E
:10576000143002EA080242F400422A60D9685A68FA
:1057700018680A44801A5A602BD0B9F81020824267
:1057800028BF02469868DA60014499602046FFF716
:1057900053FF2B6823F4F04323F0400383F03003DE
:1057A00043F4004343F080032B601AF4004F72D09F
:1057B0002B681AF4006F03EA080343F080032B60A0
:1057C00016D006EB87077B685B6821463046984712
:1057D00061E0012303FA04F2338923EA02033381EF
:1057E000D9F80830002BE0D0214630469847DCE756
:1057F000364AD9F81830126DD3F808A002F1804269
:1058000002F5C04202EB04118A68D1F80CE002F103
:10581000005202F540525200CEF309010092934625
:105820008A1C0AF102000192019AA2EB000CD444F6
:10583000BCF1010F32D84808B1EB400F18BF009AF5
:105840002EF0010E18BF52F820204FEA8E5E4FEA6C
:105850009E5E18BF0AF80E209A680A449A605A6839
:105860000A445A601A68521A1A609A89013A92B226
:105870009A81B9F812308B4200D8CAB9012303FAD1
:1058800004F2738906EB870723EA020373817B68BE
:10589000DB68002B99D10D4B5C6C2FE75BF804CBD8
:1058A000023000F804CC4FEA1C2C00F803CCBBE714
:1058B0002B6823F4904323F0700383F4405343F4A4
:1058C000004343F080032B60E5E700BF005C00402D
:1058D0002C0F0020E810002020ED00E098100020A0
:1058E0009C10002004ED00E00F07FFFF0A4B0B4A5D
:1058F000196811600A4A12682AB11A6822F47F02F4
:105900001A601A681A604FF08052064B1A60BFF393
:105910004F8FBFF36F8F704720ED00E0981000208D
:105920009C10002004ED00E02DE9F047614CA66FCB
:10593000F7683368DA059DB20BD505F0C9FC4FF462
:105940000071201D02F017FA6FF48073336005F0C8
:10595000B9FC05F0BDFCDFF8688108F1140915F009
:105960002F0F0ED105F0AEFC39066DD52A066BD58A
:1059700005F0AEFCEFF31183002B4BD102F068F978
:10598000FEE72B0713D015F0080F0CBF0021802174
:10599000E80748BF41F02001AA0748BF41F0400195
:1059A0006B0748BF41F48071404602F0E4F9A80655
:1059B000D6F804A02BD5EFF3118313B902F048F900
:1059C000FEE7E36994F87C501BB90421404602F0DD
:1059D000D2F9EFF3118313B902F03AF9FEE7A36AA3
:1059E000E26A934202D1E269002A4AD1E26905EAF9
:1059F0000A050132E2615A1CA2621D70A26A636A42
:105A00009A4201D3236AA362484602F0B9FF35687F
:105A1000ADB2A4E7E36CA26C9A4202D1E26B002A19
:105A200035D1E26B0132E2635A1CE26493F80080E4
:105A3000636C9A4201D3236CE3641F4802F0A0FF19
:105A4000C6F8048005F03EFC6B0611D505F040FC5D
:105A5000A26CE36C9A4201D1E36B1BBB6FF0400375
:105A600027F040073F043F0CF760336005F02AFC45
:105A70000021124B1A681960CAB1BDE8F047FFF760
:105A800035BF4FF48061404602F075F9BFE7082149
:105A90000B4802F070F94FF63F733B4043F0400370
:105AA000F360CFE71021064802F065F9D6E7BDE8BC
:105AB000F08700BFEC10002024110020E810002027
:105AC000F010002038B50B07044602D502F0C0F8EC
:105AD000FEE7836E59680A6822F00F020A601A7C9A
:105AE00019680E2303FA02F24A60426E556829686B
:105AF00021F00F0129601168127C93404B604368CC
:105B00001B682BB10422027098472378042B01D123
:105B10000223237005F0DCFBEFF3118313B902F0CD
:105B200097F8FEE7A06810B1002102F0C1FEBDE8C1
:105B3000384005F0C7BB0000F8B5344B996F4C698D
:105B400004F45F40C0434861586FA2B246683568AC
:105B500025F00F053560057C06680E2000FA05F576
:105B600075601D6F6F683E6826F00F063E602E68F8
:105B70002D7CA8407060D3F880000130C3F880000D
:105B800012F4807018BF01209705986042BF986892
:105B900040F00200986056050BD5486820F400706C
:105BA0004860086840F400700860996841F004019A
:105BB0009960150542BF996841F008019960500449
:105BC00042BF996841F020019960D10442BF9A68B0
:105BD00042F010029A60220442BF9A6842F04002EA
:105BE0009A609B6843B105F073FB6FF001010848B0
:105BF00000F0D6FE05F066FB0021064B1A6819601E
:105C00001AB1BDE8F840FFF771BEF8BDF4140020EA
:105C100054150020E8100020F8B54D4DAC6FD5F8B4
:105C20008020A3696669013216F4807FC5F8802060
:105C3000294601D11D2A1CD9636923F4807363614D
:105C4000636823F40073636001238B6005F040FBFD
:105C50006FF001013F4800F0A3FE05F033FB002187
:105C60003D4B1A681960002A71D0BDE8F840FFF773
:105C70003DBE46EA0343394A23F07F4393422ED088
:105C80000AD8073A93421DD0013293422CD016F025
:105C90000A0F18BFA369E2E7314A93423AD00232B1
:105CA0009342F4D12B6F5B685F68002F3DD0B5F84D
:105CB000643043F00103A5F86430236843F4A06323
:105CC0002360CCE7B5F864301A0A06D003F001036C
:105CD00043F0F00302F0060213432361D7E7B5F85F
:105CE0006430C3F34703F8E7636823F40073636029
:105CF0002B6F5B681A6842F001021A60626842F416
:105D0000805262605B68012BC1D8236823F48063F2
:105D10002360BCE7636823F4007363606B6F5A68A9
:105D2000136843F001031360B1E7636823F4007361
:105D30006360236843F40073236005F0C9FA3946B1
:105D400005F1600000F02CFE05F0BCFA9FE7F8BDFD
:105D5000F414002054150020E8100020080003006F
:105D60008200070010B504460E49FFF799FB0E4963
:105D70002046FFF795FB0D492046FFF791FB0C49A4
:105D80002046FFF78DFB0B492046FFF789FB0A49A8
:105D90002046FFF785FB2046BDE810400749FFF786
:105DA0007FBB00BF77C3000880C30008A9C30008F9
:105DB000B7C30008C7C30008E1C3000801C4000856
:105DC0002DE9F043044687B00D46984616462AB999
:105DD0002846FFF7C7FF07B0BDE8F0831F68774983
:105DE0003846FDF7F9FE8446002855D16F4604F188
:105DF000080EBEE80F000FC79EE80300013E002E0C
:105E000087E80300CDF80CC08DF810C020DD0A2112
:105E1000D8F8040004F0EAF94FF47A7380FB030128
:105E2000012ECDE9000113D00A21D8F8080004F0B2
:105E3000DDF9022E8DF808000AD00A21D8F80C00EE
:105E400004F0D4F90028D4BF002001208DF8100000
:105E50006946204604F0A0FC002840F0A7802946AF
:105E6000204604F01FFB56492846FFF719FB554A08
:105E700055492846FFF714FBADE7061D08D0841CE2
:105E800008D0524B524AB0F1FF3F18BF1A46EFE715
:105E9000504AEDE7504AEBE750493846FDF79CFE83
:105EA00020B92946204604F0FDFA94E74C493846CB
:105EB000FDF792FE00285AD1013E21D140F6C236AC
:105EC000484FDFF84481DFF84491203432463946A8
:105ED0002846FFF7E5FA14F8012B10060BD502F05F
:105EE0003F0249462846FFF7DBFA41F27A7314363F
:105EF0009E42EBD16FE741462846FFF7D1FAF4E71F
:105F0000D8F8047038493846FDF766FE38B920469F
:105F100004F0DAFB35492846FFF7C2FA5BE7012EA9
:105F20007FF756AF38463249FDF756FE0746002840
:105F30007FF44EAF0A21D8F8080004F057F9032E79
:105F4000814612D10A21D8F80C0004F04FF940F034
:105F50008003B9F1960F2ED84C4484F820304A467D
:105F600024492846FFF79CFA35E73B46F1E72249EA
:105F70003846FDF731FE00287FF42AAF204604F0B2
:105F80001BFA0621204605F0ECFA23686A46012137
:105F90001868FEF777F9204604F074FC9DF800209D
:105FA000A2F1FF014A424A41144962E7C31C7FF44F
:105FB00064AF134A5CE71349ADE700BFD3C20008E2
:105FC000FFCD000877C20008D8C20008C5C200088B
:105FD0009FC2000893C20008B6C20008ECC20008C5
:105FE000F3C20008FCC2000824C300082EC3000846
:105FF00035C3000839C3000845C3000849C3000879
:106000007AC2000863C300081AC30008FCC900086C
:106010002DE9F04F2426DFF8DC8285B0D8F8005057
:106020000C4606FB05F001F0A1FB0746002800F036
:10603000958001F005FED8F800309D42C0F09180B7
:106040004FF000084546DFF8B09208F1500106FB1A
:1060500005700122494404F0D9FDA8F1140818F193
:10606000640F0544F1D1864B0222196806FB0570C6
:1060700004F0CCFD834B05441968022206FB057031
:1060800004F0C4FD054404227F4906FB057004F0BA
:10609000BDFD054406FB057003227C4904F0B6FDF6
:1060A000054401F095FF7A4A0D21204604F0CAF814
:1060B000784A0A21204604F0C5F8774A0B21204689
:1060C00004F0C0F8754A0B21204604F0BBF8744A6E
:1060D0000621204604F0B6F8724A0621204604F054
:1060E000B1F8714A0921204604F0ACF86F49204606
:1060F000FFF7D6F93E464FF00008DFF80092DFF8D0
:1061000000A2DFF800B2A8452DD10026384601F0E4
:1061100005FB66492046FFF7C3F9654A0D21204675
:1061200004F090F85B4A0A21204604F08BF8614A9B
:106130000B21204604F086F85F4A0B21204604F02C
:1061400081F85E492046FFF7ABF95D4B5D4F1D6856
:10615000DFF8B481DFF8AC91002D66D105B0BDE861
:10616000F08F00259DE733684A460093B3680D2100
:10617000204604F067F87368504619460293FDF70D
:106180002BFD029B002836D14F4A0A21204604F0FD
:1061900059F8F3694D4A0B21204604F053F8338C2B
:1061A000484A0B21204604F04DF87369454A062100
:1061B000204604F047F833690621424A204604F09D
:1061C00041F83268039204F00DFC414B1B680293C6
:1061D00004F0FCFB029B039A9A4212D13D4A09212A
:1061E000204604F02FF831492046FFF759F908F10D
:1061F0000108243687E75A460A21204604F022F88F
:10620000C7E7337B002BE9D0012B01D1324AE6E707
:10621000022B01D1314AE2E7032B01D1304ADEE7FC
:10622000042B0CBF2F4A304AD9E733463A460D219A
:10623000204604F007F8EB68CBB14A460A21204615
:1062400004F000F82B46214A0B21204603F0FAFF08
:106250002B681E4A0B21204603F0F4FF2B7C63B110
:1062600022492046FFF71CF90136AD6874E7424623
:106270000A21204603F0E6FFE4E71D49F1E700BFED
:10628000CC140020D0140020D0100020E0140020F6
:106290000CC4000814C400081EC4000829C4000867
:1062A00034C400083AC4000840C40008FFCD000808
:1062B00091C400089CC40008A7C40008B0C400082A
:1062C000C41400207CC9000854C400085CC4000841
:1062D0000C10002061C4000869C400086FC40008E5
:1062E00077C4000881C4000889C40008B8C4000845
:1062F000C1C40008A01000201010002046C40008EF
:106300004FC4000859C4000896C100082DE9F04F99
:1063100082460024B64BA5B01B680268986501460A
:10632000B44801F097FBDAF80830DAF80460039318
:10633000DAF80C30B0491C70DAF80C3030460993AA
:10634000DAF810300B940A930C940D94FFF7A8F828
:106350000494DFF8CCB24FF0000814AFC1463D46BC
:10636000A6493046FFF79CF8DAF80440236801227A
:106370005B680DF11F0120469847002841D09DF829
:106380001F101B2900F02B81B9F1000F33D05B29BE
:1063900000F02881B8F1000F2BD0412919D100223B
:1063A000294609A8FEF7A4FEB0F100081FDD082366
:1063B0004A2259462046FFF773F891492046FFF7D5
:1063C0006FF82A468F492046FFF76AF805EB080761
:1063D0000DE042290BD10122294609A8FEF788FECB
:1063E000B0F1000802D18DF85080E0E7DFDA4FF01D
:1063F0000008C146BAE7042916D183492046FFF7B1
:106400004FF87D493046FFF74BF880493046FFF79B
:1064100047F804F0E7FA01217D4801F0ACFC02F0F6
:10642000ABFB25B0BDE8F08F082901D07F2912D140
:10643000AF429BD0236808219B6820469847236879
:1064400020219B6820469847236808219B682046A6
:106450009847013F8AE70D2940F08280664920462F
:10646000FFF71EF80A997C1B4B1E9C4230DB9DF8FF
:10647000103028463B7008A9FEF7AEFE00250746FF
:106480000EAC08A90020FEF7A7FE38B1052D40F09C
:10649000AB8060493046FFF703F8002724AB049A2D
:1064A00003EB850343F8582C002F3FF454AF5A49AF
:1064B0003846FDF791FB002840F0D980002D00F010
:1064C000B180554A55493046FEF7EAFF41E7013CA5
:1064D0002B1913F8013C202B02D1002CF7DCC6E766
:1064E000002CC4DD0C9B0998DDF82CE07345A5BF9A
:1064F000A3EB0E020132AEEB03028A1AB8BF02F11F
:10650000FF32944280F2D180A1EB030808F1FF38FA
:10651000444503F101030ADB424629461844FDF7CE
:10652000E5FAA4EB080205EB0801099802E022460F
:1065300029461844FDF7DAFA0C9B099A9DF81010C9
:10654000D4540C9B01341C440A9B0C949C42A4BF61
:10655000E41A0C940C9B099AD15400230D9386E7FE
:106560000E291FD10122294609A8FEF7C1FD031EED
:10657000059314D18DF8509008234A22594620469D
:10658000FEF78EFF1E492046FEF78AFF2A461D4968
:106590002046FEF785FF059B2B441F46E6E6FFF6E7
:1065A000E5AEE9E7102908D14A46294609A8FEF7D1
:1065B0009FFD031E0593DFDCD8E61F297FF6D6AECC
:1065C0000DF18F039F42BFF4D1AE236820469B6834
:1065D00098479DF81F30013707F8013CC6E64FF099
:1065E0000109C3E6C846C1E644F82500013548E77D
:1065F0000C100020C8C40008FFCD0008E3C4000848
:10660000F7C4000859C40008FBC4000831C50008DD
:1066100068090020FEC4000813C50008CFBE0008AA
:10662000ECC4000825493046FEF73AFF244C254FBC
:106630000C35631953F80C2C32B9039B4BB9224922
:106640003046FEF72DFF84E639463046FEF728FF38
:10665000EEE7039B1B4D03F10C040C3454F8182C8B
:10666000002AECD029463046FEF71AFFF5E70EACBB
:1066700000942B463A4631461148FEF792FD002819
:106680003FF467AE039B33B910493A463046FEF7F4
:1066900007FF0F49D4E700942B463A46314603984A
:1066A000FEF77FFD0028EFD153E610F80E2072446C
:1066B0000132914200DC521A0B9215E718C500080E
:1066C00038C5000828C50008FFCD000859C40008D7
:1066D0002CC50008F7B5044616461D460F46F9B905
:1066E000437E93422AD090F87030CBB166762FB3B8
:1066F000002223681548197902AB03F8022D022203
:1067000004F0CEFBB8B923680322197902AB03F871
:10671000015D0E4804F0C4FB68B9257601200BE04A
:1067200023680122197902AB03F8036D074804F0CE
:10673000B7FB0028DAD0002003B0F0BD237EAB42C7
:10674000ECD094F87030002BDDD0E6E7F414002094
:1067500008B510B901F07CFAFEE70068BDE8084012
:1067600001F056BF08B510B901F072FAFEE74FF01C
:10677000FF31BDE80840006800F064BE08B50B07B3
:1067800002D501F065FAFEE7436F816F5868026831
:1067900022F00F020260187C1A680E2383405360B7
:1067A0004B6843F400734B6008BD000008B50D4B07
:1067B0000D4A19681268090E01F00E01114206D047
:1067C0000A065A60094A136B0BB1506B98470021B7
:1067D000074B1A6819601AB1BDE80840FFF786B880
:1067E00008BD00BF0000024080000240B40F00203E
:1067F000E810002008B50D4B0D4A19681268090D04
:1068000001F00E01114206D00A055A60094A936A46
:106810000BB1D06A98470021074B1A6819601AB16A
:10682000BDE80840FFF762B808BD00BF00000240A5
:106830006C000240B40F0020E810002008B50D4B9A
:106840000D4A19681268090C01F00E01114206D0B8
:106850000A045A60094A136A0BB1506A984700212A
:10686000074B1A6819601AB1BDE80840FFF73EB837
:1068700008BD00BF0000024058000240B40F0020D5
:10688000E810002008B50D4B0D4A19681268090B75
:1068900001F00E01114206D00A035A60094A9369B9
:1068A0000BB1D06998470021074B1A6819601AB1DB
:1068B000BDE80840FFF71AB808BD00BF000002405D
:1068C00044000240B40F0020E810002008B50D4B32
:1068D0000D4A19681268090A01F00E01114206D02A
:1068E0000A025A60094A13690BB15069984700219E
:1068F000074B1A6819601AB1BDE80840FEF7F6BFE9
:1069000008BD00BF0000024030000240B40F00206C
:10691000E810002008B50D4B0D4A196812680909E6
:1069200001F00E01114206D00A015A60094A93682B
:106930000BB1D06898470021074B1A6819601AB14B
:10694000BDE80840FEF7D2BF08BD00BF000002400E
:106950001C000240B40F0020E810002008B50C4BCA
:106960000C4A1968126801F00E01114205D00A4A5A
:10697000596013680BB1506898470021074B1A689B
:1069800019601AB1BDE80840FEF7B0BF08BD00BFEE
:106990000000024008000240B40F0020E810002070
:1069A00008B5EFF3118333B901F052F9FEE7BDE802
:1069B000084001F07DBF00680028F8D108BD000044
:1069C00070B510B901F044F9FEE70125154A467C7F
:1069D000136805FA06F1194202D101F039F9FEE710
:1069E00023EA01038168136013EA01040BD1827C5E
:1069F00002F01F018D4050090B49203041F8205012
:106A0000114481F800430021084A5B0642F8361021
:106A100002EBC602516001BF054A536923F001032E
:106A2000536170BDEC0F002000E100E0B40F0020C6
:106A300000100240F8B50C461146EFF311827ABB04
:106A400001F006F9FEE701250689A540ADB216EA78
:106A5000050702D001F0FCF8FEE73543058100EBA5
:106A60008400C2685069128A80E888009A4228BF70
:106A70001A468160C2602046A40004F1804404F5F7
:106A8000B844FEF7D9FD236823F4F04323F0400314
:106A900083F0300343F4004343F080032360F8BDE8
:106AA00008B1072CCFD901F0D3F8FEE7F8B5EFF322
:106AB00011848CBB01F0CCF8FEE70126448906FA6C
:106AC00001F5ADB214EA050702D001F0C1F8FEE706
:106AD0002C43448100EB8100C468A069826080E897
:106AE000880093B98681890001F1804101F5B841A0
:106AF0000B6823F4904323F0700383F4405343F472
:106B0000004343F080030B60F8BD628A013B1344ED
:106B1000B3FBF2F38381E6E708B10729CDD901F091
:106B200097F8FEE770B504460E461546EFF311835D
:106B30000BBB01F08DF8FEE72378042B02D001F0A7
:106B400087F8FEE704EB8603D96811B101F080F8FD
:106B5000FEE76869DD6010B1102204F09FFFA869AC
:106B600018B11022002104F099FF31462046BDE8FB
:106B70007040FEF7E3BC08B1002DDDD101F068F8EC
:106B8000FEE738B511F00805044602D001F060F8C0
:106B9000FEE7026F836F5068016821F00F0101600A
:106BA000107C11680E2282404A605A6822F480529A
:106BB0005A601A6822F480621A601A6842F40072FD
:106BC0001A6004F085FB294604F16000FFF7E8FE37
:106BD000BDE8384004F076BB10B590F86430044648
:106BE000062B3FD8DFE803F01E1E1E13041E2100F3
:106BF000052380F8643004F06BFB002320461A461E
:106C00001946FFF717FFBDE8104004F05BBBC368EF
:106C10009B695B684BBB036F03B19847002384F803
:106C2000643010BD01F014F8FEE748F280000F490F
:106C30000B6823F4F04323F0400383F01002024377
:106C40000A600B6823F4904323F0700383F48053AD
:106C500003430B6063681B6813B106212046984705
:106C60000623DCE700F0F4FFFEE710BD005C004007
:106C700038B590F864300446062B57D8DFE803F0A7
:106C8000360422363631390090F87B1090F87A209D
:106C9000C36E42EA01229A4214D9C268128AB3FB37
:106CA000F2F502FB15356DB904F012FB2B462A46AE
:106CB00029462046FFF7BEFE04F004FB022384F8B9
:106CC000643038BD032384F8643004F001FB0023F2
:106CD00020461A461946FFF7E9FEBDE8384004F0A1
:106CE000F1BA036F03B198470023E8E700F0B0FF63
:106CF000FEE748F280000F490B6823F4F04323F0CD
:106D0000400383F0100202430A600B6823F49043AF
:106D100023F0700383F4805303430B6063681B68A4
:106D200013B10621204698470623C8E700F090FFDC
:106D3000FEE700BF005C0040002370B5044680F809
:106D40006430C14B00F174021B6D03F1804303F505
:106D5000C04303EB01118B6803F1005303F540536B
:106D60005B0003F1100153F8040B8B4222F8020B75
:106D7000F9D163689B68002B38D194F8743013F014
:106D8000600514D194F8752003F07F0343EA0223D1
:106D9000B3F5407F00F0AF8077D8022B00F0E88099
:106DA0004AD8002B00F09180012B00F0DB8048F2E4
:106DB0008000A5490B6823F4F04323F0400383F0DF
:106DC000100202430A600B6823F4904323F070031F
:106DD00083F4805303430B6063681B6813B106217F
:106DE00020469847062384F8643070BD20469847B3
:106DF0000028C2D094F87B2094F87A3043EA02232A
:106E0000E26E934238BFE36694F97430E56E002B6E
:106E100080F20881002D00F0F980012384F86430AD
:106E200004F056FAE36EA26E00212046FFF702FE40
:106E3000BDE8704004F046BAB3F5807F4CD0B3F59E
:106E4000817FB4D194F87630002BB0D194F87820BB
:106E500012F00F0300F040819B0003F1804312F019
:106E6000800F03F5B8431A6800F09E8002F03002EC
:106E7000302A00F031811A6822F4F04222F04002F8
:106E800082F0200242F400429BE0B3F5C06F3CD098
:106E90000BD840F20232934200F09780B3F5A06F16
:106EA00085D1A566E566694B14E0B3F5106F42D055
:106EB00040F60242934255D0B3F5006F7FF477AFAE
:106EC00004F17F03A366012333E004F17C02A26690
:106ED0000222E26623678DE794F87630012B7FF477
:106EE00066AFB4F87C3023F00203A4F87C30A566CA
:106EF000E56625677EE794F87630012B7FF457AF7F
:106F0000B4F87C3043F00203EFE794F8792061682D
:106F100094F878304E6843EA022394F8771094F896
:106F200076202046B04700283FF441AF4368A3666F
:106F30000368E366DDE794F87F2094F876309A42A0
:106F400000F0CA802378042B40F0B98004F0C0F927
:106F5000EFF31183002B7FD100F07AFEFEE700F003
:106F600077FEFEE73A4BA3660223E3660023B1E710
:106F700094F87820344912F0800F02F00F02D2B258
:106F800051F8222009D012F030023FF410AF102A3D
:106F900000F0A6802F4AA266CBE712F440523FF4DD
:106FA00006AFB2F5805FF3E702F44052B2F5405FFE
:106FB00000F092801A6822F4F04222F0400242F47B
:106FC000204242F080021A6086E094F87630002B6E
:106FD0007FF4EDAE94F8782012F00F037CD09B0084
:106FE00003F1804303F5B84312F0800F1A6815BF10
:106FF00022F4F04222F4904222F0400222F0700289
:1070000014BF82F0100282F480523BE7032384F81D
:10701000643004F05DF92B462A4600212046FFF734
:1070200045FD05E73DB1042384F8643004F050F9D0
:10703000E36EA26EF1E7052384F8643004F048F9AA
:107040002B462A46F0E600BF005C0040953D000854
:1070500089C5000885C500082378042B7FF47FAF1D
:107060000021238904F12C0203F0010323816389A9
:1070700003F00103638104F1100343F8041B9A42F7
:10708000FBD14023012248F28000C4F884309300F1
:1070900003F1804303F5B843196801320143082A1C
:1070A00019601860F3D104F00DF90023032184F86E
:1070B0007F30636821701B680BB12046984794F8B5
:1070C00076304BB184F87F300423237063681B68EB
:1070D00013B10221204698470023A366E366F9E630
:1070E000004A58E787C5000810B50F4B1A6882425E
:1070F00018D35C681919884201BF416818460919FC
:107100005960446801198A4207D1084909688A42CE
:107110001FBF51681268091941609842026018BF88
:10712000186010BD1346E1E798090020840900208B
:1071300010B50446CB6800209B686FF07E0198472D
:107140002046236A00219847012010BD2DE9F04117
:107150001646CD6853682A78002B804614BF422714
:10716000412734686B68C2B11C44AB6802212046D9
:10717000984730B9AB6802216008984778B147F06A
:107180002007D8F820304046394698476B680120E0
:10719000F3602B783374BDE8F0819C4202D200206A
:1071A000BDE8F081E41AE0E708B50021036A9847DA
:1071B000012008BD10B51446036A4FF4407198478A
:1071C0002368012003F58C3303F5A073E3600023EB
:1071D000237410BD10B51446036A00219847236834
:1071E0000120E3600023237410BD036801209B6825
:1071F0000B607047036821EA02000A4042EA00423D
:107200001A610120704700000123032AF0B50068CD
:1072100003FA01F129D10161164B08269F5C002376
:107220001A461D461C4611F0800F4FEA04144FEA1F
:1072300002124FEA05154FEA03130CBF44F00F0486
:107240003A4311F4004F0CBF45F00F053B43013E9C
:107250004FEA4101E7D1416829400B43436003688D
:107260002340134303600120F0BD042A08BF41619D
:10727000D2E700BFE0C5000808460149FEF710B993
:10728000B8C60008012A70B50C46164617D1114D34
:107290002A782AB110492046BDE87040FEF700B9AF
:1072A0001C680E492046FCF797FC08B92E7070BD8B
:1072B0000A21204602F09AFF094B186070BD094967
:1072C0002046FEF7EDF808492046FEF7E9F80749A1
:1072D000E1E700BF88090020F2C5000805C60008E4
:1072E0003408002077C300080AC6000819C6000841
:1072F00070B504460E4603F057FB236800245A6815
:107300001B6815461C4303F043FBB2002046294688
:10731000FCF758FA024B00F00F00185C70BD00BF7C
:10732000D0C500082DE9F7430D4602680646154909
:107330002846FEF7B5F80024DFF85480DFF85490B3
:10734000114F21463046FFF7D3FF0138C0B2102855
:107350008CBF434659F820303A46009320212346FB
:10736000284602F06FFF336808499A682846E240D1
:1073700002F001020134FEF793F8102CE1D103B0C2
:10738000BDE8F08350C600086BC60008FCC90008C1
:1073900048C600088CC5000807B502A800F8011D02
:1073A000012103F085FA002003B05DF804FB10B55D
:1073B0001446084691B203F07BFA204610BD000047
:1073C0002DE9F04104464FF0010803F00BFB94F85F
:1073D00045501B4F6DB204F12406002D17DCFF232E
:1073E0004FF0010884F8453003F0F0FA03F0FAFAA0
:1073F00094F84450124F6DB204F11006002D12DCC7
:10740000FF2384F84430BDE8F04103F0DFBA636A3B
:10741000002BE4D0304600F015FD08B1C7F800801D
:10742000013D6DB2D9E72369002BE9D0304600F069
:1074300009FD08B1C7F80080013D6DB2DEE700BF6D
:10744000E81000202DE9F04F85B00191054600B904
:10745000FEE7046C002C38D12646A34FDFF8989243
:1074600003F0C0FAAB6B002B30D0013BAB632B6851
:1074700043B99E4B1A681AB119680A6D01320A6540
:107480001B686B602B69CBB105F1100000F0DAFCD2
:10749000A0B1954B964A19681160964A12682AB1B4
:1074A0001A6822F47F021A601A681A604FF080523C
:1074B000914B1A60BFF34F8FBFF36F8F03F086FAC3
:1074C0000124204605B0BDE8F08FFEE7019B1BB903
:1074D000002C00F00081FEE72EB9884B1B68029358
:1074E000874B1B68039303F071FA00F0A9FB03F0CC
:1074F00079FA95F84430FF2B04BF002385F8443017
:1075000095F84530FF2B04BF002385F8453003F084
:107510005DFA01A902A800F01DFB002840F0878059
:1075200003F060FAAE6B03F051FA002E79D12B68AC
:107530006E4E002B45D103F055FA6C68002C3ED0FE
:107540003268E36AD26A934263D24FF0140AA269A6
:10755000DFF8B4B1002AA8BF32680AFB03B3A8BFA2
:10756000D26AD846A4BFC2F10502A26162699A42FA
:1075700040F0B580211D0846009100F02EFC614BC3
:10758000009968B9E26A0AFB02FA5BF80A0038B9A6
:107590004FF0010E18680EFA02FE20EA0E00186085
:1075A00030681A68C06AE062012404FA00FE4EEAFC
:1075B00002021A60142303FB008000F036FC03F083
:1075C00005FA3168DDF804A0183105F1240000F057
:1075D00015FC0121504603F0ADFA2846FFF7F0FEF6
:1075E00000F0F6FC98B9424B3A681A60414B1B68B0
:1075F0002BB13B6823F47F033B603B683B604FF05B
:107600008053C9F80030BFF34F8FBFF36F8F01264F
:1076100026E73368E46CDB6A9C422CBF002401241B
:10762000CDE72846FFF7CCFE00F0D2FCEFE7284676
:10763000FFF7C6FE00F0CCFC03F0D4F9AE6B03F00C
:10764000C5F9002EE3D1002C3FF43BAF03F0CAF99B
:107650006B6A1BB12B6B1B68C3F105036C68002CB4
:1076600039D0216D01B9FEE7E26C934238BF134671
:10767000E26A9A422FD001292DD11C4909688C4217
:1076800000D1FEE71426A1691F4D002906FB025216
:10769000E362A4BFC3F10503A361636993421AD1F6
:1076A000271D384600F099FB164AE46A40B9664344
:1076B000AB592BB901211368A14023EA01031360E0
:1076C000012314201168A3400B4300FB04503946EA
:1076D000136000F0AAFB03F079F90024F1E63368A7
:1076E000DB6AE36201246AE720ED00E00C10002071
:1076F000981000209C10002004ED00E0B410002041
:10770000E4100020B01000201010002028B100224A
:1077100042600260C26000F07BBF704710B5044653
:10772000F0B1104A50F8043C1268134200D1FEE751
:1077300050F8081C01B1FEE723EA020340F8043CBC
:1077400000F07EFA084A54F8043C1168A4F10800DD
:107750000B441360FFF7C8FCBDE8104000F038BCD4
:1077600010BD00BF8C090020900900202DE9F843CE
:10777000394F044600F064FA3B6838480BBB38497F
:10778000384B4D07A3EB01030A4605D0073121F022
:10779000070113440A465B1A00211344324D083B8B
:1077A00023F0070369602A60596019603B60991AE9
:1077B00013602E4B516019602D4B19604FF0004340
:1077C0000360D0F8008018EA040F16D1002C3AD0DC
:1077D00004F1080358071CBF23F00703083363B103
:1077E000234A16689146B34207D81F4A156868684D
:1077F000834204D839688D4207D1002423E02968E8
:107800000029F7D02A460D46F1E72968146811606F
:10781000C21A102A04F1080407D9E818410700D059
:10782000FEE742606B60FFF75FFC00230F496A6868
:107830000868B61A864248EA0202C9F8006038BFF2
:107840000E606A602B6000F0C3FB630700D0FEE7A8
:107850002046BDE8F88300BF840900208C09002081
:1078600038160020005000209809002094090020BC
:10787000900900202DE9F04104460D464FF0140E0A
:1078800041690020C6B20EFB06F801EB080213693D
:10789000B3B1E769F740FB071DD42B7AA3B16B7A2C
:1078A000B34218D1237EFF2B17D126766E72616901
:1078B0002A4641440B6920461B6898470646C0B9D2
:1078C00000263046BDE8F0812F6853689F4202D3FE
:1078D00093689F42E6D90130D4E79E42E5D0142256
:1078E00002FB03110B695B68002BDED02046984732
:1078F000DBE70FCD0FC42B682360E2E7044B1A7956
:10790000824283BF0C221B6802FB00300148704793
:1079100078090020ACC6000810B5FFF7EFFF8368B8
:107920001B6913B1BDE81040184710BD10B50446DF
:10793000000AFFF7E3FF83680A461B68E1B2BDE86F
:107940001040184713B50446000AFFF7D7FF00237D
:1079500002A941F8043D8368E4B2DB6898470198C6
:10796000E04000F0010002B010BD10B50446000A6E
:10797000FFF7C4FFE4B201FA04F201218368A140D9
:107980009B68BDE81040184738B504464FF6FF75B0
:1079900034F8040BA8420AD014F8021CFFF7C6FF03
:1079A00014F8011C34F8040CFFF7DFFFF0E738BDD2
:1079B000094A137983420DD9916821FA00F3DB0754
:1079C00008D4012383400B43936013680C2202FB0D
:1079D00000307047002070477809002010B50C4631
:1079E000FFF7E6FF20B1034B046083601023436080
:1079F00010BD00BF30C600080FB44FF0010230B513
:107A0000114B87B0D3E84F5FC3E8412F0029F9D16C
:107A1000EBB2BFF35B8FABB90C490D4C01913F2129
:107A20000BAA039101A80A9904930593009202946A
:107A3000FDF73AFC0120049BE55407B0BDE8304057
:107A400004B070470020F8E7740E00201CC700083F
:107A5000340E00200FB473B5164D06AB53F8046B0B
:107A6000154C4FF0FF3128680193FFF7EBFC2369B9
:107A70000020E36102F0D8FE002002F0D5FE0023D2
:107A8000A36102F029FF0D4C0D4B0E491A682046E8
:107A9000FDF706FD019A31462046FDF705FC01F091
:107AA00015F9286800F0B4FD02B0BDE8704004B0DC
:107AB000704700BF780E00207410002044C70008F3
:107AC000E410002013C7000808B501680248FFF75A
:107AD000C1FF002008BD00BF94C6000808B50168BA
