:020000040800F2
:1020000000040020612100089128000891280008A0
:1020100091280008912800089128000891280008BC
:10202000912800089128000891280008C12800087C
:102030009128000891280008A1280008B12800086C
:10204000912800089128000891280008912800088C
:10205000912800089128000891280008912800087C
:10206000912800089128000891280008D154000800
:1020700041550008C155000841560008C1560008E6
:1020800041570008C157000891280008912800080E
:10209000F16800089128000891280008912800089C
:1020A000912800089128000891280008912800082C
:1020B000912800089128000891280008A15B0008D9
:1020C000815D0008912800089128000891280008E7
:1020D000912800089128000891280008A1660008AE
:1020E00091280008912800089128000891280008EC
:1020F00091280008912800089128000891280008DC
:1021000091280008912800089128000891280008CB
:1021100091280008912800089128000891280008BB
:1021200091280008912800089128000891280008AB
:10213000912800089128000891280008912800089B
:10214000912800089128000891280008912800088B
:10215000912800089128000891280008912800087B
:1021600072B6264880F3098825484EF60851CEF20B
:1021700000010860022080F31488BFF36F8F00F025
:1021800037FB04F05DFF4FF055301E491E4A914267
:102190003CBF41F8040BFAE71C49184A91423CBF86
:1021A00041F8040BFAE71A491A4A1B4B9A423EBF00
:1021B00051F8040B42F8040BF8E700201749184ABD
:1021C00091423CBF41F8040BFAE700F029FB00F014
:1021D00017FB144C144DAC4203DA54F8041B884727
:1021E000F9E707F095FC114C114DAC4203DA54F8B5
:1021F000041B8847F9E700F00BBB00000008002033
:10220000002000080000002000040020000400203E
:102210003CFA0008000800202409002028090020BA
:10222000E4150020602100086021000860210008FA
:102230006021000853B94AB9002908BF00281CBF13
:102240004FF0FF314FF0FF3000F07AB9ADF1080CDC
:102250006DE904CE00F006F8DDF804E0DDE90223C4
:1022600004B070472DE9F0478C460E460446089DA1
:10227000002B50D18A4217466CD9B2FA82FEBEF1C9
:10228000000F0BD0CEF1200C01FA0EF620FA0CFC58
:1022900002FA0EF74CEA060C00FA0EF43A0CBCFBFC
:1022A000F2F9BBB202FB19CC09FB03FA4FEA14485E
:1022B00048EA0C46B2450AD9F61909F1FF3180F017
:1022C0002581B24540F22281A9F102093E44A6EBE4
:1022D0000A06B6FBF2F002FB106600FB03F3A4B2A1
:1022E00044EA0644A34209D9E41900F1FF3280F020
:1022F0000B81A34240F2088102383C440021E41AD9
:1023000040EA0940002D62D0002324FA0EF42C602C
:102310006B60BDE8F0878B4207D9002D55D00021B6
:1023200085E841000846BDE8F087B3FA83F100294B
:1023300040F08F80B34202D3824200F2FC80841AC4
:1023400066EB03060120B446002D40D085E810104E
:10235000BDE8F08712B90127B7FBF2F7B7FA87FE9D
:10236000BEF1000F35D10121F61B4FEA174C1FFAC1
:1023700087F8B6FBFCF20CFB126608FB02F0230C9C
:1023800043EA0646B04207D9F61902F1FF3302D2FA
:10239000B04200F2D2801A46361AB6FBFCF00CFBB3
:1023A000106608FB00F8A3B243EA0644A04507D92B
:1023B000E41900F1FF3302D2A04500F2B9801846BB
:1023C000A4EB080440EA02409CE729462846BDE801
:1023D000F08707FA0EF7CEF1200326FA03F24FEA50
:1023E000174CB2FBFCF11FFA87F80CFB112206FA1E
:1023F0000EF620FA03F301FB08F933431E0C46EAFC
:102400000246B14500FA0EF409D9F61901F1FF327E
:1024100080F08C80B14540F2898002393E44A6EBC1
:102420000906B6FBFCF00CFB106200FB08F99EB23B
:1024300046EA0246B14507D9F61900F1FF3371D2D9
:10244000B1456FD902383E44A6EB090640EA014186
:102450008FE7C1F1200722FA07F88B4048EA03030F
:1024600026FA07F44FEA134EB4FBFEF91FFA83FC79
:102470000EFB19448E4020FA07F809FB0CFA48EAD3
:1024800006084FEA184646EA0444A24502FA01F259
:1024900000FA01F608D9E41809F1FF3044D2A24548
:1024A00042D9A9F102091C44A4EB0A04B4FBFEF0D2
:1024B0000EFB104400FB0CFC1FFA88F848EA0444A9
:1024C000A44507D9E41800F1FF3E29D2A44527D935
:1024D00002381C4440EA0940A0FB0289A4EB0C0C22
:1024E000CC45C246CE4615D312D055B1B6EB0A0341
:1024F0006CEB0E0606FA07F7CB401F43CE402F6069
:102500006E600021BDE8F0871046F7E68946DEE6FA
:102510004645EAD2B8EB020A69EB030E0138E4E75C
:102520007046D7E718468FE78146BDE7114676E744
:1025300002383C4444E7084606E7023A3E442BE7AB
:10254000704700BF844641EA000313F0030349D1FA
:10255000403A23D30B6803604B6843608B68836009
:10256000CB68C3600B6903614B6943618B6983610D
:10257000CB69C3610B6A03624B6A43628B6A8362F5
:10258000CB6AC3620B6B03634B6B43638B6B8363DD
:10259000CB6BC36340304031403ADBD230320BD397
:1025A0000B6803604B6843608B688360CB68C360D3
:1025B00010301031103AF3D20C3205D351F8043BED
:1025C00040F8043B043AF9D2043208D0D2071CBFC9
:1025D00011F8013B00F8013B01D30B8803806046F2
:1025E000704700BF082A13D38B07B1D010F0030344
:1025F000AED0C3F10403D21ADB071CBF11F8013BB4
:1026000000F8013BA4D331F8023B20F8023B9FE7DE
:10261000043AD9D3013A11F8013B00F8013BF9D251
:102620000B7803704B7843708B78837060467047EB
:1026300080EA010C1CF0030F37D110F0030C20F0DE
:10264000030021F0030150F8042B08BF51F8043BAC
:102650000ED08CF0030C6FF07F434FEACC0C23FAC2
:102660000CFC51F8043B42EA0C0243EA0C0300BFA5
:10267000A2F1013C9A4201BF2CEA020C1CF0803FFF
:1026800050F8042B51F8043BF2D04FEA02604FEAB5
:102690001222012828BFB0EB036F08BF1B0AF4D039
:1026A00003F0FF03000EC01A704710F0030F0AD0AA
:1026B00010F8012B11F8013B012A28BF9A42F4D0EF
:1026C000A2EB030070474DF8045D50F8042B01F0B5
:1026D000030521F0030151F8043B022D26D04DD80B
:1026E00022F07F45B5EB132FA2F1013C2CEA020C3E
:1026F0000DD11CF0803C08BF51F8043B0AD185EA9B
:102700000205B5EB036F0CD150F8042BE8E74FEA54
:1027100013235BE03CF07F4C54D10B784FEA1265F9
:1027200054E04FEA126503F0FF034FE04FEA024521
:10273000A2F1013C4FEA15452CEA020CB5EB134F10
:1027400018D11CF0803C08BF51F8043B07D185EA42
:102750000205B5EB034F09D150F8042BE6E75FEA19
:102760000C4C2FD10B884FEA12452FE04FEA034360
:102770004FEA12454FEA134328E000BF02F0FF057D
:10278000B5EB136FA2F1013C2CEA020C0DD11CF049
:10279000803C08BF51F8043B0AD185EA0205B5EB3D
:1027A000032F0AD150F8042BE8E74FEA13630DE03A
:1027B00012F0FF0F06D051F8043B4FEA122523F028
:1027C0007F4303E04FF0000020BC704705F0FF029C
:1027D00003F0FF00012828BF904204BF2D0A1B0A06
:1027E000F4D0A2EB000020BC704700BF0000000046
:1027F000704700BF00000000000000000000000063
:10280000704700BF00000000000000000000000052
:10281000FEE700BF00000000000000000000000014
:10282000F0B50026124F134D134C144B144907F109
:10283000700E9C4211D91A46043951F8040F42F81F
:10284000040B9442F9D8DA43144424F0030404340A
:1028500023449D4203D943F8046B9D42FBD877453E
:1028600004D007F110013AC91037E2E7F0BD00BF0C
:10287000ECDB0008E4150020E4150020E41500203E
:1028800060FB0008000000000000000000000000E5
:1028900008F04EBE00000000000000000000000034
:1028A0000AF04EBD00000000000000000000000023
:1028B0000AF0FABD00000000000000000000000067
:1028C0000AF026BE0000000000000000000000002A
:1028D00008B502F095FD094803F07AF801F020F9F7
:1028E00001F01EFB01F0A4FE02F05AF801F088FC92
:1028F00002F0EEFCBDE8084004F0AABB70E400085A
:1029000008B5EFF3118343B90AF042FA164A40F2D0
:102910001711164805F004FAFEE7EFF30583C3B973
:102920000AF06CFEF0B1124B124A18681249126894
:1029300008602AB11A6822F47F021A601A681A60C5
:102940004FF080520D4B1A60BFF34F8FBFF36F8F64
:1029500008BD0AF01DFA0A4A40F21711034805F0B3
:10296000DFF9FEE708BD00BF38DD000850DD0008D4
:1029700020ED00E0A4150020A015002004ED00E0EB
:1029800070DD0008000000000000000000000000F2
:10299000F8B5069F079EA8B1A2B1012B12D9002459
:1029A000043307FB03258361089B456101710261C4
:1029B000C260C7610262C6620363046084604462ED
:1029C0008462F8BD0AF0E4F9024A4F21024805F09A
:1029D000A7F9FEE76CDC0008E0DC0008000000005E
:1029E00008B5EFF3118262B1BDE808400022016A28
:1029F00082600161C160426282626FF0010109F090
:102A0000E1B90AF0C5F9034A6D21034805F088F9D8
:102A1000FEE700BF38DD0008E0DC00080000000031
:102A200008B5EFF311832BB1C3680269934209D053
:102A3000181D08BD0AF0ACF9054A8321054805F0C8
:102A40006FF9FEE78268002AF2D0002008BD00BFBF
:102A500038DD0008E0DC0008000000000000000095
:102A600010B5EFF311833BB90AF092F9194A962198
:102A7000194805F055F9FEE719B18369043B9942FD
:102A800007D90AF085F9154A9821134805F048F945
:102A9000FEE7C3680269934210D0196084698268B6
:102AA0004169234401328B428260C36001D3036ACF
:102AB000C3600021BDE8104009F058B98268002ABF
:102AC000EBD00AF065F9064A9921034805F028F988
:102AD000FEE700BF38DD0008E0DC00087CDC000811
:102AE00004DD0008000000000000000000000000FD
:102AF00038B5EFF311830BB304460D46EFF30583AE
:102B00007BB10AF045F9174AE121174805F008F9A9
:102B1000FEE72379DBB92946204609F087F800282B
:102B200014DBA368002BF4D0A3689BB123690020B9
:102B30001A6804331A44A262636238BD0AF028F9A5
:102B40000A4AE121084805F0EBF8FEE738BD6FF0CE
:102B5000010038BD0AF01CF9054AED21024805F0D4
:102B6000DFF8FEE770DD0008E0DC000838DD000873
:102B7000D4DC00080000000000000000000000009D
:102B800010B5EFF311830BB3EFF3058343B10AF0F4
:102B9000FFF8184A40F20F11174805F0C1F8FEE798
:102BA0008368E3B182680369013A82600022846924
:102BB000416923448B42036128BF036A426228BFF4
:102BC0000361C36AA3B1BDE8104018470AF0E0F8FA
:102BD0000A4A40F20F11084805F0A2F8FEE70AF091
:102BE000D7F8074A4FF48871034805F099F8FEE7D3
:102BF00010BD00BF70DD0008E0DC000838DD000813
:102C000018DD0008000000000000000000000000C7
:102C100038B504460D460AF005FC636A002B3CD02B
:102C200013F8015BA26A6362934202D32046FFF766
:102C3000A7FFEFF3118343B90AF0AAF8274A40F23D
:102C40001711274805F06CF8FEE7EFF3058343B151
:102C50000AF09EF8234A40F21711214805F060F867
:102C6000FEE70AF0CBFCA0B11F4B204A18682049B0
:102C7000126808602AB11A6822F47F021A601A6882
:102C80001A604FF080521B4B1A60BFF34F8FBFF397
:102C90006F8F0AF0B3FB284638BD29462046FFF760
:102CA00027FF054608B9636ABAE7EFF3118363B1FA
:102CB000EFF30583002BD4D00AF06AF8094A40F2FA
:102CC0001711074805F02CF8FEE70AF061F8034AEF
:102CD00040F21711024805F023F8FEE738DD00083E
:102CE00050DD000870DD000820ED00E0A415002094
:102CF000A015002004ED00E000000000000000002E
:102D00002DE9F84F42B90AF043F8534A40F26B11EB
:102D1000524805F005F8FEE704460E4698469146EF
:102D20000AF080FB09F026FD616A00254C4F00EB9C
:102D3000080A002974D0A36AA9EB050B5B1A9B450E
:102D400028BF9B46BBF1400F2ED932460B4640317F
:102D5000D3F800B0D3F804C0D3F808E0D868103333
:102D60008B42C2F800B0C2F804C0C2F808E0D060DC
:102D700002F11002ECD1636AA26A40339A4206F172
:102D8000400605F1400563621AD82046FFF7F8FEB9
:102D9000EFF31183C3B909F0FBFF324A40F2171178
:102DA000314804F0BDFFFEE75A463046FFF7CAFB44
:102DB000636AA26A5B449A425D445E446362E4D9FA
:102DC000EFF31183002BE6D0EFF3058343B109F055
:102DD000DFFF264A40F21711234804F0A1FFFEE767
:102DE0000AF00CFC98B1224B3A6822491B680A6031
:102DF0002BB13B6823F47F033B603B683B604FF0A3
:102E000080531D4A1360BFF34F8FBFF36F8F0AF0DB
:102E1000F5FA4D4513D20AF005FB616A00298AD103
:102E200008F1FF3303330DD941462046FFF760FE1A
:102E300008B9616A7FE7FFF763FD0AF0DFFA284609
:102E4000BDE8F88F09F096FCAAEB00018845F2D3A3
:102E50002046FFF74DFEEBE790DC0008E0DC0008C1
:102E600020ED00E038DD000850DD000870DD0008CE
:102E7000A4150020A015002004ED00E000000000D3
:102E8000F8B5069F079EA8B1A2B1012B12D9002464
:102E9000043303FB07258361089B4561017187604B
:102EA0000261C260C7610262C66203630460446279
:102EB0008462F8BD09F06CFF034A4FF4E3710348E4
:102EC00004F02EFFFEE700BFA0DC0008E0DC0008F5
:102ED00010B5EFF311826AB10021C469026A416240
:102EE000816284600261C2606FF00101BDE8104040
:102EF00008F068BF09F04CFF034A4FF4F271034831
:102F000004F00EFFFEE700BF38DD0008E0DC00083B
:102F100008B5EFF3118343B10369C2689A420DD03B
:102F2000184650F8043B0B6008BD09F031FF064A13
:102F30004FF4FE71054804F0F3FEFEE78268002AB4
:102F4000EED0002008BD00BF38DD0008E0DC00083E
:102F500010B5EFF311839BB10369C2689A4218D090
:102F6000846982684169234401328B428260036133
:102F700001D3036A03610021BDE8104008F0F6BEEA
:102F800009F006FF094A40F21121094804F0C8FE81
:102F9000FEE78268002AE3D009F0FAFE054A40F213
:102FA0001221034804F0BCFEFEE700BF38DD000834
:102FB000E0DC000818DD0008000000000000000050
:102FC00038B5EFF3118313B304460D46EFF30583D1
:102FD00083B109F0DDFE194A40F25721184804F088
:102FE0009FFEFEE72379E3B92946204608F01EFE3E
:102FF000002815DBA368002BF4D0A368A3B1E36815
:10300000A1691A1D0B446262A362002038BD09F059
:10301000BFFE0C4A40F25721094804F081FEFEE74A
:1030200038BD6FF0010038BD09F0B2FE064A40F22B
:103030006321034804F074FEFEE700BF70DD000862
:10304000E0DC000838DD00082CDD0008000000008E
:1030500010B5EFF31183CBB1EFF3058343B109F062
:1030600097FE1F4A40F287211E4804F059FEFEE7F2
:1030700019B18369043B994211D909F089FE1A4AB2
:103080004FF42271174804F04BFEFEE709F080FE72
:10309000164A40F28721134804F042FEFEE7836897
:1030A000A3B1C3684469196082688169013A82608A
:1030B00000220B44A342C36028BF036A426228BFB8
:1030C000C360C36A5BB1BDE81040184709F060FEF9
:1030D000074A40F28921034804F022FEFEE710BDB2
:1030E00070DD0008E0DC0008B0DC000838DD000816
:1030F00004DD0008000000000000000000000000E7
:1031000070B504460E4615460AF08CF9636A002B2A
:1031100040D01E70636AA26A01339342636204D393
:10312000A16920460439FFF793FFEFF3118343B9F8
:1031300009F02EFE354A40F21711354804F0F0FD33
:10314000FEE7EFF3058343B109F022FE314A40F276
:1031500017112F4804F0E4FDFEE70AF04FFAA0B182
:103160002D4B2E4A18682E49126808602AB11A6839
:1031700022F47F021A601A681A604FF08052294BBD
:103180001A60BFF34F8FBFF36F8F00250AF036F937
:10319000284670BD29462046FFF712FF054608B9AC
:1031A000636AB6E7EFF311833BB3EFF30583DBB953
:1031B0000AF024FAA0B1184B184A18681849126886
:1031C00008602AB11A6822F47F021A601A681A602D
:1031D0004FF08052134B1A60BFF34F8FBFF36F8FC6
:1031E0000AF00CF9284670BD09F0D2FD094A40F2F8
:1031F0001711074804F094FDFEE709F0C9FD034AE2
:1032000040F21711024804F08BFDFEE738DD00089C
:1032100050DD000870DD000820ED00E0A41500205E
:10322000A015002004ED00E00000000000000000F8
:103230002DE9F04F83B042B909F0AAFD554A40F29A
:10324000E921554804F06CFDFEE704461F468B4615
:1032500090460AF0E7F809F08DFA00EB0709606A7A
:1032600000254E4EDFF84CA1002876D0A36AA8EBCB
:1032700005021B1A934228BF1346402B2FD9034641
:103280000BF14002DBF800C0DBF804E0DBF80800DB
:10329000DBF80C100BF1100B9345C3F800C0C3F81A
:1032A00004E09860D96003F11003EBD1626AA36A6D
:1032B0004032934205F1400562621ED8A169204662
:1032C0000439FFF7C5FEEFF31183D3B909F060FDB0
:1032D000334A40F21711334804F022FDFEE71A4644
:1032E00059460193FFF72EF9019B626A1D441A4467
:1032F0009B44A36A62629342E0D9EFF31183002BEF
:10330000E4D0EFF3058343B109F042FD264A40F2D1
:103310001711244804F004FDFEE70AF06FF998B194
:10332000224B32681B68CAF800202BB1336823F4A3
:103330007F033360336833604FF080531C4A13605F
:10334000BFF34F8FBFF36F8F0AF058F8454512D285
:103350000AF068F8606A002888D17B1E03330ED912
:1033600039462046FFF72CFE08B9606A7EE7FFF772
:10337000C7FA0AF043F8284603B0BDE8F08F09F019
:10338000F9F9A9EB00018F42F1D32046FFF718FEAF
:10339000EAE700BFC4DC0008E0DC000820ED00E044
:1033A00038DD000850DD000870DD0008A41500209D
:1033B00004ED00E0A0150020000000000000000067
:1033C00010B5EFF3118333B1C26803699A420BD091
:1033D0000023184610BD09F0DBFC114A40F24331CE
:1033E000104804F09DFCFEE78368002BF1D0436A8F
:1033F000002BEED0043B9B1AEBD0136084698368EA
:1034000041692244013B8A42836028BF036AC2604B
:1034100028BFC360002201234262184610BD00BFCE
:1034200038DD0008E0DC00080000000000000000BB
:1034300008B5EFF3118343B909F0AAFC164A40F22C
:103440001711164804F06CFCFEE7EFF30583C3B9CF
:103450000AF0D4F8F0B1124B124A186812491268F7
:1034600008602AB11A6822F47F021A601A681A608A
:103470004FF080520D4B1A60BFF34F8FBFF36F8F29
:1034800008BD09F085FC0A4A40F21711034804F010
:1034900047FCFEE708BD00BF38DD000850DD00082E
:1034A00020ED00E0A4150020A015002004ED00E0B0
:1034B00070DD000808B509F06BFC034A40F25911B1
:1034C000024804F02DFCFEE780DD000850DD000816
:1034D00010B558B100248361029B0A44C260816028
:1034E00041610161C3610460446010BDFFF7E2FF08
:1034F00010B5EFF31183A3B103694269934218D069
:1035000042685C1C01324260046119700269C36840
:103510009A4201D383680361002108F027FC002050
:1035200010BD09F035FC064A6821064804F0F8FB96
:10353000FEE74268002AE3D04FF0FF3010BD00BF25
:1035400038DD0008BCDD00080000000000000000BD
:1035500070B504460E4609F065FF05E03146204689
:1035600008F064FB051E22DB6368002BF6D061695E
:103570006368E0684A1C013B8242636028BFA3681D
:1035800062610D7828BF6361A3690BB1204698473B
:10359000EFF311831BB3EFF305834BB309F0F8FB93
:1035A000214A40F21711214804F0BAFBFEE7EFF37D
:1035B00011835BB1EFF30583D3B109F0E9FB1A4A3C
:1035C00040F21711194804F0ABFBFEE709F0E0FBED
:1035D000174A40F21711154804F0A2FBFEE709F064
:1035E000D7FB134A40F21711104804F099FBFEE78D
:1035F0000AF004F8A0B10F4B0F4A18680F4912687F
:1036000008602AB11A6822F47F021A601A681A60E8
:103610004FF080520A4B1A60BFF34F8FBFF36F8F8A
:1036200009F0ECFE284670BD70DD000850DD000892
:1036300038DD000820ED00E0A4150020A0150020D2
:1036400004ED00E0000000000000000000000000A9
:103650002DE9F84F3AB909F09BFB434ACA21434888
:1036600004F05EFBFEE71E46044689461746D0F886
:1036700018A009F0D7FE09F07DF84FF000083C4D86
:1036800000EB060B6368002B3FD062696368511C36
:10369000013B61616360137889F80030E368626917
:1036A0009A4224BFA3686361BAF1000F01D020469B
:1036B000D047EFF31183002B4CD0EFF30583002BA1
:1036C0003FD109F09BFF98B12A4B2A682A491B6811
:1036D0000A602BB12B6823F47F032B602B682B60CF
:1036E0004FF08053254A1360BFF34F8FBFF36F8FA6
:1036F00009F084FE013F08F1010813D009F092FEA1
:10370000636809F10109002BBFD1731E03330CD983
:103710003146204608F08AFA0028B3D0FFF788FE29
:1037200009F06CFE4046BDE8F88F09F023F8ABEBDA
:1037300000018E42F2D3204608F078FA0028A1D08A
:10374000ECE709F025FB0E4A40F217110D4804F092
:10375000E7FAFEE709F01CFB0B4A40F21711094893
:1037600004F0DEFAFEE700BF9CDD0008BCDD0008C7
:1037700020ED00E0A4150020A015002004ED00E0DD
:1037800070DD000850DD000838DD00080000000092
:1037900038B558B100248361049B8D184260C56020
:1037A000816041610161C361046038BDFFF782FE41
:1037B000F8B504460F46164609F034FE05E03146DA
:1037C000204608F033FA051E38DB6368002BF6D07C
:1037D00022696368511C013B216163601770E368D3
:1037E00022699A4224BFA3682361A3690BB12046D2
:1037F0009847EFF31183002B4CD0EFF30583002B98
:1038000051D109F0FBFEA0B1304B314A1868314963
:10381000126808602AB11A6822F47F021A601A68D6
:103820001A604FF080522C4B1A60BFF34F8FBFF3DA
:103830006F8F002509F0E2FD2846F8BDEFF31183F4
:10384000FBB1EFF30583002B36D109F0D7FEA0B111
:103850001E4B1F4A18681F49126808602AB11A686F
:1038600022F47F021A601A681A604FF080521A4BD5
:103870001A60BFF34F8FBFF36F8F09F0BFFD28466B
:10388000F8BD09F085FA154A40F21711144804F002
:1038900047FAFEE709F07CFA104A40F21711104887
:1038A00004F03EFAFEE709F073FA0E4A40F21711EF
:1038B0000B4804F035FAFEE709F06AFA094A40F2CB
:1038C0001711074804F02CFAFEE700BF20ED00E0D6
:1038D000A4150020A015002004ED00E038DD00084C
:1038E00050DD000870DD000800000000000000004E
:1038F00038B5EFF311839BB1436902699A4218D03E
:103900004268C568591C013242604161A9421C7875
:1039100001D383684361002108F028FA204638BDAE
:1039200009F036FA064A4FF4BE71064804F0F8F979
:10393000FEE74268002AE3D04FF0FF3038BD00BFF9
:1039400038DD0008BCDD00080000000000000000B9
:103950002DE9F84F42B909F01BFA434A40F2AB1186
:10396000424804F0DDF9FEE71E4604468946174644
:10397000D0F818A009F056FD08F0FCFE4FF0000842
:103980003B4D00EB060B6368002B3FD02269636858
:10399000511C013B2161636099F800301370E368AA
:1039A00022699A4224BFA3682361BAF1000F01D0B3
:1039B0002046D047EFF31183002B4CD0EFF3058363
:1039C000002B3FD109F01AFE98B12A4B2A682A49E8
:1039D0001B680A602BB12B6823F47F032B602B68D4
:1039E0002B604FF08053254A1360BFF34F8FBFF316
:1039F0006F8F09F003FD013F08F1010813D009F0B2
:103A000011FD636809F10109002BBFD1731E033357
:103A10000CD93146204608F009F90028B3D0FFF749
:103A200007FD09F0EBFC4046BDE8F88F08F0A2FE68
:103A3000ABEB00018E42F2D3204608F0F7F80028E5
:103A4000A1D0ECE709F0A4F90D4A40F217110D4896
:103A500004F066F9FEE709F09BF90B4A40F21711F2
:103A6000084804F05DF9FEE7ACDD0008BCDD0008A5
:103A700020ED00E0A4150020A015002004ED00E0DA
:103A800070DD000850DD000838DD0008000000008F
:103A900008B5EFF3118343B909F07AF9164A40F2F9
:103AA0001711164804F03CF9FEE7EFF30583C3B99C
:103AB00009F0A4FDF0B1124B124A186812491268BD
:103AC00008602AB11A6822F47F021A601A681A6024
:103AD0004FF080520D4B1A60BFF34F8FBFF36F8FC3
:103AE00008BD09F055F90A4A40F21711034804F0DD
:103AF00017F9FEE708BD00BF38DD000850DD0008FB
:103B000020ED00E0A4150020A015002004ED00E049
:103B100070DD000800000000000000000000000050
:103B200002F0D6B900000000000000000000000014
:103B300010B50023044601206360207004F11001D9
:103B400008F03EFCE06010BD000000000000000036
:103B500038B5002847D00D46002944D003780446E4
:103B60005A1E012A09D9052B07D009F011F9254A57
:103B70006121254804F0D4F8FEE709F053FC6560A4
:103B8000204602F0BDF902232370EFF3118343B9FD
:103B900009F0FEF81D4A40F217111D4804F0C0F864
:103BA000FEE7EFF3058343B109F0F2F8194A40F25A
:103BB0001711174804F0B4F8FEE709F01FFD70B1C3
:103BC000154B164A18681649126808609AB94FF0E2
:103BD0008052144B1A60BFF34F8FBFF36F8FBDE855
:103BE000384009F00BBC09F0D3F80F4A5F210648B2
:103BF00004F096F8FEE71A6822F47F021A601A6849
:103C00001A60E4E75CDE00083CDE000838DD0008EE
:103C100050DD000870DD000820ED00E0A415002054
:103C2000A015002004ED00E0E0DD00080000000029
:103C300010B5002845D0044609F0F4FB23785A1E3D
:103C4000012A09D9052B07D009F0A2F8244A7821C6
:103C5000244804F065F8FEE7204602F079FA0022D5
:103C6000012362602370EFF3118343B909F090F8E8
:103C70001D4A40F217111D4804F052F8FEE7EFF319
:103C8000058343B109F084F8194A40F21711174827
:103C900004F046F8FEE709F0B1FC70B1154B164A86
:103CA00018681649126808609AB94FF08052144B90
:103CB0001A60BFF34F8FBFF36F8FBDE8104009F05C
:103CC0009DBB09F065F80F4A7321064804F028F8F7
:103CD000FEE71A6822F47F021A601A681A60E4E7A5
:103CE0005CDE00083CDE000838DD000850DD00081E
:103CF00070DD000820ED00E0A4150020A0150020D4
:103D000004ED00E0ECDD0008000000000000000011
:103D10002DE9F04F85B00EAD95E8A001B0B1894610
:103D2000A1B19B4693B1924682B1044607B16DB1F1
:103D3000B8F1000F0AD02678022E0FD009F028F82B
:103D4000164AB821164803F0EBFFFEE709F020F809
:103D5000144AB621124803F0E3FFFEE709F062FBC4
:103D60004FF0000E0320C4F808E052464946207088
:103D70005B468DE8A001204602F02AFA431C08BFEA
:103D8000052305460CBF23702670FFF781FE09F05E
:103D900035FB284605B0BDE8F08F00BF30DE0008D7
:103DA0003CDE0008F4DD0008000000000000000018
:103DB00030B10023C06819464FF0FF3208F074B8E4
:103DC00010B508F0E5FF034A40F20711024803F07E
:103DD000A7FFFEE710DE00083CDE00080000000040
:103DE00028B10023C0681A46194608F091B910B5E9
:103DF00008F0CEFF034A40F21711034803F090FF8A
:103E0000FEE700BF20DE00083CDE000800000000E6
:103E10001830FFF71DBC00BF0000000000000000CC
:103E200018304FF0FF33FFF713BC00BF0000000055
:103E30003830FFF78DBD00BF00000000000000001B
:103E400038304FF0FF33FFF783BD00BF00000000A4
:103E50001830FFF77DBB00BF00000000000000002D
:103E600018304FF0FF31FFF773BB00BF00000000B8
:103E70003830FFF79DBC00BF0000000000000000CC
:103E800038304FF0FF32FFF793BC00BF0000000056
:103E900008B5EFF3118343B908F07AFF164A40F2F0
:103EA0001711164803F03CFFFEE7EFF30583C3B993
:103EB00009F0A4FBF0B1124B124A186812491268BB
:103EC00008602AB11A6822F47F021A601A681A6020
:103ED0004FF080520D4B1A60BFF34F8FBFF36F8FBF
:103EE00008BD08F055FF0A4A40F21711034803F0D5
:103EF00017FFFEE708BD00BF38DD000850DD0008F1
:103F000020ED00E0A4150020A015002004ED00E045
:103F100070DD00080000000000000000000000004C
:103F200002F086BC0000000000000000000000005D
:103F300070B504460126002015460D4A82B0009453
:103F40000B462260A0606060E06004F1580104F15B
:103F5000180026751022FFF7BBFA00942B4604F1D7
:103F6000680104F138001022FFF712FC02B070BDA6
:103F7000A8DE0008000000000000000000000000B3
:103F800038B5D8B104460D4609F04CFA237D013B03
:103F9000012B07D908F0FCFE0C4AA4210C4803F0C1
:103FA000BFFEFEE72946204602F052FC022323759D
:103FB000FFF76EFFBDE8384009F020BA08F0E8FED0
:103FC000044AA021024803F0ABFEFEE75CDE0008D5
:103FD00084DE00086CDE0008000000000000000025
:103FE00038B5EFF3118383B10446B0B1E3690D46F0
:103FF0001BB90421601807F077FE294604F1180068
:10400000FFF776FA002810DB38BD08F0C1FE0A4A37
:10401000D7210A4803F084FEFEE708F0B9FE084AFB
:10402000D821064803F07CFEFEE7201D4FF4806196
:10403000BDE8384007F058BE38DD000884DE0008CF
:1040400074DE000800000000000000000000000016
:1040500010B5046B82B0D4F8902413681978042941
:1040600001D002B010BD217D0229FAD101211079C1
:104070001A8901FA00F31342F3D101A904F14C00AB
:10408000FEF746FF0028ECD0D4F8903402461979A8
:104090001868019B00F0ECFDE3E700BF00000000A2
:1040A0001830FEF72DBE00BF000000000000000029
:1040B00018304FF0FF33FEF723BE00BF00000000B2
:1040C0002DE9F0410446D0F890040E468568174665
:1040D000984615B100680121A84743463A46314643
:1040E00004F14C00BDE8F041FFF7A2B80000000069
:1040F00070B50446D0F890040D468368164613B197
:104100000068012198473246294604F14C004FF0DF
:10411000FF33BDE87040FFF78BB800BF0000000020
:104120001830FEF775BD00BF000000000000000061
:1041300018304FF0FF31FEF76BBD00BF00000000EC
:1041400070B50446D0F890040D468368164613B146
:104150000068012198473246294604F14C00BDE829
:104160007040FEF7CDBF00BF00000000000000005F
:10417000D0F8902438B5936804460D4613B1106802
:1041800001219847294604F14C004FF0FF32BDE869
:104190003840FEF7B5BF00BF00000000000000007F
:1041A000D0F8901438B50A681378042B01D0012098
:1041B00038BD037D022BFAD10123097954898B4044
:1041C0001C40F4D105461830FEF72AFC0028EED03A
:1041D000D5F890340246597918684FF4807300F08E
:1041E00007FD204638BD00BF0000000000000000B1
:1041F000006BFFF7D5BF00BF00000000000000000B
:10420000704700BF00000000000000000000000038
:10421000F0B50023012502260446114A114F85B04E
:1042200002902946026083604360C360057500F117
:1042300080028DE8C00018304FF48073FEF7A8FBB1
:10424000094B029401930096294604F5227204F169
:104250004C004FF48073FEF713FE05B0F0BD00BFB5
:104260000CDF0008F1410008514000080000000088
:1042700070B50E6800284ED004460D4609F0D2F8FD
:10428000237D013B012B07D908F082FD294AE42157
:10429000294803F045FDFEE72B7906EB83039C627A
:1042A0006B79113346F82340AB7913B106EB8306E3
:1042B000B4620223C4F890542375EFF3118343B919
:1042C00008F066FD1D4A40F217111D4803F028FD55
:1042D000FEE7EFF3058343B108F05AFD194A40F2B7
:1042E0001711174803F01CFDFEE709F087F970B1BC
:1042F000154B164A18681649126808609AB94FF0AB
:104300008052144B1A60BFF34F8FBFF36F8FBDE81D
:10431000704009F073B808F03BFD0F4AE0210648F1
:1043200003F0FEFCFEE71A6822F47F021A601A68A6
:104330001A60E4E75CDE0008E4DE000838DD00080F
:1043400050DD000870DD000820ED00E0A41500201D
:10435000A015002004ED00E0C8DE00080000000009
:1043600038B5044601250430022107F0BDFC04F1F4
:10437000180025776FF0010107F024FD84F85050F4
:1043800004F14C006FF00101BDE8384007F01ABDA0
:1043900010B501210446043007F0A6FC0023237762
:1043A00084F8503010BD00BF000000000000000085
:1043B00038B5044600251830FEF712FB04F14C0016
:1043C0002577FEF785FD201D84F85050012107F068
:1043D0008BFC2046BDE83840FFF7E2BE000000003D
:1043E00090F87430024603F06003202B01D00020C7
:1043F000704790F87530212B03D0222B09D0202B49
:10440000F5D107200021064BD06611679366012085
:104410007047002301209366D3661367704700BF7F
:104420000008002000000000000000000000000064
:10443000D0F8902413681978042900D07047017DC2
:104440000229FBD1012130B514791A8901FA04F34C
:10445000134283B001D003B030BD00F14C050446D7
:104460002846FEF7ADFF014638B9D4F8902493688A
:10447000002BF0D010689847EDE7284601A9FEF719
:1044800047FD024638B1D4F8903419791868019B79
:1044900000F0EEFBDFE708F07BFC034A40F28D11F1
:1044A000024803F03DFCFEE7D4DE0008E4DE00082D
:1044B0002DE9F04300EB81039E6A83B006B30D46FD
:1044C000044608F089FF214F0821386004EB850875
:1044D000301D07F009FCD8F80C3006F14C095B6977
:1044E0001B68F3B9484601A9FEF712FD58B1024610
:1044F00029462046019B00F0BBFB386808F058FFB6
:1045000003B0BDE8F083D8F80C305A69126892B94C
:10451000D6F890249368002BEFD0106801219847BB
:10452000EBE74846FEF714FD484601A9FEF7F0FC0C
:104530000028DCD1E7E71B8A013B1340E8D129467C
:1045400004F17402204600F093FBD6E770120020BD
:10455000113138B550F82140E4B108F03DFF042195
:104560000D4D2860601807F0BFFBD4F8902404F1CB
:1045700018001368527903EB8203DB689B69596862
:10458000FEF76EFA2046FFF70BFE2868BDE83840BC
:1045900008F00EBF38BD00BF701200200000000000
:1045A000704700BF08B5EFF311835BB1EFF30583EC
:1045B0008BB108F0EDFB154A40F21711144803F0D7
:1045C000AFFBFEE708F0E4FB124A40F21711104877
:1045D00003F0A6FBFEE709F011F8A8B10E4B0F4A55
:1045E00018680F49126808602AB11A6822F47F021D
:1045F0001A601A681A604FF080520A4B1A60BFF3B3
:104600004F8FBFF36F8F08BD08BD00BF70DD00087E
:1046100050DD000838DD000820ED00E0A415002082
:10462000A015002004ED00E00000000000000000E4
:1046300001F006BF000000000000000000000000C4
:1046400010B500230446012063602070A36004F1CC
:10465000100107F0B5FEE06010BD00BF00000000D3
:1046600038B580B10D4671B1044608F0DBFE237801
:10467000013B012B0FD908F08BFB0D4A61210D483E
:1046800003F04EFBFEE708F083FB0B4A5D2109486F
:1046900003F046FBFEE72046656001F0F1FE0223D1
:1046A0002370FFF77FFFBDE8384008F0A7BE00BFCA
:1046B0005CDE0008A0DF00082CDF0008000000001E
:1046C00010B5B0B1044608F0ADFE2378022B07D038
:1046D00008F05EFB0B4A8D210B4803F021FBFEE73F
:1046E000204601F035FFFFF75DFFBDE8104008F000
:1046F00085BE08F04DFB054A8A21034803F010FBF4
:10470000FEE700BF30DE0008A0DF000838DF000849
:1047100010B5B0B1044608F085FE2378022B07D00F
:1047200008F036FB0B4A9F210B4803F0F9FAFEE72D
:10473000204601F015FFFFF735FFBDE8104008F0F7
:104740005DBE08F025FB054A9C21034803F0E8FA0A
:10475000FEE700BF30DE0008A0DF000844DF0008ED
:10476000F8B5A0B10D4691B11F4683B1164672B19E
:10477000044608F057FE2378022B11D008F008FBFE
:10478000164A4FF49F71164803F0CAFAFEE708F084
:10479000FFFA144A40F23B11114803F0C1FAFEE758
:1047A00063681B6843B108F0F3FA0F4A40F23F1107
:1047B0000B4803F0B5FAFEE703203B463246294694
:1047C0002070204601F0D4FE04F1080007F002FA40
:1047D000FFF7E8FEBDE8F84008F010BE30DE000844
:1047E000A0DF000850DF000890DF00080000000094
:1047F00070B590B10D4681B1164672B1044608F00D
:1048000011FE2378022B11D008F0C2FA164A4FF499
:10481000AD71164803F084FAFEE708F0B9FA144ABD
:1048200040F25711114803F07BFAFEE763681B68FA
:1048300043B108F0ADFA0F4A40F25B110B4803F0A8
:104840006FFAFEE70323324629462370204601F023
:10485000BFFE04F1080007F0BDF9FFF7A3FEBDE8B5
:10486000704008F0CBBD00BF30DE0008A0DF0008BC
:104870005CDF000890DF000800000000000000007E
:1048800070B590B10D4681B1164672B1044608F07C
:10489000C9FD2378022B11D008F07AFA164A4FF49A
:1048A000BB71164803F03CFAFEE708F071FA144AAF
:1048B00040F27311114803F033FAFEE763681B6896
:1048C00043B108F065FA0F4A40F277110B4803F044
:1048D00027FAFEE70323324629462370204601F0DB
:1048E000A7FE04F1080007F075F9FFF75BFEBDE8CD
:1048F000704008F083BD00BF30DE0008A0DF000874
:1049000064DF000890DF00080000000000000000E5
:1049100030B10023C06819464FF0FF3207F0C4BA27
:1049200010B508F035FA034A4FF4C671024803F097
:10493000F7F9FEE770DF0008A0DF000800000000C4
:1049400028B10023C0681A46194607F0E1BB10B52C
:1049500008F01EFA034A4FF4CE71034803F0E0F961
:10496000FEE700BF80DF0008A0DF000800000000B5
:1049700010B5044690F8763080F87E3002F058F991
:1049800063681B6813B101212046984703232370F5
:1049900010BD00BF0000000000000000000000008B
:1049A00002F016B900000000000000000000000046
:1049B000002330B4012500F1480421461A46436023
:1049C000057000F12C0343F8042BA34241F8042B9B
:1049D000F9D130BC02814281704700BF0000000065
:1049E00038B5002855D00D46002952D0044608F0AD
:1049F00019FD2378013B012B08D908F0C9F9294A90
:104A00004FF49971284803F08BF9FEE700216560A7
:104A100004F10C0304F12C0243F8041B9A42FBD16D
:104A2000204602F0DDF802232370EFF3118343B92F
:104A300008F0AEF91D4A40F217111D4803F070F955
:104A4000FEE7EFF3058343B108F0A2F9194A40F2FB
:104A50001711174803F064F9FEE708F0CFFDA0B185
:104A6000154B164A18681649126808602AB11A6868
:104A700022F47F021A601A681A604FF08052114BBC
:104A80001A60BFF34F8FBFF36F8FBDE8384008F057
:104A9000B5BC08F07DF90C4A4FF49771024803F059
:104AA0003FF9FEE75CDE000874E0000838DD00082E
:104AB00050DD000870DD000820ED00E0A4150020A6
:104AC000A015002004ED00E0C0DF00080000000099
:104AD00038B5EFF311836BB110B30AB30378042B2D
:104AE00011D008F055F91C4A40F279111B4803F027
:104AF00017F9FEE708F04CF9194A4FF4BB71174853
:104B000003F00EF9FEE700EB8105EC688CB108F0CC
:104B10003FF9144A4FF4BD71104803F001F9FEE764
:104B200008F036F9104A40F277110C4803F0F8F813
:104B3000FEE75369EA601BB11C605C609C60DC604E
:104B4000936923B100221A605A609A60DA60BDE866
:104B5000384002F07DB800BF5CDE000874E0000859
:104B600038DD000860E00008CCDF0008000000002D
:104B700008B5EFF3118343B908F00AF9184A40F277
:104B80009911184803F0CCF8FEE700B30378042B22
:104B900008D008F0FDF8144A40F29B11114803F0C8
:104BA000BFF8FEE700210289438902F0010203F009
:104BB00001030281438100F12C0200F1100343F84C
:104BC000041B9A42FBD1BDE8084002F0E9B808F0A6
:104BD000DFF8064A4FF4CD71024803F0A1F8FEE772
:104BE00038DD000874E000085CDE0008E0DF000843
:104BF000F8B5EFF3118444B908F0CAF8184A40F246
:104C0000C511184803F08CF8FEE7074608B10729DC
:104C100008D908F0BDF8144A4FF4E371114803F0C5
:104C20007FF8FEE701247E898C40A4B216EA040EC8
:104C300008D008F0ADF80D4A40F2C711094803F05A
:104C40006FF8FEE707EB8105ED683443AD697C81C1
:104C5000AA6085E80840BDE8F84002F0F9B800BF56
:104C600038DD000874E00008F8DF000894E0000870
:104C7000F8B5EFF3118444B908F08AF8184A4FF4F4
:104C8000F671184803F04CF8FEE7074608B107290B
:104C900008D908F07DF8144A40F2ED11114803F0EC
:104CA0003FF8FEE701243E898C40A4B216EA040EC8
:104CB00008D008F06DF80D4A4FF4F771094803F079
:104CC0002FF8FEE707EB8105ED6834436D693C8101
:104CD000AA6085E80840BDE8F84002F0E1B800BFEE
:104CE00038DD000874E000080CE00008A8E00008C7
:104CF0000023022110B504461A460170A0F87C304A
:104D000080F87E3080F87F300381438100F12C01F0
:104D100000F10C0343F8042B8B42FBD184F8642090
:104D2000204602F01DF863681B6823B12046BDE8E9
:104D300010400021184710BD0000000000000000D6
:104D40000521426810B412680478017080F8804030
:104D500012B1042110BC104710BC704700000000C5
:104D6000426890F88010126801700AB1052110475E
:104D7000704700BF000000000000000000000000BD
:104D8000002370B5044680F8643000F1740202F02C
:104D90003FF863689B6833B32046984718B3E56EC5
:104DA00094F8743094F87B1094F87A2042EA012247
:104DB000AA422CBF2A46E266190600F18280002A28
:104DC0004BD1B34D052384F8643008F005FB002374
:104DD0001A46286020460021FFF74AFF2868BDE8F0
:104DE000704008F0E5BA94F8743013F06006184685
:104DF00011D00021204602F0ABF80021204602F03D
:104E00008FF863681B6813B1062120469847062374
:104E100084F8643070BD94F8752003F07F0545EA8E
:104E20000225B5F5407F00F0D38028D9B5F5C06FD5
:104E300000F0E88051D9B5F5106F76D040F6024207
:104E4000954200F0D880B5F5006FD2D1012504F16C
:104E50007F022667E566A266A4E7042384F864302F
:104E600008F0BAFA8A4DE36EA26E2860204600214F
:104E7000FFF7BEFE2868BDE8704008F099BA022D21
:104E800000F08F8040F28280B5F5807F3DD0B5F58F
:104E9000817FAED194F87630002BAAD194F8783087
:104EA00013F00F0107D01E06204600F1E78002F044
:104EB00067F894F874000023754DA366E3662367D2
:104EC00017E0002A6BD0012384F8643008F084FADC
:104ED0006F4DE36E2860A26E7CE740F202339D4284
:104EE00041D0B5F5A06F84D16A4B694DA666E666E0
:104EF000236703067FF566AF032384F8643008F068
:104F00006BFA002328601A46B0E794F87630012B3C
:104F10007FF46FAFB4F87C30A66623F00203E66638
:104F20002667A4F87C305A4DE3E794F8763094F87D
:104F30007F209A4200F08A802278042A00F088803C
:104F4000534D4BB10422616884F87F300B682270A6
:104F500013B102212046984794F874000023A366F9
:104F6000E3662367C5E794F87630002B7FF441AF02
:104F700094F8783013F00F019DD01D06204600F103
:104F8000828001F0CDFF94F8740094E785BB022085
:104F900004F17C022567E0660546A26602E73C4D07
:104FA000AAE794F87810204611F0800F01F00F0165
:104FB00041D101F00DFF012841D002287FF419AF43
:104FC000354BE066A3662667054694F87430E9E63B
:104FD00094F87630012B7FF40CAFB4F87C30A666E1
:104FE00043F00203E6662667A4F87C30284D80E78C
:104FF000012D7FF4FEAE02250021284AE5662167D7
:10500000A266CFE694F87910626894F87830556813
:1050100043EA012394F8762094F877102046A847B5
:1050200000283FF4E6AE43680568A366E566266798
:1050300094F87430B6E601F0DBFE0128BDD1184BC0
:10504000E566A366266794F87430ABE6104D85E7F5
:1050500008F0C2F90E4D28602046FFF789FD286848
:1050600008F0A6F90321636884F87F601B6821704B
:105070000BB12046984794F8763062E701F098FF2C
:1050800094F8740017E701F063FF94F8740012E7D6
:10509000701200207149000858E00008C0E00008C4
:1050A0005CE00008000000000000000000000000BC
:1050B00090F8643070B50446062B49D8DFE803F059
:1050C000270415272741300090F87B1090F87A20AC
:1050D000C36E42EA01229A4207D9C268128AB3FB20
:1050E000F2F502FB1535002D3BD0032384F8643024
:1050F00008F072F90023234D1A462860194620460D
:10510000FFF776FD2868BDE8704008F051B907F058
:105110003FFE1D4A40F27A311C4802F001FEFEE7D4
:10512000002101F015FF0021204601F0F9FE63681F
:105130001B6813B1062120469847062384F8643083
:1051400070BD036F03B19847002384F8643070BDCD
:1051500007F01EFE0E4A40F286310C4802F0E0FDD8
:10516000FEE708F039F9074E2B4630602A462946FB
:105170002046FFF77DFD306808F01AF9022384F815
:10518000643070BD7012002020E0000874E0000858
:1051900038E00008000000000000000000000000EF
:1051A00038B590F864300446062B3DD8DFE803F0AC
:1051B0003232322715320400002101F0C9FE0021ED
:1051C000204601F0ADFE63681B6813B1062120463E
:1051D0009847062384F8643038BD052380F864308E
:1051E00008F0FAF80023154D1A46286019462046A3
:1051F000FFF73EFD2868BDE8384008F0D9B8C3681D
:105200009B695B687BB9036F03B19847002384F8FF
:10521000643038BD07F0BCFD094A40F2B531094899
:1052200002F07EFDFEE738BD07F0B2FD064A40F20F
:10523000C131044802F074FDFEE700BF7012002087
:1052400020E0000874E0000838E0000808B5EFF33B
:1052500011835BB1EFF305838BB107F099FD154A1C
:1052600040F21711144802F05BFDFEE707F090FDD5
:10527000124A40F21711104802F052FDFEE708F002
:10528000BDF9A8B10E4B0F4A18680F4912680860A3
:105290002AB11A6822F47F021A601A681A604FF065
:1052A00080520A4B1A60BFF34F8FBFF36F8F08BD58
:1052B00008BD00BF70DD000850DD000838DD0008C3
:1052C00020ED00E0A4150020A015002004ED00E072
:1052D00001F086BE00000000000000000000000099
:1052E00038B580B10D4671B1044608F09BF82378BB
:1052F000013B012B0FD907F04BFD0D4A4B210D4807
:1053000002F00EFDFEE707F043FD0B4A4721094876
:1053100002F006FDFEE72046656001F071FE022303
:105320002370FFF793FFBDE8384008F067B800BF6F
:105330005CDE0008DCE00008C4E0000800000000BB
:1053400010B5B0B1044608F06DF82378022B07D0F1
:1053500007F01EFD0B4A75210B4802F0E1FCFEE749
:10536000204601F065FEFFF771FFBDE8104008F030
:1053700045B807F00DFD054A7221034802F0D0FC44
:10538000FEE700BF30DE0008DCE00008D0E00008E7
:105390000122430910B49B0000F16044090104F5A7
:1053A000614403F1604300F01F00C9B284F80013A8
:1053B00003F5614302FA00F0C3F8800110BC1860E5
:1053C000704700BF00000000000000000000000067
:1053D000012230B40024064900F01F054309AA4009
:1053E0002033084441F8232080F8004330BC704744
:1053F00000E100E0000000000000000000000000EC
:1054000000224FF0FF300C4B10B41C6918611A6178
:10541000DC68D860DA60DA69084942F08052DA6103
:10542000DA6910BC42F00062DA610B6843F4807301
:105430000B6000F005BA00BF001002400070004091
:105440001F4B1A46196841F00101196013689B0748
:10545000FCD5002113681A4803F0F903136051606A
:10546000436813F00C0FFBD10368154943F48033F4
:1054700003600B689803FCD54B6A114A43F00103A3
:105480004B62536A9907FCD553680D4943F4F813EE
:105490005360136843F0807313600B689B01FCD565
:1054A0001222084B084848601A604B68044A43F0CF
:1054B00002034B60536803F00C03082BFAD17047CA
:1054C000001002400020024000641F0000000000A5
:1054D00008B5144B144A1968126801F00E01114204
:1054E00005D0124A596013680BB15068984708F00C
:1054F00085F870B10E4B0F4A18680F4912680860A2
:1055000042B94FF080520D4B1A60BFF34F8FBFF37B
:105510006F8F08BD1A6822F47F021A601A681A6039
:10552000EFE700BF00000240080002402809002009
:1055300020ED00E0A4150020A015002004ED00E0FF
:10554000154B164A19681268090901F00E0111423B
:1055500010B506D012480A0184685A600CB1C068C0
:10556000A04708F04BF870B10E4B0F4A18680F496E
:105570001268086042B94FF080520D4B1A60BFF3B9
:105580004F8FBFF36F8F10BD1A6822F47F021A602D
:105590001A681A60EFE700BF000002401C000240DA
:1055A0002809002020ED00E0A4150020A01500200F
:1055B00004ED00E00000000000000000000000001A
:1055C000154B164A19681268090A01F00E011142BA
:1055D00010B506D012480A0204695A600CB140693D
:1055E000A04708F00BF870B10E4B0F4A18680F492E
:1055F0001268086042B94FF080520D4B1A60BFF339
:105600004F8FBFF36F8F10BD1A6822F47F021A60AC
:105610001A681A60EFE700BF000002403000024045
:105620002809002020ED00E0A4150020A01500208E
:1056300004ED00E000000000000000000000000099
:10564000154B164A19681268090B01F00E01114238
:1056500010B506D012480A0384695A600CB1C069BB
:10566000A04707F0CBFF70B10E4B0F4A18680F49E7
:105670001268086042B94FF080520D4B1A60BFF3B8
:105680004F8FBFF36F8F10BD1A6822F47F021A602C
:105690001A681A60EFE700BF0000024044000240B1
:1056A0002809002020ED00E0A4150020A01500200E
:1056B00004ED00E000000000000000000000000019
:1056C000154B164A19681268090C01F00E011142B7
:1056D00010B506D012480A04046A5A600CB1406A38
:1056E000A04707F08BFF70B10E4B0F4A18680F49A7
:1056F0001268086042B94FF080520D4B1A60BFF338
:105700004F8FBFF36F8F10BD1A6822F47F021A60AB
:105710001A681A60EFE700BF00000240580002401C
:105720002809002020ED00E0A4150020A01500208D
:1057300004ED00E000000000000000000000000098
:10574000154B164A19681268090D01F00E01114235
:1057500010B506D012480A05846A5A600CB1C06AB6
:10576000A04707F04BFF70B10E4B0F4A18680F4966
:105770001268086042B94FF080520D4B1A60BFF3B7
:105780004F8FBFF36F8F10BD1A6822F47F021A602B
:105790001A681A60EFE700BF000002406C00024088
:1057A0002809002020ED00E0A4150020A01500200D
:1057B00004ED00E000000000000000000000000018
:1057C000154B164A19681268090E01F00E011142B4
:1057D00010B506D012480A06046B5A600CB1406B33
:1057E000A04707F00BFF70B10E4B0F4A18680F4926
:1057F0001268086042B94FF080520D4B1A60BFF337
:105800004F8FBFF36F8F10BD1A6822F47F021A60AA
:105810001A681A60EFE700BF0000024080000240F3
:105820002809002020ED00E0A4150020A01500208C
:1058300004ED00E000000000000000000000000097
:1058400070B400250B4E2B4629460B4A0B480C4CD6
:10585000356001E052F8140C016044F83310013354
:10586000072B02F11402F5D170BC4FF0FF32054B4B
:105870005A607047600900203CE1000808000240BF
:105880002809002000000240000000000000000085
:105890002DE9F04100283ED00125234F90F811E07A
:1058A0003E68044605FA0EF0304231D11F4D88465D
:1058B00005EBCE0CCCF80430730645F83E2004D13D
:1058C0001B4D6B6943F001036B610E254FF0000C1B
:1058D00063682168D3F800E02EF00F0EC3F800E0F3
:1058E00094F810E005FA0EF54D60A568C3F800C005
:1058F0002E4208D13AB1A07C4146FFF749FD012074
:10590000637C3E689840304338600020BDE8F081F9
:105910002846BDE8F08107F03BFA064A4FF4ED71E6
:10592000054802F0FDF9FEE7600900202809002083
:1059300000100240FCE00008B0E100080000000098
:1059400038B558B301211A4D427C2B689140194259
:1059500004461AD0806823EA010303422B600ED06C
:10596000002014495B0601EBC204606041F832007C
:1059700004D1114A536923F00103536138BDA07C5F
:10598000FFF726FD627C2B68EAE707F001FA0B4A75
:1059900040F212210A4802F0C3F9FEE707F0F8F9D5
:1059A000084A40F20E21064802F0BAF9FEE700BFAD
:1059B000600900202809002000100240E4E10008EE
:1059C000B0E1000810E10008000000000000000045
:1059D000154A70B49369154D43F07D0393610368D4
:1059E000134CEB60836813496B604668A2F57C42F8
:1059F0002E60C568104BE5604569656005692560E6
:105A00008469CC60046A4C60C4690C60416AD160EE
:105A1000C16A5160816A1160026BDA60826B5A6000
:105A2000426B1A6070BC70470010024000080140D1
:105A3000000C01400010014000180140000000006F
:105A4000032AF0B52CD0042A08BF4161002508279D
:105A50002E462B462C46DFF84CE01EF8022011F0B3
:105A6000800F4FEA03134FEA05154FEA04144FEA7B
:105A700006160CBF43F00F03154311F4004F0CBF83
:105A800044F00F041643013F4FEA4101E7D1426859
:105A9000144034434460026813402B430360F0BD5C
:105AA0000161D3E7F4E100080000000000000000FD
:105AB00038B50B0710D40E23426F806F54681568F9
:105AC000216821F00F012160127C93406B604368D4
:105AD00043F40073436038BD07F05AF9034A40F2BB
:105AE0006311034802F01CF9FEE700BF3CE2000826
:105AF00048E2000800000000000000000000000074
:105B0000F0B511F0080683B008D007F041F91F4A3C
:105B10004FF4A4711E4802F003F9FEE70E23016F53
:105B2000826F4D68044628680F6820F00F002860D7
:105B3000097C184D8B407B60506820F48050506089
:105B4000106820F480601060106840F400701060ED
:105B500007F042FC2860EFF3118343B907F018F90E
:105B60000D4A40F247110D4802F0DAF8FEE7236EC5
:105B70003BB11846009633463146032207F08CFDB0
:105B8000286803B0BDE8F04007F012BC3CE2000812
:105B900048E200087012002038DD000850DD0008DF
:105BA0002DE9F041694D82B0AC6FD5F88020A36932
:105BB00066690132F105C5F8802025D41D2A23D855
:105BC00046EA0343624A23F07F4393425ED070D893
:105BD000073A934260D00132934210D162682B6F32
:105BE00022F400725B6862601A6842F001021A6077
:105BF000626842F4805262605B68012B79D916F0CA
:105C00000A0F18BFA3691DE001226369514E23F4F6
:105C100080736361636823F400736360AA6007F0B4
:105C2000DBFB3060EFF311833BB32A6E42B10023FC
:105C30001046009303226FF0010107F02DFD30683C
:105C400007F0B6FB07F0DAFCA0B1434B434A1868F3
:105C50004349126808602AB11A6822F47F021A6068
:105C60001A681A604FF080523E4B1A60BFF34F8F94
:105C7000BFF36F8F02B0BDE8F08107F089F83A4AB0
:105C800040F24711394802F04BF8FEE7B5F86430AE
:105C9000C3F347032361B2E7B5F864301A0AF9D0B9
:105CA00003F0010343F0F00302F006021343236103
:105CB000A5E72F4A934211D0023293429FD12B6F16
:105CC0005B685F68D7B1B5F86420236842F00102D1
:105CD00043F4A063A5F864202360B3E763686A6FA8
:105CE00023F4007352686360136843F00103136088
:105CF00085E7236823F48063236080E76368DFF827
:105D0000548023F400736360236843F400732360BA
:105D100007F062FBC8F80000EFF311836BB12B6E44
:105D200043B1184600973B463946032207F0B4FCBE
:105D3000D8F8000007F03CFB61E707F029F80A4AB1
:105D400040F24711094801F0EBFFFEE7640900202B
:105D5000080003007012002020ED00E0A4150020D0
:105D6000A015002004ED00E038DD000850DD00083B
:105D7000820007000000000000000000000000009A
:105D8000F0B5484C0E23A16F666F4869776800F440
:105D90005F42D2434A613D68226F25F00F053D60A6
:105DA000357C3668576803FA05F575603E68D4F8A7
:105DB000805026F00F063E60177C1668BB4082B20A
:105DC0007360013512F48073C4F880501BBF012545
:105DD0002B46A360A560960544BF43F00203A36071
:105DE000550583B00AD54D6843F0040325F40075CA
:105DF0004D600D6845F400750D60A360170544BF44
:105E000043F00803A360560444BF43F02003A3609B
:105E1000D5041AD543F010030104A36034D407F06D
:105E2000DBFA214D2860EFF31183002B30D0226E76
:105E300042B100231046009303226FF0010107F0E6
:105E40002BFC286807F0B4FA03E002041CD4002BF2
:105E5000E5D107F0D3FB70B1144B154A186815490A
:105E6000126808604AB94FF08052134B1A60BFF3B2
:105E70004F8FBFF36F8F03B0F0BD1A6822F47F021B
:105E80001A601A681A60EEE743F04003A360C6E7A1
:105E900006F07EFF094A40F24711094801F040FF31
:105EA000FEE700BF640900207012002020ED00E032
:105EB000A4150020A015002004ED00E038DD000846
:105EC00050DD00080000000000000000000000009D
:105ED00010B5074C2046FDF72BFE0020054B064968
:105EE000A3F114022066A1672367626710BD00BF9B
:105EF000640900209CE100080054004000000000FC
:105F0000F8B503780646012B846F06D19A218A22C0
:105F10007E4BC1669842826637D021464FF4004ED0
:105F200000224FF41067336F756F70685B686E689E
:105F300004F110059D604368B560754D5E1EAE426C
:105F4000C4F800E02260676017D84FF6C0774E684B
:105F5000057A3E404E604E686E4F46F02406BB42C6
:105F60004E604FD8012D00F0A88006F011FF6A4A5C
:105F7000A3216A4801F0D4FEFEE706F009FF684A53
:105F80009721664801F0CCFEFEE70020654D3346C0
:105F90002969654A41F40011296128610C21306F9B
:105FA000FFF776FC40B106F0F3FE604A40F2432171
:105FB0005A4801F0B5FEFEE733465D4A0C21706F8A
:105FC000FFF766FC40B106F0E3FE584A4FF4127149
:105FD000524801F0A5FEFEE7EB690C2143F40013E3
:105FE000EB611F20FFF7D4F90C212020FFF7D0F937
:105FF000B26EF36E42F4405243F44053B266F3661D
:10600000B16F8BE74B4EB3424DDCAA1E012A07D974
:1060100006F0BEFE484AB521404801F081FEFEE789
:10602000022D35D003EB8303444D03EB830295FB34
:10603000F2F302FB13521ABB4FF480429BB20B25C2
:10604000134343F400430D62CB6102780B68022ACC
:106050009BB20FD0032A0AD0012A02D123F00A03EF
:106060009BB20B60236843F001032360F8BD43F04B
:106070000A03F6E723F008039BB243F00203F0E7BC
:1060800006F086FE2E4AC021244801F049FEFEE7B4
:106090002A4D03EB430395FBF3F203FB125525B99D
:1060A00093B22A46CBE71346CEE706F071FE244AA8
:1060B000BA211A4801F034FEFEE7204D5B0095FB43
:1060C000F3F203FB1253CBB992B2032A0ED9252562
:1060D000B2F5805FC2F30B030D62B5D306F058FE34
:1060E000184ACD210D4801F01BFEFEE706F050FED8
:1060F000154AAB21094801F013FEFEE706F048FE01
:10610000124AA721054801F00BFEFEE764090020B2
:10611000FF083D00A08601009CE2000848E200085C
:1061200008E2000800100240015B000880E200085D
:10613000B15A0008801A060018E300080051250231
:1061400038E3000860E30008ECE20008C0E2000861
:106150000378012B28D070B5044600214FF4004687
:106160000E23406FA26F4568166011605160516147
:106170002968226F21F00F012960017C06685568AB
:1061800003FA01F171602968166821F00F01296096
:10619000127C93407360FFF7D3FB206FFFF7D0FBB7
:1061A000084B9C4201D070BD70471F20FFF710F9CB
:1061B0002020FFF70DF9044AD36923F40013D361BB
:1061C000F1E700BF64090020001002400000000059
:1061D0002DE9F047099E044691469A46856F089F2F
:1061E000DDF828801EB1012E61D9002F5FD0002379
:1061F0004900A4F86410C4F88030A360EFF3118361
:1062000043B906F0C5FD4F4A40F217114E4801F060
:1062100087FDFEE7EFF3058343B106F0B9FD4B4A76
:1062200040F21711484801F07BFDFEE707F0E6F960
:10623000A0B1474B474A18684749126808602AB11D
:106240001A6822F47F021A601A681A604FF08052AE
:10625000424B1A60BFF34F8FBFF36F8F07F0CEF83A
:10626000626F236FE16E52685B681160A16EC2F8C5
:106270000C90C2F804A01960DF605E6006F07AFA44
:106280008246334EDFF8D090344F07F0CBF8AB693D
:106290009A0702D42B689B053DD506F06BFAA0EB5C
:1062A0000A0031280CD94FF0FF30BDE8F08706F026
:1062B0006FFD2B4A40F235312A4801F031FDFEE7EF
:1062C000EFF3118343B906F063FD1E4A40F2171144
:1062D0001D4801F025FDFEE7EFF3058343B106F00D
:1062E00057FD1A4A40F21711174801F019FDFEE751
:1062F00007F084F960B1174B32681B68C9F80020B9
:10630000C3B94FF080533B60BFF34F8FBFF36F8F24
:1063100007F074F8B9E76B68414643F400736B60AB
:106320002B6804F1600043F480732B60BDE8F047F4
:1063300005F01CBC336823F47F033360336833609B
:10634000DFE700BF38DD000850DD000870DD000821
:1063500020ED00E0A4150020A015002004ED00E0D1
:106360001CE2000848E200080000000000000000F5
:106370000A0700D4704708B506F00AFD024AA421B6
:10638000024801F0CDFCFEE73CE20008A0E3000873
:10639000F0B50B0783B041D40E23816E426E4E6878
:1063A0000F683568044625F00F053560097C55688F
:1063B00003FA01F179602968466821F00F0129602C
:1063C000157C11683268AB404B6022B30423037024
:1063D00090472378042B1ED006F0FEFF134D286053
:1063E000EFF3118343B906F0D3FC114A40F2471191
:1063F000104801F095FCFEE7A2683AB10023104670
:1064000000931946032207F047F9286803B0BDE856
:10641000F04006F0CDBF02232370DDE706F0B8FCA4
:10642000054A8921054801F07BFCFEE77012002037
:1064300038DD000850DD00083CE20008A0E3000859
:1064400038B5094C094D2046FEF7FAF841F20A0129
:1064500041F21802064B256603F114006366A0663C
:10646000E166226738BD00BFEC0900200030014022
:1064700038E10008000000000000000000000000FB
:1064800038B503780446012B22D0036E6568E06EB0
:10649000698920F4706011F4006F18BF40F4A060A7
:1064A000E0664FF00000226F41F4417122F4706207
:1064B00018BF42F4A0622267AA89186042F007025E
:1064C00092B219605A601A6842F040021A6038BDF0
:1064D000194B984209D0616EA26E236E48685168CC
:1064E00003F10C0282608A60D0E70346134A0C2154
:1064F000406EFFF7CDF940B106F04AFC104A4FF468
:106500009D71104801F00CFCFEE723460E4A0C2159
:10651000A06EFFF7BDF928B90C4A936943F4805384
:106520009361D8E706F034FC054A40F23F11054874
:1065300001F0F6FBFEE700BFEC09002091630008C4
:1065400080E20008A0E30008716300080010024028
:1065500001234268118952688B405361704700BF24
:1065600001234268118952688B401361704700BF54
:10657000B1F5803FF8B518D2446E876EC66E056FD0
:106580006468786846F0800645F08005E3606160E5
:106590002660C26041600560236843F00103236008
:1065A000036843F001030360F8BD06F0F1FB034A02
:1065B0004FF40971024801F0B3FBFEE780E30008E5
:1065C000A0E3000800000000000000000000000040
:1065D000B1F5803FF8B517D2446E836E056F6468DD
:1065E0005B68C66E0D4F45F08005E7606160266010
:1065F000DA6059601D60226842F0010222601A6868
:1066000042F001021A60F8BD06F0C2FB044A40F2F3
:106610004121044801F084FBFEE700BF600A00202E
:1066200080E30008A0E30008000000000000000074
:10663000B1F5803FF8B517D2446E836EC56E6468BD
:106640005B68066F0D4F45F08005E2606160256074
:10665000DF6059601E60226842F0010222601A6801
:1066600042F001021A60F8BD06F092FB044A40F2C3
:106670005E21044801F054FBFEE700BF7EE3000802
:1066800080E30008A0E30008000000000000000014
:10669000024AD36843F08003D3607047004800404B
:1066A0002DE9F047594EB56FD5F80CA02B68DA05E7
:1066B0009CB272D4DFF8708106F08EFE14F02F0FBA
:1066C000C8F8000031D0524FA7F1040907E0A00636
:1066D0006B681DD42C68A4B214F02F0F23D02307AD
:1066E000F5D014F0080F14BF80210021E00748BF47
:1066F00041F02001A20748BF41F04001630748BFB5
:1067000041F48071384605F0EFFAA0066B68E1D5D8
:1067100096F87C1048461940FDF762FC2C68A4B23C
:1067200014F02F0FDBD1D8F8000006F041FE1AF06C
:10673000800F01D0220643D463061BD406F05EFF0F
:10674000B0B1344B344A18683449126808602AB131
:106750001A6822F47F021A601A681A604FF0805299
:106760002F4B1A60BFF34F8FBFF36F8FBDE8F087D9
:10677000BDE8F08706F030FEB26CF36CC8F800009C
:106780009A422CD04FF6BF736FF040020AEA03031F
:10679000EB602A6006F00CFED0E706F01DFEDFF885
:1067A00088804FF40071C8F80000301D05F09CFA95
:1067B0006FF48073D8F800002B6006F0F9FD7BE7DA
:1067C00006F00AFEC8F800001648FDF791F8002808
:1067D0000FDB6860D8F8000006F0EAFDACE7F36B69
:1067E000002BCFD00A48102105F07EFAD8F800001F
:1067F000C8E70821064805F077FA4FF63F730AEA22
:10680000030343F04003EB60E4E700BF640A0020A9
:10681000680A002020ED00E0A4150020A01500204B
:1068200004ED00E09C0A002070120020000000002F
:1068300010B5044C044A20460021FDF779FB034BB8
:10684000A36710BD640A002091660008004800405C
:1068500070B5037D1B4C0546002918BF0C46012B63
:1068600023D02168184A0026B2FBF1F2AB6FE18811
:106870009A60A088228941F0400140F4045442F01B
:10688000010292B289B244F02C0400F4A0501961C4
:10689000B0F5806F5A61DC601E601A685B680CBFDF
:1068A0007F23FF2385F87C3070BD084B9842D8D1F8
:1068B000074A0C21D369272043F48023D361FEF7D4
:1068C00067FDCEE7D8E3000800512502640A0020E6
:1068D0000010024008B506F05BFA034A7521034830
:1068E00001F01EFAFEE700BF28E4000838E40008C3
:1068F0002DE9F04FB04B85B05D6C6F0500F14C8118
:106900002E0500F13D81EC0408D5AB4B9A6C1004C8
:1069100040F149816FF48052A74B5A64A9050BD509
:10692000DFF8A8B2DBF80430DB680BB158469847B3
:106930006FF40072A04B5A642A0440F1D880DFF84B
:106940008CB2DFF874A205F00F05AC0004F18044AE
:1069500004F5B844D4F80080AE1C0BEB860318F0A5
:10696000800F5F6845D0786922684368D0F80CC012
:1069700022F47842016822F0F002634442F40042BB
:1069800022604360CB1A00F0DA80398ADAF85020AE
:10699000994228BF194602F1804E0EF5C04E4FEACB
:1069A000051959F80E30826803F1005303F540537E
:1069B000CE446244C16082605B00CEF8041061B1D5
:1069C000481E4008043303EB800000E0043332F833
:1069D000021B984243F8041CF8D1236823F4F043C7
:1069E00023F0400383F0300343F4004343F080037B
:1069F000236018F4004F75D0236818F4006F23F457
:106A0000784323F0F00343F08003236040F0A78035
:106A1000DAF85030D7F8188003F1804303F5C0430B
:106A200003EB05139A68DB6802F1005CC3F3090904
:106A30000193D8F808300CF5405CB9F1010F4FEA2A
:106A40004C0C009340F29A806246A9F10201039136
:106A50000CF1040E490802910EEB810E023352F83C
:106A6000041B0233080A724503F8041C03F8030CE4
:106A7000F5D1039B009923F001030233029A1944D4
:106A8000019B013200910CEB820C03F001031BB15E
:106A9000DCF80030009A1370B8F80C007F8AD8F840
:106AA0000830D8F80410D8F80020013880B24B44E0
:106AB0004944A2EB09024F45A8F80C00C8F8083079
:106AC000C8F80410C8F8002027D830B3236823F48E
:106AD000904323F0700383F4405343F4004343F0A6
:106AE00080032360DAF844502B043FF52CAF06F006
:106AF00085FD78B1314B324A186832491268086016
:106B0000002A34D14FF080522F4B1A60BFF34F8FC1
:106B1000BFF36F8F05B0BDE8F08F01220BEB860647
:106B20007168BBF80A30AA40CC6823EA0203ABF8CC
:106B30000A30002CD6D029462448A047D2E70121AC
:106B4000BBF80830A940BA6823EA0103ABF8083063
:106B5000002A3FF44EAF29461C48904749E70BEB0B
:106B60008606736829465B6818489847BAE71A682A
:106B700022F47F021A601A681A60C3E74B4686E760
:106B80006FF400610C4B11481A6C42F008021A6451
:106B90005964FEF7D5F8B6E66FF480620B485A6484
:106BA000FEF7A6F8ACE61A6C084822F008021A6450
:106BB000FEF7D6F8AEE600BF005C004020ED00E036
:106BC000A4150020A015002004ED00E0E40A002038
:106BD0000148FDF7EDBE00BFE40A00200000000000
:106BE00038B50378012B00D038BD0D4A04469042D9
:106BF00004D02046BDE83840FEF77AB809480A4D6F
:106C0000C2690D2142F40002C2612B641320FEF719
:106C1000BFFB0E211420FEF7BBFB00232B64E8E72B
:106C2000E40A002000100240005C00400000000068
:106C300090F87E30024A43F08003D364704700BF6F
:106C4000005C0040000000000000000000000000A8
:106C5000F8B500EB8103DE68336803F00303022B11
:106C60006ED0032B69D0012B54D04FF40072364CF8
:106C70007369246D0F0104F1804404F5C0443D198B
:106C80009BB14FF0000E338AC5F804E0D0F884E0E1
:106C9000013323F001037344B3F5007FC0F884305F
:106CA00050D847F804E042F02002B369D3B1748AA7
:106CB0003E2C38D9661E46F01F060136234B76114E
:106CC00043EA86239BB2EB60631CD0F8844023F038
:106CD00001032344B3F5007FC0F8843032D8AC60A0
:106CE00042F4005248F2800047F6700542EA010380
:106CF00023F47843890023F0F00301F1804101F58A
:106D0000B84103430B600C6802EA05036340034388
:106D10000B60F8BD06F03CF80D4A40F24D210D48DD
:106D200000F0FEFFFEE7631E43F00103013303EBB7
:106D3000D3735B0203F47C43C5E74FF4C06296E76C
:106D4000002294E7FFF7C6FD005C00400080FFFFD3
:106D500008E4000838E4000800000000000000001B
:106D600000214368F0B4DB6880278B420CBF4FF4EE
:106D70001C464FF41E464025054B064C19655964C8
:106D8000DF641E64C0F88450C460F0BCFFF760BFCD
:106D9000005C0040E4E30008000000000000000088
:106DA000402310B4012248F28004C0F884309300DC
:106DB00003F1804303F5B843196801322143082ADF
:106DC00019601C60F3D110BC704700BF00000000C8
:106DD000054B53F8210010F4405004D0B0F5805F0B
:106DE0000CBF012002207047005C00400000000042
:106DF000054B53F8210010F0300003D010280CBFD1
:106E000001200220704700BF005C0040000000002D
:106E10000B4B1B6D03F1804303F5C04303EB0111E2
:106E20008B6803F1005303F540535B0003F110003E
:106E300053F8041B834222F8021BF9D1704700BFAC
:106E4000005C0040000000000000000000000000A6
:106E500000EB8100C06882691368BBB1408A0344BB
:106E6000013BB3FBF0F39381890001F1804101F50F
:106E7000B8410B6823F4904323F0700383F440532C
:106E800043F4004343F080030B6070470123938178
:106E9000EAE700BF00000000000000000000000062
:106EA00000EB8100C36830B45D691A8A2B681A4808
:106EB0009A4228BF1A46006D0C0100F1804000F58F
:106EC000C04023580444EA60A86862608AB103F1B4
:106ED000005303F540535B00013A5208043303EBBF
:106EE000820200E0043330F8024B9A4243F8044C2B
:106EF000F8D1890001F1804101F5B8410B6830BC3F
:106F000023F4F04323F0400383F0300343F40043C1
:106F100043F080030B607047005C004000000000FD
:106F2000890001F1804101F5B8410B6823F49043D9
:106F300023F0700383F4805343F4004343F0800351
:106F40000B6070470000000000000000000000001F
:106F5000890001F1804101F5B8410B6823F4F04349
:106F600023F0400383F0100343F4004343F0800315
:106F70000B607047000000000000000000000000EF
:106F8000890001F1804101F5B8410B6803F44053D9
:106F9000B3F5405F09D00B6823F4F04323F04003BE
:106FA00043F4204343F080030B607047000000006F
:106FB000890001F1804101F5B8410B6803F030030D
:106FC000302B0BD00B6823F4F04323F0400383F005
:106FD000200343F4004343F080030B60704700BF7D
:106FE0000121024B024A19709A607047840B0020FD
:106FF0000030004000000000000000000000000021
:1070000045F25553826810B41360D368002BFCD14D
:107010004AF6AA244CF6CC41436809CB50609360F1
:107020001460116010BC70470000000000000000F8
:107030004AF6AA2283681A60704700BF0000000069
:10704000FEF7FEB900000000000000000000000094
:107050004FF00072014B5A60704700BF00000140C2
:107060002DE9F04F05460E4617464FF0000A87B04F
:107070003178731C61B125290ED01E462A68284636
:107080009268904731780AF1010A731C0029F2D105
:10709000504607B0BDE8F08F727800242D2A03BF58
:1070A000B278B31C01200020302A03BF5A78013384
:1070B0004FF030084FF02008591C05E03B780437AA
:1070C00011F8012B03EB4E04A2F13003DBB2092BC4
:1070D0000E4604EB840EF3D92A2AEFD02E2A4FF065
:1070E000000144D002F0DF034C2B4FD0A2F1440E3C
:1070F000BEF1340F00F25081DFE81EF0FD004E01BA
:107100004E014E014E01FD004E014E014E014E0159
:107110004E01F7004E014E014E014E014E01880016
:107120004E014E01FA004E014E014E014E014E013C
:107130004E014E014E014E014E014201FD004E0135
:107140004E014E014E01FD004E014E014E014E0119
:107150004E01F7004E014E014E0126014E018800FE
:107160004E014E01FA003B78043703EB4E0116F84E
:10717000012B01EB810EA2F13003DBB2092BF4D914
:107180002A2AF0D002F0DF034C2BAFD133780BB1B9
:107190001A460136A2F14403342B00F2FD80DFE8E9
:1071A00013F0AA00FB00FB00FB00FB00AA00FB00A1
:1071B000FB00FB00FB00FB00A400FB00FB00FB004E
:1071C000FB00FB003500FB00FB00A700FB00FB0001
:1071D000FB00FB00FB00FB00FB00FB00FB00FB00D7
:1071E000EF00AA00FB00FB00FB00FB00AA00FB0075
:1071F000FB00FB00FB00FB00A400FB00FB00FB000E
:10720000D300FB003500FB00FB00A7004FF00A0C89
:107210003A680DF11701043700E05946B2FBFCFE55
:107220000CFB1E2202F13003392BC8BF02F13703D9
:107230007246DBB201F8013C01F1FF3B002AECD1C0
:107240000A460DF117010DF10C09A1EB0B01CE4619
:107250008B4401E012F8013B93450EF8013BF9D154
:107260004B1E0193641A3AD4002840F09E80C4F16A
:10727000000B002C00F0988099F800102D2900F0E8
:107280009C802B6841469B68284698471BF1010B60
:10729000F7D1019BA244002BA8BF5C46FFF6E8AEE5
:1072A000DDF804B02B680BF1FF3B9B6819F8011B5C
:1072B00028469847BBF1FF3FF4D1019B0AF1010A30
:1072C0009A44002C3FF4D4AEA1462B6841469B68FB
:1072D00028469847B9F10109F7D1A244C8E6019BB5
:1072E000002BA8BF0024DBDAC2E64FF0080C8FE7C2
:1072F0004FF0100C8CE73A680437002A6DDB0DF173
:107300000C09494601F10B0BDE463E4BA3FB02C3C1
:10731000DB089C4603EB8303A2EB43036246303356
:10732000DBB20EF8013D002AEFD1ABEB0E020A44AE
:1073300001E01EF8013F01F8013B9142F9D1A1EBB8
:1073400009014B1E01938DE7D7F800900437B9F17E
:10735000000F4BD099F8003061BB002B4CD047F6A2
:10736000FE73494601E0013B03D411F8012F002AC6
:10737000F9D1A1EB09014B1E01934FF0200871E7F1
:1073800000223B680DF11809019209F80C3D043701
:1073900001214FF0200865E700230DF11809019342
:1073A000012109F80C2D5DE75C46019B002BBFF61F
:1073B00077AF86E703B34B1ED3E7B8F1300F7FF406
:1073C00060AF2A68284692689047019B09F101093D
:1073D000013B0AF1010A019353E72D2352428DF834
:1073E0000C300DF10D010DF10C098BE709B947F6D1
:1073F000FF71DFF81490DEE74FF0FF334FF0200805
:10740000019331E7CDCCCCCCACE400080000000007
:107410000EB400B582B003AB53F8041B1A460193B7
:10742000FFF71EFE02B05DF804EB03B0704700BF2B
:10743000C26803468068904208D010B45C6800209F
:10744000A154DA6810BC0132DA6070476FF00100B5
:10745000704700BF000000000000000000000000B6
:107460000369C2689A4205D041685A1CCB5C02612C
:10747000184670476FF00100704700BF0000000021
:1074800038B50369C4680546E41A944228BF144617
:1074900042680846D1182246FBF754F82B6920466B
:1074A0001C442C6138BD00BF00000000000000003B
:1074B00038B5C36884680546E41A944228BF144668
:1074C000406822461844FBF73DF8EB6820461C4410
:1074D000EC6038BD0000000000000000000000006B
:1074E00030B40024034D0461056041608260C360D4
:1074F00030BC7047B4E40008000000000000000049
:107500002DE9F04104460068A8B11F46164688469A
:1075100002E054F80C0F70B13146FBF789F80546CC
:107520000028F6D1A0683A4641466668069BB047F7
:107530002846BDE8F0810120BDE8F0810000000090
:1075400038B50D46E8B1044628601149204606F0DA
:1075500033FB215C044422290DD00D49204606F05E
:1075600009FB286018B10023421C2A6003702378AD
:1075700053B1204638BD0134204606F059FA286040
:10758000F0E70C68002CE0D10024204638BD00BF95
:10759000C4E400080000000000000000000000003B
:1075A0002DE9F041002875D08468C668B4426FD0D8
:1075B00090E80050234600271CF80350013701359E
:1075C0002B447345A8BFA3EB0E03B342F4D1012AA9
:1075D00044D0D0F810E077455CDBB4425ED07B1E2F
:1075E00073455AD090E80011002503E0EB433B447B
:1075F00073452DD018F80430013501331C4464451F
:10760000A8BFA4EB0C04B442F0D118F80640BCB1FA
:10761000884607460EF101030361402200214046DF
:1076200006F0B8F97B68A2199A421FDA3968013668
:10763000314440462246FAF785FF2046BDE8F081F6
:10764000012A27D10EF1010303612046BDE8F08134
:10765000264618F80640002CDAD1F1E70369002B22
:107660001FDDA3F1020EC0F810E0B4E79B1B3968E0
:107670005D1E013631442A464046FAF763FF08EBA7
:107680000500621B3968FAF75DFF2046BDE8F0810E
:1076900000279CE74FF0FF34CFE72646D0F8008064
:1076A000B3E70024C9E700BF0000000000000000AD
:1076B0000022024B5A601A609A607047900B0020BB
:1076C00008B505F0AFFE0448012104F00DFBBDE84C
:1076D0000840002005F040BC900B00200000000096
:1076E0002DE9F04F002688469A460F463546013A66
:1076F0000468DFF85CB285B001EB0209236801225F
:107700005B680DF10F0120469847002841D09DF895
:107710000F101B2926D04DB15B2938D026B1412945
:1077200064D042297DD000263546E7E7042900F0E1
:107730008280082918D07F2916D00D2900F0878073
:107740000E292BD0102948D01F29D7D94F45D5D283
:10775000236820469B6898479DF80F30013707F84B
:10776000013CCBE70125C9E74745C7D0236808217D
:107770009B6820469847236820219B6820469847AD
:10778000236808219B682046013F9847B6E72E46AC
:10779000B4E70125284605B0BDE8F08F0122414637
:1077A0005046FFF7FDFE031E019314D188F80050E8
:1077B00008234A2259462046FFF72AFE6049204600
:1077C000FFF726FE019B424643445E4920461F4682
:1077D000FFF71EFE92E791DBEAE72A464146504654
:1077E000FFF7DEFE031E0193E2DC87E7002241463D
:1077F0005046FFF7D5FE051E95DD002608234A22D8
:1078000059462046FFF704FE4D492046FFF700FE8B
:1078100042464C49204608EB05073546FFF7F8FD80
:107820006CE7012241465046FFF7BAFE051E0BD118
:1078300088F80050E1E7012520464349FFF7E8FDBD
:10784000284605B0BDE8F08FFFF66DAFD5E72046BE
:107850003E49FFF7DDFDA7EB0804BAF1000F5AD04F
:10786000DAF80400431E9C4255DA631E18F8031030
:1078700008EB030220290AD1002C03DC4BE0002B8B
:1078800049D0013B12F8011D1C462029F7D0002CDD
:1078900041DDDAF800E0DAF80830DAF80C600AE0E6
:1078A000A24213DC1EF8032013440133984200DC8B
:1078B0001B1ACAF80830F21A991B0132B342A0EB26
:1078C000020201F1FF31EBDDA142EBDD801B00F193
:1078D000FF39A14525DD701C704441462246FAF768
:1078E00031FEDAF80C20DAF80010631C8C54DAF858
:1078F0000C10DAF804200B449342CAF80C30A8BFED
:107900009B1A4FF00002DAF80010A8BFCAF80C303A
:10791000CA54CAF81020002328463B7005B0BDE8C1
:10792000F08F701C4A4641467044FAF70BFE08EB94
:107930000901A4EB0902DAF80000FAF703FED0E728
:10794000D4E40008D8E40008DCE4000880EA000879
:10795000C8E4000800000000000000000000000073
:1079600000232DE9F04F8268416806681370A1B0CA
:107970008468C268039107464F49304607930893CD
:10798000099305940692FFF743FDDFF84C91DFF869
:107990004CA1DFF84CB149463046FFF739FD402293
:1079A00005AB0DEB02013846FFF79AFE044688BB93
:1079B00004A910A8FFF7C4FD04A9804600200AAD61
:1079C000FFF7BEFD50B1052C1DD045F8040B04A9EE
:1079D00000200134FFF7B4FD0028F4D120AB03EB05
:1079E000840343F8580CB8F1000FD4D059464046F0
:1079F000FAF71EFEE0B9002C3AD05A462F4930461D
:107A0000FFF706FDC7E751463046FFF701FD0023AB
:107A10000F93C0E728493046FFF7FAFC2849304663
:107A2000FFF7F6FC0020FFF74BFE21B0BDE8F08F1A
:107A30000AAB00934246234631462248FFF760FDD9
:107A40000028A8D0039B4BB10AAB009342462346C3
:107A500031460398FFF754FD00289CD042461A494E
:107A60003046FFF7D5FC19493046FFF7D1FC92E7C5
:107A7000144D17493046FFF7CBFC2A6842B1154C2C
:107A800021463046FFF7C4FC55F80C2F002AF7D1E9
:107A9000039B5BB1039D2A6842B10E4C21463046E0
:107AA000FFF7B6FC55F80C2F002AF7D102493046F3
:107AB000FFF7AEFC6FE700BF80EA000814E500089E
:107AC000ECE40008E4E60008D8E4000834E5000827
:107AD00020E5000830E50008E0E40008F4E40008D0
