:020000040800F2
:10200000000400206121000835AF000835AF00084A
:1020100035AF000835AF000835AF000835AF000810
:1020200035AF000835AF000835AF0008B13F0008F4
:1020300035AF000835AF0008A13E0008F94600089A
:1020400035AF000835AF000835AF000835AF0008E0
:1020500035AF000835AF000835AF000835AF0008D0
:1020600035AF000835AF000835AF00089D6800089F
:10207000556800080D680008C56700087D670008FE
:1020800035670008ED66000835AF000835AF000879
:102090008960000835AF000835AF000835AF00088B
:1020A00035AF000835AF000835AF000835AF000880
:1020B00035AF000835AF000835AF00082D650008C2
:1020C0004D64000835AF000835AF000835AF000893
:1020D00035AF000835AF000835AF00080D7C0008AB
:1020E00035AF000835AF000835AF000835AF000840
:1020F00035AF000835AF000835AF000835AF000830
:1021000035AF000835AF000835AF000835AF00081F
:1021100035AF000835AF000835AF000835AF00080F
:1021200035AF000835AF000835AF000835AF0008FF
:1021300035AF000835AF000835AF000835AF0008EF
:1021400035AF000835AF000835AF000835AF0008DF
:1021500035AF000835AF000835AF000835AF0008CF
:1021600072B6264880F3098825484EF60851CEF20B
:1021700000010860022080F31488BFF36F8F09F01C
:10218000DDFB09F07BFB4FF055301E491E4A9142A2
:102190003CBF41F8040BFAE71C49184A91423CBF86
:1021A00041F8040BFAE71A491A4A1B4B9A423EBF00
:1021B00051F8040B42F8040BF8E700201749184ABD
:1021C00091423CBF41F8040BFAE709F097FB09F094
:1021D000B4FB144C144DAC4203DA54F8041B88478A
:1021E000F9E709F0A7F9114C114DAC4203DA54F8A4
:1021F000041B8847F9E709F09FBB00000008002096
:10220000002000080000002000040020000400203E
:10221000ECCF000800080020280900202809002031
:102220003C160020602100086021000860210008A1
:10223000602100082A2A2A2A2A2A2A2A2A2A2A2A1D
:102240002A2A2A2A2A2A2A2A2A2A2A2A2A2A2A2AEE
:102250002A2A2A2A2A2A2A2A2A2A2A2A2A2A2A2ADE
:102260002A2A2A2A2A2A2A2A2A2A2A2A2A2A2A2ACE
:102270002A2A2A2A2A2A2A2A2A2A2A2A2A2A2A2ABE
:102280002A2A2A2A2A2A0D0A4672656552544F5371
:10229000204B65726E656C205631302E302E300D1D
:1022A0000A436F7079726967687420284329203265
:1022B00030313720416D617A6F6E2E636F6D2C2047
:1022C000496E632E206F722069747320616666699F
:1022D0006C69617465732E2020416C6C20526967B3
:1022E0006874732052657365727665642E0D0A0DED
:1022F0000A5065726D697373696F6E206973206827
:102300006572656279206772616E7465642C2066FF
:10231000726565206F66206368617267652C207442
:102320006F20616E7920706572736F6E206F6274BA
:1023300061696E696E67206120636F7079206F66D6
:102340000D0A7468697320736F6674776172652013
:10235000616E64206173736F636961746564206486
:102360006F63756D656E746174696F6E2066696CFC
:10237000657320287468652022536F6674776172D4
:102380006522292C20746F206465616C20696E0DB4
:102390000A74686520536F66747761726520776987
:1023A00074686F7574207265737472696374696F91
:1023B0006E2C20696E636C7564696E672077697432
:1023C000686F7574206C696D69746174696F6E20D3
:1023D0007468652072696768747320746F0D0A757C
:1023E00073652C20636F70792C206D6F646966793A
:1023F0002C206D657267652C207075626C6973683E
:102400002C20646973747269627574652C2073750D
:10241000626C6963656E73652C20616E642F6F72E8
:102420002073656C6C20636F70696573206F660D37
:102430000A74686520536F6674776172652C206139
:102440006E6420746F207065726D6974207065729F
:10245000736F6E7320746F2077686F6D207468657A
:1024600020536F6674776172652069732066757298
:102470006E697368656420746F20646F20736F2CBD
:102480000D0A7375626A65637420746F20746865E1
:1024900020666F6C6C6F77696E6720636F6E64691E
:1024A00074696F6E733A0D0A0D0A54686520616293
:1024B0006F766520636F70797269676874206E6FDC
:1024C0007469636520616E64207468697320706547
:1024D000726D697373696F6E206E6F7469636520C6
:1024E0007368616C6C20626520696E636C756465ED
:1024F0006420696E20616C6C0D0A636F706965738E
:10250000206F72207375627374616E7469616C20E0
:10251000706F7274696F6E73206F662074686520C7
:10252000536F6674776172652E20496620796F75E6
:10253000207769736820746F20757365206F7572DA
:1025400020416D617A6F6E0D0A4672656552544F77
:1025500053206E616D652C20706C6561736520641D
:102560006F20736F20696E2061206661697220752B
:10257000736520776179207468617420646F657376
:10258000206E6F7420636175736520636F6E66756E
:1025900073696F6E2E0D0A0D0A54484520534F463D
:1025A00054574152452049532050524F56494445B3
:1025B0004420224153204953222C20574954484F4C
:1025C00055542057415252414E5459204F462041B4
:1025D0004E59204B494E442C204558505245535398
:1025E000204F520D0A494D504C4945442C20494E2C
:1025F000434C5544494E4720425554204E4F542099
:102600004C494D4954454420544F20544845205787
:10261000415252414E54494553204F46204D455258
:102620004348414E544142494C4954592C20464953
:10263000544E4553530D0A464F52204120504152AB
:10264000544943554C415220505552504F53452008
:10265000414E44204E4F4E494E4652494E47454DFD
:10266000454E542E20494E204E4F204556454E543F
:10267000205348414C4C2054484520415554484F24
:102680005253204F520D0A434F5059524947485414
:1026900020484F4C44455253204245204C4941422A
:1026A0004C4520464F5220414E5920434C41494D04
:1026B0002C2044414D41474553204F52204F544810
:1026C0004552204C494142494C4954592C205748C5
:1026D00045544845520D0A494E20414E204143542D
:1026E000494F4E204F4620434F4E54524143542CA5
:1026F00020544F5254204F52204F5448455257496E
:1027000053452C2041524953494E472046524F4D84
:102710002C204F5554204F46204F5220494E0D0A31
:10272000434F4E4E454354494F4E2057495448203D
:1027300054484520534F465457415245204F52204C
:1027400054484520555345204F52204F5448455238
:10275000204445414C494E475320494E205448455A
:1027600020534F4654574152452E0D0A0D0A6874A6
:1027700074703A2F2F7777772E4672656552544FD3
:10278000532E6F72670D0A687474703A2F2F617739
:10279000732E616D617A6F6E2E636F6D2F66726539
:1027A0006572746F730D0A2A2A2A2A2A2A2A2A2A6B
:1027B0002A2A2A2A2A2A2A2A2A2A2A2A2A2A2A2A79
:1027C0002A2A2A2A2A2A2A2A2A2A2A2A2A2A2A2A69
:1027D0002A2A2A2A2A2A2A2A2A2A2A2A2A2A2A2A59
:1027E0002A2A2A2A2A2A2A2A2A2A2A2A2A2A2A2A49
:1027F0002A2A2A2A2A2A2A2A2A0D0A434F505952BB
:102800004947485428632920323031362053544DEB
:102810006963726F656C656374726F6E6963730D63
:102820000A0D0A5265646973747269627574696F1E
:102830006E20616E642075736520696E20736F75FC
:1028400072636520616E642062696E6172792066D0
:102850006F726D732C2077697468206F72207769AE
:1028600074686F7574206D6F6469666963617469FB
:102870006F6E2C0D0A617265207065726D697474DB
:1028800065642070726F7669646564207468617431
:102890002074686520666F6C6C6F77696E67206363
:1028A0006F6E646974696F6E7320617265206D6507
:1028B000743A0D0A2020312E2052656469737472B7
:1028C00069627574696F6E73206F6620736F7572BD
:1028D000636520636F6465206D7573742072657421
:1028E00061696E207468652061626F766520636F30
:1028F00070797269676874206E6F746963652C0DF6
:102900000A202020202074686973206C6973742069
:102910006F6620636F6E646974696F6E7320616E99
:10292000642074686520666F6C6C6F77696E6720D1
:10293000646973636C61696D65722E0D0A202032C3
:102940002E205265646973747269627574696F6E62
:102950007320696E2062696E61727920666F726D94
:10296000206D75737420726570726F647563652075
:102970007468652061626F766520636F7079726933
:10298000676874206E6F746963652C0D0A202020BF
:10299000202074686973206C697374206F662063EB
:1029A0006F6E646974696F6E7320616E6420746801
:1029B0006520666F6C6C6F77696E672064697363FE
:1029C0006C61696D657220696E2074686520646F42
:1029D00063756D656E746174696F6E0D0A202020D9
:1029E0002020616E642F6F72206F74686572206D95
:1029F0006174657269616C732070726F7669646569
:102A000064207769746820746865206469737472DF
:102A100069627574696F6E2E0D0A2020332E204E68
:102A200065697468657220746865206E616D6520E3
:102A30006F662053544D6963726F656C6563747281
:102A40006F6E696373206E6F7220746865206E61AB
:102A50006D6573206F662069747320636F6E747286
:102A6000696275746F72730D0A20202020206D61D9
:102A700079206265207573656420746F20656E64CB
:102A80006F727365206F722070726F6D6F74652046
:102A900070726F64756374732064657269766564BF
:102AA0002066726F6D207468697320736F66747727
:102AB0006172650D0A2020202020776974686F7587
:102AC00074207370656369666963207072696F72E0
:102AD000207772697474656E207065726D697373A6
:102AE000696F6E2E0D0A20200D0A54484953205359
:102AF0004F4654574152452049532050524F564952
:102B00004445442042592054484520434F5059528F
:102B10004947485420484F4C4445525320414E4465
:102B200020434F4E5452494255544F525320224154
:102B300053204953220D0A414E4420414E5920450D
:102B4000585052455353204F5220494D504C4945FF
:102B5000442057415252414E544945532C20494E2E
:102B6000434C5544494E472C20425554204E4F5417
:102B7000204C494D4954454420544F2C205448453D
:102B80000D0A494D504C4945442057415252414E3F
:102B900054494553204F46204D45524348414E54D9
:102BA0004142494C49545920414E44204649544ED3
:102BB00045535320464F52204120504152544943DF
:102BC000554C415220505552504F5345204152458B
:102BD0000D0A444953434C41494D45442E20494E2A
:102BE000204E4F204556454E54205348414C4C20D2
:102BF00054484520434F5059524947485420484F64
:102C00004C444552204F5220434F4E545249425556
:102C1000544F5253204245204C4941424C450D0AE5
:102C2000464F5220414E59204449524543542C208E
:102C3000494E4449524543542C20494E434944454A
:102C40004E54414C2C205350454349414C2C204577
:102C500058454D504C4152592C204F5220434F4E15
:102C600053455155454E5449414C0D0A44414D413F
:102C70004745532028494E434C5544494E472C2044
:102C8000425554204E4F54204C494D495445442000
:102C9000544F2C2050524F435552454D454E5420D1
:102CA0004F46205355425354495455544520474F9D
:102CB0004F4453204F520D0A5345525649434553F2
:102CC0003B204C4F5353204F46205553452C204416
:102CD0004154412C204F522050524F464954533BAF
:102CE000204F5220425553494E45535320494E548C
:102CF000455252555054494F4E2920484F5745563A
:102D000045520D0A43415553454420414E44204FFE
:102D10004E20414E59205448454F5259204F46208D
:102D20004C494142494C4954592C20574845544834
:102D3000455220494E20434F4E54524143542C207B
:102D4000535452494354204C494142494C495459E7
:102D50002C0D0A4F5220544F52542028494E434CB8
:102D60005544494E47204E45474C4947454E4345FB
:102D7000204F52204F54484552574953452920412E
:102D8000524953494E4720494E20414E5920574100
:102D900059204F5554204F462054484520555345FF
:102DA0000D0A4F46205448495320534F465457412B
:102DB00052452C204556454E20494620414456490F
:102DC000534544204F462054484520504F535349C3
:102DD00042494C495459204F4620535543482044BA
:102DE000414D4147452E0D0A2A2A2A2A2A2A2A2AF3
:102DF0002A2A2A2A2A2A2A2A2A2A2A2A2A2A2A2A33
:102E00002A2A2A2A2A2A2A2A2A2A2A2A2A2A2A2A22
:102E10002A2A2A2A2A2A2A2A2A2A2A2A2A2A2A2A12
:102E20002A2A2A2A2A2A2A2A2A2A2A2A2A2A2A2A02
:102E30002A2A2A2A2A2A2A2A2A2A0D0A4368696261
:102E4000694F53202D20436F707972696768742031
:102E500028432920323030362E2E3230313620476A
:102E6000696F76616E6E6920446920536972696F7B
:102E70000D0A0D0A4C6963656E73656420756E6496
:102E800065722074686520417061636865204C69D3
:102E900063656E73652C2056657273696F6E2032A0
:102EA0002E30202874686520224C6963656E736536
:102EB00022293B0D0A796F75206D6179206E6F7440
:102EC0002075736520746869732066696C65206578
:102ED000786365707420696E20636F6D706C6961D2
:102EE0006E6365207769746820746865204C696337
:102EF000656E73652E0D0A596F75206D6179206FAF
:102F0000627461696E206120636F7079206F662042
:102F1000746865204C6963656E73652061740D0A81
:102F20000D0A20202020687474703A2F2F7777774D
:102F30002E6170616368652E6F72672F6C696365BF
:102F40006E7365732F4C4943454E53452D322E30D9
:102F50000D0A0D0A556E6C65737320726571756983
:102F6000726564206279206170706C696361626C63
:102F700065206C6177206F722061677265656420DF
:102F8000746F20696E2077726974696E672C207384
:102F90006F6674776172650D0A6469737472696231
:102FA0007574656420756E64657220746865204C64
:102FB0006963656E736520697320646973747269EF
:102FC0006275746564206F6E20616E20224153200B
:102FD0004953222042415349532C0D0A5749544822
:102FE0004F55542057415252414E54494553204F5A
:102FF0005220434F4E444954494F4E53204F462090
:10300000414E59204B494E442C20656974686572C5
:103010002065787072657373206F7220696D706CB3
:103020006965642E0D0A53656520746865204C69D6
:1030300063656E736520666F7220746865207370B7
:10304000656369666963206C616E67756167652099
:10305000676F7665726E696E67207065726D6973F1
:1030600073696F6E7320616E640D0A6C696D6974AB
:103070006174696F6E7320756E6465722074686523
:10308000204C6963656E73652E0D0A2A2A2A2A2A46
:103090002A2A2A2A2A2A2A2A2A2A2A2A2A2A2A2A90
:1030A0002A2A2A2A2A2A2A2A2A2A2A2A2A2A2A2A80
:1030B0002A2A2A2A2A2A2A2A2A2A2A2A2A2A2A2A70
:1030C0002A2A2A2A2A2A2A2A2A2A2A2A2A2A2A2A60
:1030D0002A2A2A2A2A2A2A2A2A2A2A2A2A0D0A4374
:1030E0006F707972696768742028632920323031E3
:1030F000372C20426572746F6C642056616E2064B8
:10310000656E204265726768202876616E64656E20
:10311000626572676840626572746F6C642E6F726C
:1031200067290D0A416C6C2072696768747320729C
:10313000657365727665642E0D0A5468697320772D
:103140006F726B20686173206265656E20646576BE
:10315000656C6F70656420746F20737570706F722A
:10316000742072657365617263682066756E64654C
:10317000642062790D0A2246756E6420666F7220A3
:10318000536369656E74696669632052657365612E
:103190007263682C20466C616E646572732220280D
:1031A000462E572E4F2E2D566C61616E64657265EA
:1031B0006E292E0D0A0D0A52656469737472696274
:1031C0007574696F6E20616E642075736520696E19
:1031D00020736F7572636520616E642062696E6131
:1031E000727920666F726D732C2077697468206F16
:1031F0007220776974686F75740D0A6D6F64696603
:1032000069636174696F6E2C2061726520706572EC
:103210006D69747465642070726F7669646564208A
:10322000746861742074686520666F6C6C6F776970
:103230006E6720636F6E646974696F6E732061726C
:1032400065206D65743A0D0A202020202A205265E1
:10325000646973747269627574696F6E73206F66E6
:1032600020736F7572636520636F6465206D75737D
:10327000742072657461696E207468652061626F84
:10328000766520636F707972696768740D0A202013
:10329000202020206E6F746963652C207468697328
:1032A000206C697374206F6620636F6E6469746943
:1032B0006F6E7320616E642074686520666F6C6C3D
:1032C0006F77696E6720646973636C61696D65729D
:1032D0002E0D0A202020202A205265646973747202
:1032E00069627574696F6E7320696E2062696E61C0
:1032F000727920666F726D206D75737420726570BF
:10330000726F64756365207468652061626F7665AD
:1033100020636F707972696768740D0A202020201D
:1033200020206E6F746963652C2074686973206C4B
:10333000697374206F6620636F6E646974696F6E61
:103340007320616E642074686520666F6C6C6F77A3
:10335000696E6720646973636C61696D6572206969
:103360006E207468650D0A202020202020646F6381
:10337000756D656E746174696F6E20616E642F6F18
:1033800072206F74686572206D6174657269616C1A
:10339000732070726F766964656420776974682041
:1033A00074686520646973747269627574696F6E9C
:1033B0002E0D0A202020202A204E6569746865722F
:1033C00020746865206E616D65206F662074686585
:1033D00020617574686F72206E6F72207468650D5D
:1033E0000A2020202020206E616D6573206F6620EA
:1033F00069747320636F6E7472696275746F72732F
:10340000206D6179206265207573656420746F207A
:10341000656E646F727365206F722070726F6D6F6E
:1034200074652070726F64756374730D0A202020B8
:10343000202020646572697665642066726F6D2055
:103440007468697320736F66747761726520776939
:1034500074686F7574207370656369666963207042
:1034600072696F72207772697474656E207065720C
:103470006D697373696F6E2E0D0A0D0A54484953B6
:1034800020534F4654574152452049532050524FE4
:1034900056494445442042592054484520434F5002
:1034A00059524947485420484F4C444552532041B3
:1034B0004E4420434F4E5452494255544F5253208C
:1034C0002241532049532220414E440D0A414E5976
:1034D0002045585052455353204F5220494D504C8F
:1034E0004945442057415252414E544945532C209E
:1034F000494E434C5544494E472C20425554204E8A
:103500004F54204C494D4954454420544F2C20548D
:10351000484520494D504C4945440D0A57415252A7
:10352000414E54494553204F46204D455243484152
:103530004E544142494C49545920414E4420464939
:10354000544E45535320464F52204120504152542F
:103550004943554C415220505552504F53452041FC
:1035600052450D0A444953434C41494D45442E2090
:10357000494E204E4F204556454E54205348414C0D
:103580004C2054484520415554484F52204F52201A
:103590004449535452494255544F52204245204CBD
:1035A0004941424C4520464F5220414E590D0A4454
:1035B00049524543542C20494E4449524543542CCA
:1035C00020494E434944454E54414C2C20535045CC
:1035D0004349414C2C204558454D504C4152592CA3
:1035E000204F5220434F4E53455155454E5449416B
:1035F0004C2044414D414745530D0A28494E434C08
:103600005544494E472C20425554204E4F54204C8F
:10361000494D4954454420544F2C2050524F435556
:1036200052454D454E54204F462053554253544920
:103630005455544520474F4F4453204F5220534533
:103640005256494345533B0D0A4C4F5353204F4666
:10365000205553452C20444154412C204F5220509A
:10366000524F464954533B204F5220425553494EE6
:1036700045535320494E54455252555054494F4E8C
:103680002920484F574556455220434155534544FC
:1036900020414E440D0A4F4E20414E59205448457A
:1036A0004F5259204F46204C494142494C495459A8
:1036B0002C205748455448455220494E20434F4EF0
:1036C00054524143542C20535452494354204C49A2
:1036D0004142494C4954592C204F5220544F525486
:1036E0000D0A28494E434C5544494E47204E454704
:1036F0004C4947454E4345204F52204F5448455270
:1037000057495345292041524953494E4720494E74
:1037100020414E5920574159204F5554204F4620A3
:1037200054484520555345204F4620544849530D91
:103730000A534F4654574152452C204556454E207A
:1037400049462041445649534544204F4620544859
:103750004520504F53534942494C495459204F46F4
:1037600020535543482044414D4147452E0D0A2AD8
:103770002A2A2A2A2A2A2A2A2A2A2A2A2A2A2A2AA9
:103780002A2A2A2A2A2A2A2A2A2A2A2A2A2A2A2A99
:103790002A2A2A2A2A2A2A2A2A2A2A2A2A2A2A2A89
:1037A0002A2A2A2A2A2A2A2A2A2A2A2A2A2A2A2A79
:1037B0002A2A2A2A2A2A2A2A2A2A2A2A2A2A2A2A69
:1037C0002A0D0A0053B94AB9002908BF00281CBFB6
:1037D0004FF0FF314FF0FF3000F074B9ADF1080C3D
:1037E0006DE904CE00F006F8DDF804E0DDE902231F
:1037F00004B070472DE9F0478C460446089E002B24
:103800004BD18A42154667D9B2FA82F24AB1C2F167
:10381000200701FA02F320FA07F7954047EA030C64
:1038200094404FEA154EBCFBFEF71FFA85F80EFBDD
:1038300017C307FB08F9210C41EA0343994509D94D
:10384000EB1807F1FF3180F01C81994540F2198196
:10385000023F2B44A3EB0903B3FBFEF00EFB103336
:1038600000FB08F1A4B244EA0344A14209D92C198F
:1038700000F1FF3380F00781A14240F20481023859
:103880002C4440EA07400027641A1EB10023D440AC
:10389000C6E900433946BDE8F0878B4209D9002EBE
:1038A00000F0EC800027C6E9000138463946BDE843
:1038B000F087B3FA83F7002F48D18B4202D38242BC
:1038C00000F2FB80841A61EB030301209C46002E6A
:1038D000E0D0C6E9004CDDE702B9FFDEB2FA82F2C1
:1038E000002A40F08F800127491B4FEA15481FFA34
:1038F00085F9B1FBF8FE08FB1E1109FB0EF04FEA3B
:10390000144C4CEA0143984207D9EB180EF1FF31F1
:1039100002D2984200F2CD808E461B1AB3FBF8F01B
:1039200008FB103309FB00F9A4B244EA0344A145A3
:1039300007D92C1900F1FF3302D2A14500F2B6805D
:103940001846A4EB090440EA0E409EE7C7F12005A3
:10395000BB4022FA05FC4CEA030C21FA05F44FEABD
:103960001C4EB4FBFEF91FFA8CF80EFB194420FA2A
:1039700005F3B94009FB08FA19430B0C43EA044468
:10398000A24502FA07F200FA07F30BD91CEB040474
:1039900009F1FF3080F08880A24540F28580A9F1CE
:1039A00002096444A4EB0A04B4FBFEF00EFB1044CD
:1039B00000FB08FA89B241EA0444A24508D91CEB8D
:1039C000040400F1FF316BD2A24569D90238644486
:1039D00040EA0940A0FB0289A4EB0A044C45414699
:1039E000CE4654D351D0002E69D05A1A64EB0E043F
:1039F00004FA05F522FA07F3FC401D43C6E900541A
:103A0000002747E79540C2F1200321FA03F04FEA6F
:103A10001548B0FBF8F71FFA85F908FB170024FAE0
:103A200003F3914007FB09FC0B43190C41EA0041E9
:103A30008C4504FA02F407D9691807F1FF3031D236
:103A40008C452FD9023F2944A1EB0C01B1FBF8F0C2
:103A500008FB101C00FB09FE99B241EA0C418E459F
:103A600007D9691800F1FF3318D28E4516D90238EC
:103A70002944A1EB0E0140EA07473AE737463046B2
:103A800008E70F46E6E61846FBE64345ABD2B8EB3F
:103A9000020169EB0C0201389646A4E71846E8E7F4
:103AA000084695E70746CFE781467BE702382C4476
:103AB00047E7AEF1020E2B442FE7384607E73746BB
:103AC000E8E600BF704700BF844641EA000313F0F8
:103AD000030349D1403A23D30B6803604B6843602A
:103AE0008B688360CB68C3600B6903614B6943617A
:103AF0008B698361CB69C3610B6A03624B6A436262
:103B00008B6A8362CB6AC3620B6B03634B6B436349
:103B10008B6B8363CB6BC36340304031403ADBD265
:103B200030320BD30B6803604B6843608B68836053
:103B3000CB68C36010301031103AF3D20C3205D389
:103B400051F8043B40F8043B043AF9D2043208D05F
:103B5000D2071CBF11F8013B00F8013B01D30B88D1
:103B600003806046704700BF082A13D38B07B1D08B
:103B700010F00303AED0C3F10403D21ADB071CBF5D
:103B800011F8013B00F8013BA4D331F8023B20F8C7
:103B9000023B9FE7043AD9D3013A11F8013B00F800
:103BA000013BF9D20B7803704B7843708B788370AC
:103BB0006046704780EA010C1CF0030F37D110F00B
:103BC000030C20F0030021F0030150F8042B08BF80
:103BD00051F8043B0ED08CF0030C6FF07F434FEA9A
:103BE000CC0C23FA0CFC51F8043B42EA0C0243EAE9
:103BF0000C0300BFA2F1013C9A4201BF2CEA020C67
:103C00001CF0803F50F8042B51F8043BF2D04FEAEF
:103C100002604FEA1222012828BFB0EB036F08BFF1
:103C20001B0AF4D003F0FF03000EC01A704710F017
:103C3000030F0AD010F8012B11F8013B012A28BF0D
:103C40009A42F4D0A2EB030070474DF8045D50F89F
:103C5000042B01F0030521F0030151F8043B022D70
:103C600026D04DD822F07F45B5EB132FA2F1013CB1
:103C70002CEA020C0DD11CF0803C08BF51F8043B2B
:103C80000AD185EA0205B5EB036F0CD150F8042B7D
:103C9000E8E74FEA13235BE03CF07F4C54D10B780C
:103CA0004FEA126554E04FEA126503F0FF034FE05C
:103CB0004FEA0245A2F1013C4FEA15452CEA020CFD
:103CC000B5EB134F18D11CF0803C08BF51F8043BF2
:103CD00007D185EA0205B5EB034F09D150F8042B53
:103CE000E6E75FEA0C4C2FD10B884FEA12452FE034
:103CF0004FEA03434FEA12454FEA134328E000BF5F
:103D000002F0FF05B5EB136FA2F1013C2CEA020CA7
:103D10000DD11CF0803C08BF51F8043B0AD185EA64
:103D20000205B5EB032F0AD150F8042BE8E74FEA60
:103D300013630DE012F0FF0F06D051F8043B4FEA79
:103D4000122523F07F4303E04FF0000020BC7047B2
:103D500005F0FF0203F0FF00012828BF904204BFD6
:103D60002D0A1B0AF4D0A2EB000020BC704700BF54
:103D7000134B5A689969023A914209D31A6A998A8F
:103D800001320A441A6200229A829A601A617047CC
:103D9000B1F5803FDA6904D31A611A6A01321A62F6
:103DA00070471868090A8154596801328A4228BF4D
:103DB00000229869196888549A8A01329A82704759
:103DC00000130020054B9A681968885C5968013215
:103DD0008A429A6024BF00229A6070470013002034
:103DE00070B5154C0646A38AD3B1A26823699A42DE
:103DF00016D1FFF7E7FF0546FFF7E4FFA36840EAA7
:103E0000052080B218446368A060984228BFC01A99
:103E1000A38A28BFA060013BA382236A01332362E7
:103E200023692268D654236962680133934223616F
:103E300024BF0023236170BD0013002070B5064627
:103E40000D460446A31B9D4204D8054A93692B44A2
:103E5000936170BD14F8010BFFF7C2FFF2E700BFDA
:103E600000130020EFF305830F2B06D9084A9B5C53
:103E7000084A12789A4200D9FEE7074B074A1B68A6
:103E8000126803F4E063934200D9FEE7704700BF75
:103E9000F0E300E0301300200CED00E034130020CC
:103EA000184B1B6818481A460260EFF30980BFF3ED
:103EB0006F8F134B1A6820E9F00F144C2468EFF34E
:103EC000118120E9120010602DE908404FF0BF0079
:103ED00080F3118807F04EFABDE8084019680868B9
:103EE00012C881F3118809490C60B0E8F00F80F323
:103EF0000988BFF36F8F7047AFF30080AFF3008086
:103F0000981100203C13002020ED00E04813002011
:103F1000044A136803B9FEE7013B136080F311887C
:103F2000704700BF48130020EFF311804FF0BF032C
:103F300083F31188BFF36F8FBFF34F8F024A13686B
:103F400001331360704700BF48130020044A136810
:103F500003B9FEE7013B13600BB983F31188704787
:103F600048130020064B1A683AB94FF0BF0181F39D
:103F70001188BFF36F8FBFF34F8F01321A60704704
:103F80004813002006480068006880F3088862B67D
:103F900061B6BFF34F8FBFF36F8F00DF00BF00002C
:103FA00008ED00E00000000000000000000000003C
:103FB0000B4B1968086830C8B0E8F00F80F3098827
:103FC000BFF36F8F4FF0000080F311884EF00D0E9D
:103FD000704700BFAFF30080AFF30080AFF3008005
:103FE0009811002008B5044B1B68013300D0FEE790
:103FF000FFF7B8FFFEE700BF48130020064A13682A
:104000001968064B19B94FF0FF321A6070471268F1
:10401000D268D2685268F8E79C110020E4150020AD
:10402000F8B50E46FFF79EFF33680F4C591C226807
:10403000A44611D00D4D04682F684168BC4201D0E0
:1040400091420FD9521A93420AD99B1A33602B68B6
:104050000360DCF8003043600020FFF777FFF8BD15
:10406000002333600120F8E734160020E815002013
:10407000094B0A4A1B681268D06A58B9084A126884
:10408000012A08D8012B06D8064B1868064B1B6876
:10409000C01A704700207047641300209811002058
:1040A000A8110020E415002034160020024A1368ED
:1040B00001331360704700BF5C13002008B5FFF7A1
:1040C00051FF0022024B1A6072B671B608BD00BFE4
:1040D00000160020F8B510B9FFF7F0FFFEE7012346
:1040E0001F4C477C266803FA07F5354235D11D4B36
:1040F00043F8371003EBC7035A60730608BF1A4A28
:10410000016802BF536943F00103536143681A68B1
:1041100022F00F021A600E22077CBA404A60002289
:104120001A6083681E4214D1C021837C03F160426F
:1041300002F5614282F80013012203F01F015B09BE
:104140009B0003F160438A4003F56143C3F880217B
:104150001A60002035432560F8BD1846FCE700BF13
:1041600034100020D80F0020001002400369D0E96D
:1041700001128A60826851605968814208BF5A60A2
:10418000002202611A68013A1A60186870470A68CA
:1041900030B5531C0AD103695A684A6091608B603C
:1041A0005960036808610133036030BD00F1080302
:1041B0005C6825689542EFD82346F9E743689A681A
:1041C0004B608A609A6851609960036808610133A6
:1041D00003607047F8B5044600B9FEE7FFF742FEFA
:1041E000FFF7A2FE022394F860500746EDB2012DBE
:1041F00084F86030E1651FD1A36A03B1FEE7134B79
:104200001B68F3B9261D3046FFF7B0FF104A142093
:10421000E36A11689D400D43314615600D4A00FB6D
:104220000320FFF7CBFF0C4BE26A1B68DB6A9A4264
:1042300082BF0122094B1A603846FFF769FE012050
:10424000F8BD04F118010648EBE700BF5C1300203D
:1042500064130020A81100209811002038160020B7
:10426000EC15002008B5EFF3118313B1006818B9FD
:1042700008BDFFF723FFFEE7BDE80840FFF7AABF30
:1042800037B50446EFF311832BB10A4D2368019330
:1042900023B903B030BDFFF711FFFEE76FF0010156
:1042A00001A8FFF7DFFF019B03B92B685B6D23605B
:1042B000ECE700BF9811002013B50446EFF311831B
:1042C00023B10368019323B902B010BDFFF7F6FED6
:1042D000FEE7002101A8FFF7C5FF019B0BB9024BC8
:1042E0001B685B6D2360EFE79811002070B50546F1
:1042F00010B9FFF7E3FEFEE7EFF3118383B14668E1
:10430000C3680E43466073B92C687CB96B68F3B11F
:1043100005F108006FF00201BDE87040FFF7A2BF91
:10432000FFF7CCFEFEE731469847EDE723691E42D2
:1043300006D06369A16933436361E068FFF7D6FF84
:1043400022696B68246823EA02036B60DDE770BDB5
:10435000F8B51B4B1B4E1C68054630680F460430F1
:10436000FFF704FF334640B901203168164EC96A91
:104370003268884022EA000232606A1C07D137B1F5
:10438000196812480431BDE8F840FFF717BF1A68F2
:104390006419546007D30E4A10681968BDE8F840E4
:1043A0000431FFF7F4BE0B4A106819680431FFF7B7
:1043B000EEFE094B1A68A24288BF1C60F8BD00BF20
:1043C0003416002098110020641300200C160020E1
:1043D000A41100209C110020E415002070B5234C8E
:1043E0000E461546FFF7BEFD236893F86030022B9A
:1043F00021D001212268D36D23EA0003D36523680D
:1044000083F86010BDB12846FFF7A2FF184B194A88
:1044100019681160184A12682AB11A6822F47F02DA
:104420001A601A681A604FF08052144B1A60BFF37A
:104430004F8FBFF36F8FFFF789FDFFF793FD236861
:104440000020DB6D3360236893F86030022B04BFDB
:104450002368DA6D4FF0000208BFD865236808BFF3
:10446000012083F86020FFF771FD70BD98110020D6
:1044700020ED00E03C1300204813002004ED00E094
:1044800013B50C46EFF311832BB1EFF305832BB17A
:10449000FFF714FEFEE7FFF711FEFEE719B94FF034
:1044A000FF3002B010BD30B1FFF75CFD074B19685B
:1044B000FFF74CFD0160224601A94FF0FF30FFF7E6
:1044C0008DFF0028EBD00198EBE700BF981100208A
:1044D00070B50646084619B3EFF311832BB1EFF31D
:1044E00005832BB1FFF7EAFDFEE7FFF7E7FDFEE7E7
:1044F0000D4DFFF737FD2C68FFF728FD32686CB9CA
:104500002B685A65014634600020FFF7B9FF431C51
:1045100003D104B92C68636D336070BD2346F0E7A6
:104520004FF0FF30F9E700BF9811002007B5EFF317
:1045300011832BB1EFF305832BB1FFF7BFFDFEE72E
:10454000FFF7BCFDFEE7FFF70DFD074B1968FFF70E
:10455000FDFC4FF0FF32016001A91046FFF73EFF5E
:10456000019803B05DF804FB9811002038B5C368CA
:10457000DC6804B9FEE704F118052846FFF7F6FDEC
:10458000124B1B68F3B9251D2846FFF7EFFD0123E9
:104590000F49E26A08689340034314200B602946E0
:1045A0000C4B00FB0230FFF709FE0B4BE26A1B6865
:1045B000DB6A9A4285BF0120084B00201860FFF794
:1045C0001DFD38BD29460648EDE700BF5C130020FD
:1045D00064130020A8110020981100203816002034
:1045E000EC1500202DE9F84F384B1B68002B66D1E5
:1045F000374B1C6801341C607CB9364B1A68126852
:1046000002B1FEE7344A1968106818601160334A35
:10461000136801331360FFF7F1FC314D4FF0000BCD
:104620002B68304FA34211D93A682F4BD16A14221C
:104630004A439A58022A28BF4FF0010B2B4A1268AE
:10464000002A0CBF58460120BDE8F88FDFF884A08F
:10465000DFF8A090DAF8002012681AB94FF0FF32A4
:104660002A60E1E7DAF80020D268D66871688C42E7
:1046700001D22960D8E706F104084046FFF776FD2D
:10468000B16A19B106F11800FFF770FD01224FF071
:10469000140CF06AD9F8003002FA00F11943124BF9
:1046A000C9F800100CFB00304146FFF787FD386861
:1046B000F16AC26A914228BF4FF0010BCAE70C4A67
:1046C0004FF0000B136801331360B7E75C13002051
:1046D000341600209C110020A4110020E8150020B1
:1046E000E415002098110020A811002038160020A1
:1046F000541300206413002008B5FFF733FCFFF7C4
:1047000071FF38B1054B1A68054B1A604FF08052A3
:10471000044B1A60BDE80840FFF718BC20ED00E02C
:104720003C13002004ED00E033482DE9F843036812
:1047300003B9FEE7FFF716FC0368013B036004685A
:1047400024B10020FFF702FCBDE8F8832B4B1B6867
:10475000002BF6D02A4D2B4EDFF8C8801FE0EB6807
:104760000127DC6804F1040904F11800FFF7FEFCDE
:104770004846FFF7FBFC1420E26A316807FA02F3AF
:104780000B4300FB028049463360FFF717FD1E4BC9
:10479000E26A1B68DB6A9A4201D31C4B1F602B68DC
:1047A000002BDCD10CB1FFF729FC194D2C6844B16A
:1047B0000127164EFFF716FF00B13760013CF9D113
:1047C0002C60124B1B68002BBBD0124B124A19688D
:1047D0001160124A12682AB11A6822F47F021A6024
:1047E0001A681A604FF080520D4B1A60BFF34F8F5A
:1047F000BFF36F8F0120A5E75C1300204C1300204E
:10480000EC150020641300209811002038160020B9
:104810005413002020ED00E03C130020481300203A
:1048200004ED00E0A81100202DE9F74F17460A68B3
:104830000D46002A5AD04FF0000A0446D0464B6875
:1048400001F108025B68DFF8A89093424B6008BF53
:10485000CB68009208BF4B604B68DB6801936B68C4
:10486000009A5B689A426B6004BFEB686B606B6890
:10487000D3F80CB0BBF1000F29D1D9F8006006F1D4
:1048800034006060F06A26602061306BE061706C1B
:10489000A060F06CC4E90508D9F80000864218D180
:1048A00084F80C80326B1046831A10F801EBBEF1CD
:1048B000A50FF9D09B082384019B0AF1010A5B45EF
:1048C00004F12404CBD1504603B0BDE8F08F5E461E
:1048D000D5E7032F2773E5D1FFF7E8FBB06A10B1E6
:1048E0004FF002032373FFF71FFFDBE79246EAE76F
:1048F0009811002008B578B9114B124A1968116057
:10490000114A1268AAB94FF08052104B1A60BFF3D7
:104910004F8FBFF36F8F0BE00D4B196801B1FEE7AE
:10492000FFF7C4FBFFF714FDFFF7FEFE0028E3D0FE
:1049300008BD1A6822F47F021A601A681A60E2E75A
:1049400020ED00E03C1300204813002004ED00E0BF
:104950005C130020F8B50446FFF704FB444B454DBB
:104960001A68454801321A602A68002A74D12C60FE
:104970001B68012B3ED14FF0FF374FF0140C164649
:1049800000F108030CFB02F10132052A43E901376B
:10499000C3E90133465003F11403F3D1374A02F15E
:1049A0000803C2E90137C2E90333354B166003F14E
:1049B0000801C3E90117C3E9031132491E6001F17F
:1049C000080C0E60C1E901C7C1E903CC2E4901F111
:1049D000080C0E60C1E901C7C1E903CC2B4901F104
:1049E000080C0E60C1E901C7C1E903CC28490A607F
:1049F000284A1360284A294913680E680133136056
:104A000063640123E26A934033430B601423211D46
:104A100003FB0200FFF7D2FBFFF798FA204B1B685D
:104A2000CBB12B68DA6AE36A9A4214D21D4B1E4A54
:104A3000196811601D4A12682AB11A6822F47F02AF
:104A40001A601A681A604FF08052194B1A60BFF34F
:104A50004F8FBFF36F8FF8BD114B1B68002BC9D16F
:104A60002B68DA6AE36A9A4298BF2C60C2E700BFFB
:104A70004C13002098110020A81100206C13002076
:104A800080130020EC150020201600200C160020BA
:104A90009C110020A411002060130020641300204A
:104AA0000016002020ED00E03C13002048130020F9
:104AB00004ED00E02DE9F0410446FFF753FA4FF012
:104AC000010890F845501B4F6DB200F12406002DEF
:104AD00017DCFF234FF0010884F84530FFF736FA62
:104AE000FFF740FA94F84450124F6DB204F11006EB
:104AF000002D12DCFF2384F84430BDE8F041FFF7BD
:104B000025BA636A002BE4D03046FFF72FFD08B1C9
:104B1000C7F80080013D6DB2D9E72369002BE9D0C9
:104B20003046FFF723FD08B1C7F80080013D6DB2A4
:104B3000DEE700BF381600202DE9F04F85B0019167
:104B4000054600B9FEE7046C04B1FEE720468F4F2E
:104B5000DFF85492AAE0019B1BB9002C00F05381AE
:104B6000FEE728B98A4B1B6802938A4B1B680393A4
:104B7000FFF7ECF9FFF79AFAFFF7F4F995F84430EC
:104B8000FF2B04BF002385F8443095F84530FF2BF8
:104B900004BF002385F84530FFF7D8F901A902A822
:104BA000FFF73EFA002840F0C480FFF7DBF9AB6B5B
:104BB000002B73D1FFF7CAF92B68774E002B46D133
:104BC000FFF7D0F96C68002C3FD03268E36AD26AF4
:104BD000934280F0A6804FF0140AA269DFF8CCB1AE
:104BE000002AA8BF32680AFB03B3A8BFD26AD8461E
:104BF000A4BFC2F10502A26162699A4240F08C80B2
:104C0000211D08460091FFF7B1FA644B009968B97D
:104C1000E26A0AFB02FA5BF80A0038B94FF0010EAB
:104C200018680EFA02FC20EA0C00186030681A6856
:104C3000C06AE062012404FA00FC4CEA02021A6035
:104C4000142303FB0080FFF7B9FAFFF77FF93168FF
:104C5000DDF804A0183105F12400FFF798FA0121CE
:104C60005046FFF775FB2846FFF724FFFFF75CFD72
:104C7000D8B94B4B3A681A604A4B1B682BB13B685A
:104C800023F47F033B603B683B604FF08053C9F8DF
:104C90000030BFF34F8FBFF36F8F06E0FFF756F979
:104CA0002846FFF707FFFFF73FFD0120FFF75AF9FE
:104CB000AB6B002B3FF44FAF013BAB632B6843B9A9
:104CC000354B1A681AB119680A6D01320A651B68FA
:104CD0006B602B69CBB105F11000FFF747FCA0B169
:104CE0002A4B2F4A196811602E4A12682AB11A6895
:104CF00022F47F021A601A681A604FF080522A4B21
:104D00001A60BFF34F8FBFF36F8FFFF71FF90124B6
:104D1000204605B0BDE8F08F3368DB6AE36201240A
:104D200093E73368E46CDB6A9C422CBF00240124C7
:104D30008BE72846FFF7BEFEFFF7F6FCFFF712F9F8
:104D4000AB6B13B1FFF702F9AFE7FFF7FFF8002CE9
:104D5000DED0FFF707F96B6A1BB12B6B1B68C3F141
:104D600005036C68002C4ED0216D01B9FEE7E26CA2
:104D7000934238BF1346E26A9A4244D0012942D195
:104D8000054909688C4213D1FEE700BF20ED00E021
:104D9000E81500203416002098110020641300202C
:104DA0003C1300204813002004ED00E0A81100206F
:104DB0001427A169164D002907FB0252E362A4BF24
:104DC000C3F10503A361636993421CD104F1040894
:104DD0004046FFF7CBF90F4EE26A48B9012357432B
:104DE000E85903FA02F118B9336823EA0103336082
:104DF00001231420316893400B4300FB02504146CD
:104E00003360FFF7DBF9FFF7A1F8002480E700BF6C
:104E1000A81100206413002010B50F4B1A688242BD
:104E200018D35C681919884201BF416818460919EE
:104E30005960446801198A4207D1084909688A42C1
:104E40001FBF51681268091941609842026018BF7B
:104E5000186010BD1346E1E704160020A0110020E1
:104E600008B5E8B10F4A50F8043C1268134200D16B
:104E7000FEE750F8081C01B1FEE723EA020340F800
:104E8000043CFFF713F9084A50F8043C116808384D
:104E90000B441360FFF7C0FFBDE80840FFF744BCB8
:104EA00008BD00BF681300209413002010B590F8CF
:104EB000613004463BB9006BFFF7D2FF2046BDE8E6
:104EC0001040FFF7CDBF012BF9D0022B00D0FEE739
:104ED00010BD000070B52B4DFFF744F82C68261D5F
:104EE0003046FFF743F960B91421E06A264B41438D
:104EF0005B5833B90122254982400B6823EA02033B
:104F00000B60A36A1BB104F11800FFF72FF9204AC8
:104F10001368013313602B689C4213D131461D483E
:104F2000FFF74CF91C4A136801331360FFF70EF8C2
:104F30001A4B1B682BB32B689C4222D1184B1B6861
:104F400053B1FEE7174A20461368013B1360FFF791
:104F5000ADFFFFF753F8E9E7134B144A19681160E6
:104F6000134A12682AB11A6822F47F021A601A687A
:104F70001A604FF080520F4B1A60BFF34F8FBFF390
:104F80006F8F70BD98110020A811002064130020BD
:104F9000601300202016002050130020001600206F
:104FA0005C1300204C13002020ED00E03C13002097
:104FB0004813002004ED00E02DE9F041374DFFF7E4
:104FC00075F82B68364C0BBB3649374B4E07A3EBB5
:104FD00001030A4605D0073121F0070113440A46B0
:104FE0005B1A00211344314E083B23F00703716024
:104FF0003260C3E90011991A2B60C2E900312C4BD1
:1050000019602C4B19604FF000432360276807425A
:105010003FD100283DD000F1080358071CBF23F002
:1050200007030833002B34D0224A166890469E426C
:105030002FD31E4A14686068984201D2216871B962
:105040002968A14225D0216815681160C21A102A6A
:1050500005F108050AD9E018410703D0FEE722460A
:105060000C46E8E742606360FFF7D6FE0023104974
:1050700062680868B61A864247EA0207C8F8006004
:1050800038BF0E6067602360FFF74EFB6B0702D0EE
:10509000FEE70025F8E72846BDE8F081A0110020D2
:1050A0006813002040160020005000200416002045
:1050B000E01500209413002010B50446CB680020B2
:1050C0009B686FF07E0198472046236A002198472D
:1050D000012010BD2DE9F041CD68536816461468D3
:1050E0002A78002B80460CBF412742276B68BAB153
:1050F0001C44AB6802212046984730B9AB680221B6
:105100006008984770B147F02007D8F82030404633
:10511000394698476B680120F3602B78337402E0BE
:10512000A34202D90020BDE8F081E41AE1E708B506
:105130000021036A9847012008BD10B51446036A90
:105140004FF4407198472368012003F58C3303F531
:10515000A073E3600023237410BD10B51446036AE6
:105160000021984723680120E3600023237410BDC9
:105170002DE9F0414FF0140C044600270D4641691B
:10518000FAB20CFB02F801EB08000369B3B1E6695F
:10519000D640F30730D42B7AA3B16E7A96422BD146
:1051A000237EFF2B17D126766E7261692A46414411
:1051B0000B6920461B6898470646C0B90026304652
:1051C000BDE8F0812E684368B34215D88368B342C6
:1051D00012D31646E4E7B342E5D0142202FB0311D2
:1051E0000B695B68002BDED020469847DBE70FCDCC
:1051F0000FC42B682360E2E70137C1E70368012091
:105200009B680B607047036821EA02000A4042EA8B
:1052100000421A61012070472DE9304804464FF0E2
:10522000000BFEF781FE23685A681B6815464BEA9F
:105230000304FEF76DFE8900C1F12002A1F12003F5
:1052400005FA02F224FA01F125FA03F31143194396
:10525000024B01F00F01585CBDE830884CBD0008DE
:105260000123032AF0B5006803FA01F129D1016195
:10527000164B08269F5C00231A461D461C4611F05B
:10528000800F4FEA04144FEA02124FEA05154FEA65
:1052900003130CBF44F00F043A4311F4004F0CBF4A
:1052A00045F00F053B43013E4FEA4101E7D141681C
:1052B00029400B43436003682340134303600120EC
:1052C000F0BD042A08BF4161D2E700BF5CBD000801
:1052D000044B1A79824283BF0C221B6802FB003008
:1052E000014870472809002068C7000810B5FFF77B
:1052F000EFFF83681B6913B1BDE81040184710BD6C
:1053000010B50446000AFFF7E3FF83680A461B68EE
:10531000E1B2BDE81040184713B50446000AFFF794
:10532000D7FF002302A941F8043D8368E4B2DB689B
:1053300098470198E04000F0010002B010BD10B5A0
:105340000446000AFFF7C4FFE4B201FA04F20121A7
:105350008368A1409B68BDE81040184708B501214B
:1053600040F20310FFF7EBFF4FF47A70FFF7C2FA39
:105370000022014B1A7008BD4513002038B50446C1
:105380004FF6FF7534F8040BA8420AD014F8021C3B
:10539000FFF7B6FF14F8011C34F8040CFFF7CFFF39
:1053A000F0E738BD094A137983420DD9916821FA93
:1053B00000F3DB0708D4012383400B439360136899
:1053C0000C2202FB003070470020704728090020A3
:1053D00010B50C46FFF7E6FF20B1034B0460836075
:1053E0001023436010BD00BFF4C6000807B502A833
:1053F00000F8011D0121FEF721FD002003B05DF83A
:1054000004FB10B51446084691B2FEF717FD20467E
:1054100010BD0000037C70B58B4247D0244B017453
:105420001C68002C42D0002940D0FEF79BFD0223CF
:1054300094F8605084F860300123EDB29D42E3653A
:1054400030D1261D3046FEF791FE1420194AE36A3A
:1054500011689D400D431560174A314600FB03203B
:10546000FEF7ACFEA36A03B1FEE7FEF7C7FD134BE0
:10547000E26A1B68DB6A9A4214D9114B114A196817
:105480001160114A12682AB11A6822F47F021A6068
:105490001A681A604FF080520C4B1A60BFF34F8F9E
:1054A000BFF36F8FBDE87040FEF750BD70BD00BF09
:1054B0009411002064130020A811002098110020EE
:1054C00020ED00E03C1300204813002004ED00E034
:1054D00007B50D4E002534685CB92DB94FF0FF3289
:1054E00001A92846FEF77AFF42F21070FFF702FA90
:1054F000F0E7237C2BB123681BB1606898472074C8
:105500000543A468E8E700BF9011002090B1421C59
:1055100012D0831C12D0012812D0022812D00328E6
:1055200012D0042812D00A4B0A4A05280CBF18468C
:105530001046704708487047084870470848704749
:10554000084870470848704708487047084870473F
:1055500007C800082FC80008C2C70008C5C7000850
:10556000CDC70008DCC70008EAC70008F8C7000874
:1055700020C8000808B5EFF311832BB1EFF30582C3
:105580002AB1FEF79BFDFEE7FEF798FDFEE70E4B06
:1055900019681A60A1B10D4B0D4A196811600D4AC6
:1055A00012682AB11A6822F47F021A601A681A6017
:1055B0004FF08052084B1A60BFF34F8FBFF36F8FCD
:1055C000BDE80840FEF7C2BC3816002020ED00E020
:1055D0003C1300204813002004ED00E0F8B5044619
:1055E000C56F0021E889FFF7AAFE0120FFF782F9C5
:1055F000E36F00219889FFF7A2FE0120FFF77AF9F7
:10560000297CA889FFF77CFE0120FFF773F9297C2C
:10561000E889FFF775FE0120FFF76CF9E06F10B91C
:10562000FEF74CFDFEE723785A1E012A04D9052B0C
:1056300002D0FEF743FDFEE7FEF794FC277860609A
:10564000012FA56F39D18A239A22C4E91A32654BFA
:105650009C4232D1644E22463369644943F40013BC
:1056600033610023206F3361FEF734FD10B1FEF784
:1056700025FDFEE722465E49606FFEF72BFD10B167
:10568000FEF71CFDFEE7C0224FF00041F36943F432
:105690000013F361574B83F81F23C3F8801119607F
:1056A00083F82023C3F884715F60A36E43F44053F2
:1056B000A366E36E43F44053E366236F60685A6861
:1056C00005F110039360626F4B49526893604FF489
:1056D000004300222B604FF410632A606B60436824
:1056E0005E1E8E4202D9FEF7E9FCFEE7A16F067A44
:1056F0004F6827F03F073F043F0C4F604F6847F06B
:1057000024074F603D4FBB421ED8012E02D0FEF74A
:10571000D5FCFEE73A4E5B0096FBF3F203FB126307
:1057200013B1FEF7CBFCFEE792B2032A02D8FEF7D4
:10573000C5FCFEE72526B2F5805FC2F30B030E62BF
:105740001ED3FEF7BBFCFEE72E4FBB423EDCB21E73
:10575000012A02D9FEF7B2FCFEE7022E284F27D11C
:1057600003EB430397FBF3F203FB127313B1FEF752
:10577000A5FCFEE792B213430B2243F400430A62F6
:10578000CB6102780B68022A9BB221D0032A25D074
:10579000012A02D123F00A039BB20B602B6843F06D
:1057A00001032B6002232370BDE8F840FFF7E2BE3F
:1057B0001926734397FBF3F203FB127313B1FEF741
:1057C0007DFCFEE792B24FF48043D4E71346D7E75F
:1057D00023F008039BB243F00203DEE743F00A0321
:1057E000DBE700BF3409002000100240F963000825
:1057F000AF63000800E100E0FF083D00A086010063
:1058000000512502801A06000C4B10B51B7803B915
:1058100099B10B4C22788A420FD0FEF785FB094BD9
:105820001A6C39B142F400721A642170BDE810405C
:10583000FEF76EBB22F40072F6E710BD00080020F0
:1058400011090020005C0040022930B506D0032970
:1058500006D001292A4818BF002030BD2948FCE79E
:10586000022A03D8284800EBC200F6E7032A44D1F5
:1058700026490B780BB12648EFE784201C460870B8
:105880004A709A0802F10052A2F618021278C3F385
:1058900040008000024102F00F02092A03F10203D6
:1058A00094BF30325732CA54302B01EB030254708C
:1058B000E7D100202D2381F833400446134A154DCB
:1058C00081F8323043191B7C01301909092903F092
:1058D0000F0394BF30315731092B94BF3033573306
:1058E000142882F8341082F8363082F8354082F875
:1058F000374002F10402E5D1BDE70020ADE700BF6B
:1059000094CE000848CE000844CF000821120020A1
:105910005CCF0008C0CF0008014B1868FEF7F8BA4A
:105920005813002008B5FEF7FFFA014B186008BDB8
:105930005813002008B58047BDE80840FFF7CABAF1
:10594000024AD36843F08003D360704700480040A8
:10595000044B5A6818B142F080625A60704722F0D6
:105960008062FAE70010024070B5344B027E0320DB
:1059700053F822400C43FFF7ABFC8368E2B29B680C
:105980004FF0FF31984784F48071C1F300214FF448
:105990008470FFF7D4FCC4F34020FFF7D9FF14F460
:1059A000806318BF642314F4006418BFC8241C4427
:1059B000234B1C60234B1C6804B9FEE7224D2B6867
:1059C0009C423AD0FEF7CEFA6269204B9A4230D11F
:1059D000A36A1F4A93422CD05BBB261D3046FEF7BC
:1059E000C5FB01231B49E26A086893400343142066
:1059F0000B60194B314600FB0230FEF7DFFB2B68D2
:105A0000E26ADB6A9A4214D3144B154A1968116092
:105A1000144A12682AB11A6822F47F021A601A68BE
:105A20001A604FF08052104B1A60BFF34F8FBFF3D4
:105A30006F8FBDE87040FEF789BA70BD34BD0008B5
:105A4000881100208C110020981100200C160020D5
:105A5000EC15002064130020A811002020ED00E0C8
:105A60003C1300204813002004ED00E020B1002189
:105A70004FF48270FFF763BC0121F9E7BFF34F8F4A
:105A80000549064BCA6802F4E0621343CB60BFF3DA
:105A90004F8F00BFFDE700BF00ED00E00400FA05F6
:105AA00003681B7E43FA01F111F0010F14BF0220BD
:105AB0000620704708B510B9FEF700FBFEE74FF06F
:105AC000FF31BDE808400068FFF736B8F0B5074D74
:105AD0002B780D2B08D80C245C43054F01333E195D
:105AE000C6E9011238512B70F0BD00BF100900202B
:105AF0005C08002070B503783BB32D2B23D1012423
:105B000025460444002017E0A2F13003DBB2092B44
:105B100000FB01F688BF4FF0FF3002F0DF0298BFB4
:105B200058B2A2F14103192B9CBF373A50B28842B8
:105B30000BDA431C06D0304414F8012B002AE3D1C1
:105B400005B1404270BD0024DAE74FF0FF30F9E7BD
:105B5000036810B51B68044613B9FEF7AFFAFEE7F9
:105B6000D8684FF0FF31FEF7E7FF23681C680CB1DF
:105B7000586810B9FEF7A2FAFEE7FEF7F3F92378AA
:105B80005A1E012A02D9FEF799FAFEE7012B60603E
:105B900021D1254B9C4216D122462449606EFEF746
:105BA00099FA10B1FEF78AFAFEE722462049A06E64
:105BB000FEF790FA10B1FEF781FAFEE71D4A9369ED
:105BC00043F480539361636E5A68236E0C33936081
:105BD000A26E526893606068E26E418922F470623E
:105BE00011F4006F16BF42F4A062E266E2664FF065
:105BF0000002236F41F4417123F4706318BF43F432
:105C0000A0632367236E1A608289196042F007023D
:105C10005A601A6842F040021A6002232370BDE8FD
:105C20001040FFF7A7BC00BFD00E00203B63000868
:105C30002D63000800100240D0E903239A421FBFE1
:105C40004268D25C0133036114BF10466FF001005B
:105C50007047D0E902239A421FBF4268D154C368FB
:105C600001331ABFC36000206FF00100704770B5A8
:105C700000F10B042346B1FBF2F602FB161101F111
:105C80003005392DC8BF01F1370503F8015D3146F4
:105C9000002EF0D1E21A411E9C1813F8015B9C42C1
:105CA00001F8015FF9D1104470BD00002DE9F04FFB
:105CB0000B46804615464FF0000987B019785E1CE8
:105CC000002900F00981252907D0D8F80030404686
:105CD0009B68984709F10109C6E05A784FF0000B1C
:105CE0002D2A08BF9E1C37780CBF01230023302FBC
:105CF00018BF2027019308BF013616F8012BA2F127
:105D00003001C9B2092903D92A2A05D129780435D5
:105D10000A2303FB0B1BF0E72E2A4FF000010ED1E4
:105D200016F8012BA2F13000C0B2092803D92A2AA3
:105D300005D1287804350A2303FB0101F0E702F0BE
:105D4000DF004C2810D1307808B102460136632AB2
:105D500025D000F29C804F2A72D000F29180442A14
:105D60002CD0492A0ED129E0A2F14100632AC0B209
:105D700015D00CD84F2A63D000F28280442A18D064
:105D8000492A16D006AC04F80C2DAA460EE06F2A5C
:105D900056D000F28380642A0BD0692AF1E72027CD
:105DA0002A6806AC05F1040A04F80C2D0DF10D006B
:105DB00016E0AA4619285AF8041B02D8296805F1EA
:105DC000040A0029BCBF2D228DF80C204FF00A02D6
:105DD000BABF49420DF10D0003A8FFF748FF03AC1D
:105DE000051B0199ABEB050323EAE37200293DD1C2
:105DF000002BC2F1000B1BDD21782D290CD1302F97
:105E00000AD1D8F8003040469B6801929847019A21
:105E1000013D09F101090134D8F8003039469B6889
:105E20004046019298471BF1010B019AF4D191442D
:105E30002B4610E00A2205F1040A296803A8CCE7E2
:105E40000822F8E7D8F8002014F8011B92684046B1
:105E500001939047019B013BF4D5002DA8BFA944B5
:105E60005C462CB95546D944334627E79346DFE7CD
:105E7000D8F8003039469B6840469847013CF0E727
:105E8000552AD7D0582A7FF47DAF1022D3E76F2A46
:105E9000D6D003D8642A91D0692A63E7752AC9D07D
:105EA000782AF2D0732A7FF46DAF2C680C4B47F63A
:105EB000FF72002C08BF1C46002908BF114622466D
:105EC00005F1040A214410460578013215B18D1AF6
:105ED000002DF8DA202783E7484607B0BDE8F08FA9
:105EE0006EBD0008F8B500EB8103DE68336803F08F
:105EF0000303022B06D0032B23D0012B1ED1FEF768
:105F0000DDF8FEE70022344B0F011C6D736904F1CC
:105F1000804404F5C0443D19D3B100236B60338A3B
:105F2000D0F884C0013323F001036344B3F5007F4C
:105F3000C0F8843008D9FEF7C1F8FEE74FF40072CC
:105F4000E1E74FF4C062DEE747F804C042F0200208
:105F5000B36933B3748A3E2C04F1FF3316D943F08E
:105F60001F0301331D4E5B1146EA83239BB2EB6096
:105F7000D0F88430013424F001041C44B4F5007FCF
:105F8000C0F884400AD9FEF799F8FEE7022643F0EC
:105F90000103013393FBF6F39B02E7E7AB6042F4A6
:105FA000005248F2800042EA010323F4784389005A
:105FB00023F0F00301F1804101F5B841034322F4DD
:105FC000F1620B6022F007020B685204520C5A4037
:105FD00002430A60F8BD00BF005C00400080FFFF84
:105FE000022370B580220025154C29462370154BDD
:105FF000E56784F86450A560C4E90455C4E9065512
:10600000C4E90855A5621D655D64DA6462682046CE
:10601000D268AA420CBF4FF41C424FF41E421A64CD
:106020004023C4F88430084BE360FFF75BFF6368EC
:106030001B6823B129462046BDE87040184770BD53
:10604000440F0020005C004088C600080D4B000192
:106050001B6D10B503F1804303F5C043C418C3584A
:10606000114403F1005303F540535B006260002AC2
:10607000A1EB020000DC10BD0088023A1860043376
:10608000F5E700BF005C00402DE9F84F914D6C6CC6
:10609000660504D56FF480636B64FFF7A1FF2005EC
:1060A00011D52B6C8C4843F008032B646FF400630C
:1060B0006B64037880F880300523037043681B68A5
:1060C0000BB104219847E10414D5824B9A6C120459
:1060D0000CD41A6C804822F008021A6490F88030C0
:1060E000037043681B680BB1052198476FF4805219
:1060F000784B5A64A30508D577484368DB6803B139
:1061000098476FF40072734B5A64734EA9E004F021
:106110000F04A50005F1804505F5B845D5F80090B8
:10612000A71C06EB870319F0800FD3F8048028D052
:106130002A68D8F8143022F4784222F0F00242F4AF
:1061400000422A60D9685A6818680A44801A5A605E
:106150002DD0B8F81020824228BF0246986801442A
:10616000C3E902122046FFF771FF2B6823F4F043C6
:1061700023F0400383F0300343F4004343F08003F3
:106180002B6019F4004F6AD02B6819F4006F23F4C8
:10619000784323F0F00343F080032B60E1B215D085
:1061A00006EB87077B685B683046984757E001231A
:1061B00003FA04F2338923EA02033381D8F8083062
:1061C000002BDED0214630469847DAE7414BD8F81D
:1061D00018201B6DD2F808B003F1804303F5C043CB
:1061E00003EB04139868DB6800F1005000F54050A1
:1061F0004000C3F30903DC4682469946B9F1010F1A
:106200000CF1020C4CD86FF0010E4FEA530C0EFB50
:106210000C3EBEF1000F03D050F82C000BF81C0010
:106220009068184490605068184450601068C01A14
:1062300010609089013880B29081B8F812209A429B
:1062400001D8002839D10123A340748906EB8707C0
:1062500024EA03047B687481DB68002BA4D11D4B06
:106260005C6C14F400417FF452AF1C4B1A68196047
:10627000A2B11B4B1B4A196811601B4A12682AB154
:106280001A6822F47F021A601A681A604FF080526E
:10629000164B1A60BFF34F8FBFF36F8FBDE8F88FB7
:1062A000DAF800E0A9F102090CF802EC4FEA1E2E20
:1062B0000CF801EC0AF1040AA0E72B6823F49043E0
:1062C00023F0700383F4405343F4004343F080030E
:1062D0002B60C4E7005C0040440F0020381600200B
:1062E00020ED00E03C1300204813002004ED00E006
:1062F0000A4B0B4A196811600A4A12682AB11A68D7
:1063000022F47F021A601A681A604FF08052064B1E
:106310001A60BFF34F8FBFF36F8F704720ED00E01F
:106320003C1300204813002004ED00E008B50B07E3
:1063300002D5FDF7C3FEFEE708BD38B50B070446DE
:1063400002D5FDF7BBFEFEE7836E59680A6822F0AE
:106350000F020A601A7C19680E2303FA02F24A60DF
:10636000426E5568296821F00F0129601168127C7E
:1063700093404B6043681B682BB10422027098471E
:106380002378042B01D102232370FFF7CBFAEFF31C
:1063900011832BB1A06830B9BDE83840FFF7BCBA13
:1063A000FDF78CFEFEE70021FDF714FFF4E708B5CA
:1063B0000B0702D5FDF782FEFEE7D0E91D315868D4
:1063C000026822F00F020260187C1A680E238340D4
:1063D00053604B6843F400734B6008BD08B5EFF39E
:1063E000118313B1006818B908BDFDF767FEFEE719
:1063F000BDE80840FDF7EEBE11F0080138B50446CF
:1064000002D0FDF75BFEFEE7026F836F55682868D8
:1064100020F00F002860157C10680E22AA40426010
:106420005A6822F480525A601A6822F480621A6014
:106430001A6842F400721A60FFF774FA04F16000FF
:10644000FFF7CCFFBDE83840FFF766BAF8B5344B2C
:10645000996F4C6904F45F40C0434861586FA2B221
:106460004668356825F00F053560057C06680E2006
:1064700000FA05F575601D6F6F683E6826F00F061F
:106480003E602E682D7CA8407060D3F880000130FB
:10649000C3F8800012F4807018BF0120970598603F
:1064A00042BF986840F00200986056050BD54D68D1
:1064B000986825F400754D600D6840F0040045F4BF
:1064C00000750D609860150542BF996841F008019C
:1064D0009960500442BF996841F020019960D1044D
:1064E00042BF9A6842F010029A60220442BF9A6842
:1064F00042F040029A609B6843B1FFF713FA6FF0D5
:1065000001010848FFF76AFFFFF706FA0021064B72
:106510001A6819601AB1BDE8F840FFF7E9BEF8BD86
:1065200034090020940900203816002070B54D4D24
:10653000AC6FD5F88020A3696669013216F4807FBC
:10654000C5F88020294601D11D2A1CD9636923F48E
:1065500080736361636823F40073636001238B605D
:10656000FFF7E0F96FF001013F48FFF737FFFFF752
:10657000D3F900213D4B1A681960002A70D0BDE89C
:106580007040FFF7B5BE46EA0343394A23F07F4324
:1065900093422ED00AD8073A93421DD0013293423B
:1065A0002CD016F00A0F18BFA369E2E7314A9342D4
:1065B0003AD002329342F4D12B6F5B6859680029BC
:1065C0003DD0B5F8643043F00103A5F8643023688A
:1065D00043F4A0632360CCE7B5F864301A0A06D010
:1065E00003F0010343F0F00302F0060213432361BA
:1065F000D7E7B5F86430C3F34703F8E7636823F4DB
:10660000007363602B6F5B681A6842F001021A60C6
:10661000626842F4805262605B68012BC1D82368D3
:1066200023F480632360BCE7636823F40073636032
:106630006B6F5A68136843F001031360B1E7636836
:1066400023F400736360236843F400732360FFF74F
:1066500069F905F16000FFF7C1FEFFF75DF9A0E7FA
:1066600070BD00BF340900209409002038160020B6
:10667000080003008200070070B510B9FDF71EFD89
:10668000FEE70125154A467C136805FA06F1194212
:1066900002D1FDF713FDFEE723EA010381681360D1
:1066A00013EA01040BD1827C02F01F018D405009D6
:1066B0000B49203041F82050114481F8004300215B
:1066C000084A5B0642F8361002EBC602516001BF71
:1066D000054A536923F00103536170BD3410002053
:1066E00000E100E0D80F00200010024008B50D4B7B
:1066F0000D4A19681268090E01F00E010A4206D00F
:106700000A065A60094A136B0BB1506B9847002177
:10671000074B1A6819601AB1BDE80840FFF7E8BDD9
:1067200008BD00BF0000024080000240D80F0020DA
:106730003816002008B50D4B0D4A19681268090D6E
:1067400001F00E010A4206D00A055A60094A936A0E
:106750000BB1D06A98470021074B1A6819601AB12B
:10676000BDE80840FFF7C4BD08BD00BF00000240FF
:106770006C000240D80F00203816002008B50D4BE1
:106780000D4A19681268090C01F00E010A4206D080
:106790000A045A60094A136A0BB1506A98470021EB
:1067A000074B1A6819601AB1BDE80840FFF7A0BD91
:1067B00008BD00BF0000024058000240D80F002072
:1067C0003816002008B50D4B0D4A19681268090BE0
:1067D00001F00E010A4206D00A035A60094A936981
:1067E0000BB1D06998470021074B1A6819601AB19C
:1067F000BDE80840FFF77CBD08BD00BF00000240B7
:1068000044000240D80F00203816002008B50D4B78
:106810000D4A19681268090A01F00E010A4206D0F1
:106820000A025A60094A13690BB15069984700215E
:10683000074B1A6819601AB1BDE80840FFF758BD48
:1068400008BD00BF0000024030000240D80F002009
:106850003816002008B50D4B0D4A19681268090951
:1068600001F00E010A4206D00A015A60094A9368F3
:106870000BB1D06898470021074B1A6819601AB10C
:10688000BDE80840FFF734BD08BD00BF000002406E
:106890001C000240D80F00203816002008B50C4B11
:1068A0000C4A1968126801F00E010A4205D00A4A22
:1068B000596013680BB1506898470021074B1A685C
:1068C00019601AB1BDE80840FFF712BD08BD00BF4E
:1068D0000000024008000240D80F002038160020B7
:1068E000F8B50C461146EFF311821AB128B9FDF73D
:1068F000E5FBFEE7FDF7E2FBFEE7072CF7D80125F5
:106900000689A540ADB216EA050702D0FDF7D6FB11
:10691000FEE73543058100EB8400C2685069128AA6
:10692000C0E900379A4228BF1A468160C2602046FB
:10693000A40004F1804404F5B844FFF787FB236802
:1069400023F4F04323F0400383F0300343F4004387
:1069500043F080032360F8BD10B590F8643004461E
:10696000062B3FD8DFE803F01E1E1E13041E210075
:10697000052380F86430FEF7D5FF002320461A4631
:106980001946FFF7ADFFBDE81040FEF7C5BFC3686D
:106990009B695B682BB9036F03B19847002384F8A8
:1069A000643010BDFDF78AFBFEE748F280000F4916
:1069B0000B6823F4F04323F0400383F010020243FA
:1069C0000A600B6823F4904323F0700383F4805330
:1069D00003430B6063681B6813B106212046984788
:1069E0000623DCE7FDF76AFBFEE700BF005C004022
:1069F000F8B5EFF311841CB128B9FDF75FFBFEE792
:106A0000FDF75CFBFEE70729F7D80126448906FA63
:106A100001F5ADB214EA050702D0FDF74FFBFEE722
:106A20002C43448100EB8100C468A0698260C0E906
:106A3000003793B98681890001F1804101F5B841A1
:106A40000B6823F4904323F0700383F4405343F422
:106A5000004343F080030B60F8BD628A013B13449E
:106A6000B3FBF2F38381E6E710B590F86430044697
:106A7000062B56D8DFE803F03504213535303800D1
:106A800090F87B1090F87A20C36E42EA012293427C
:106A900013D2C268128AB3FBF2F102FB113161B961
:106AA000FEF740FF20460B460A46FFF719FFFEF7A8
:106AB00033FF022384F8643010BD032384F864306C
:106AC000FEF730FF002320461A461946FFF790FFD5
:106AD000BDE81040FEF720BF036F03B198470023C5
:106AE000E8E7FDF7EBFAFEE748F280000E490B6895
:106AF00023F4F04323F0400383F0100202430A60C2
:106B00000B6823F4904323F0700383F48053034312
:106B10000B6063681B6813B1062120469847062363
:106B2000C8E7FDF7CBFAFEE7005C0040002370B534
:106B3000044680F86430C04B00F174021B6D03F111
:106B4000804303F5C04303EB01118B6803F100534D
:106B500003F540535B0003F11001186804338B42C6
:106B600022F8020BF9D163689B68002B38D194F8A6
:106B7000743013F0600514D194F8752003F07F038E
:106B800043EA0223B3F5407F00F0B08077D8022BB0
:106B900000F028814AD8002B00F09280012B00F0F1
:106BA0001B8148F28000A4490B6823F4F04323F0D2
:106BB000400383F0100202430A600B6823F4904301
:106BC00023F0700383F4805303430B6063681B68F6
:106BD00013B1062120469847062384F8643070BD1F
:106BE000204698470028C2D094F87B2094F87A3049
:106BF00043EA0223E26E9A4288BFE36694F9743056
:106C0000E16E002B80F24F81002900F040810123CA
:106C100084F86430FEF786FED4E91A23002120466A
:106C2000FFF75EFEBDE87040FEF776BEB3F5807FED
:106C30004DD0B3F5817FB4D194F87630002BB0D12C
:106C400094F8782012F00F0300F0C2809B0003F14B
:106C5000804312F0800F03F5B8431A6800F0DC801F
:106C600002F03002302A00F0B3801A6822F4F042B9
:106C700022F0400282F0200242F40042D8E0B3F554
:106C8000C06F3DD00BD840F20232934200F0DE805C
:106C9000B3F5A06F85D1C4E91A55684B15E0B3F57B
:106CA000106F43D040F60242934200F09580B3F556
:106CB000006F7FF476AF04F17F03A366012333E016
:106CC00004F17C02A2660222E26623678CE794F854
:106CD0007630012B7FF465AFB4F87C3023F00203EB
:106CE000C4E91A55A4F87C3025677DE794F876301E
:106CF000012B7FF456AFB4F87C3043F00203EFE78A
:106D000094F87920616894F878304E6843EA022359
:106D100094F8771094F876202046B04700283FF486
:106D200040AF4368A3660368E366DDE794F87F201D
:106D300094F876309A424BD02378042B3BD1FEF75F
:106D4000F1FDEFF3118313B9FDF7B8F9FEE72378EE
:106D5000042B02D0FDF7B2F9FEE72389012203F0EC
:106D600001032381638948F2800003F001036381FA
:106D70000023C4E90433C4E90633C4E90833A36239
:106D80004023C4F88430930003F1804303F5B843F3
:106D9000196801320143082A19601860F3D1FEF71F
:106DA000BBFD0023032184F87F30636821701B68DA
:106DB0000BB12046984794F876304BB184F87F3079
:106DC0000423237063681B6813B10221204698478F
:106DD0000023C4E91A3378E7194BA3660223E3665C
:106DE000002372E794F8783003F00F0213F0800F5D
:106DF000114B53F8223008D013F030033FF4D1AEDA
:106E0000102B14BF0F4B104BE7E713F440533FF424
:106E1000C8AEB3F5805FF4E702F44052B2F5405FCC
:106E2000D6D01A6822F4F04222F0400242F4204206
:106E300042F080021A60CBE7005C0040C96E000897
:106E4000BCCF000831BD000885C7000894F8763033
:106E5000002B7FF4A6AE94F8782012F00F03B7D081
:106E60009B0003F1804303F5B84312F0800F1A68CA
:106E700015BF22F4F04222F4904222F0400222F0A8
:106E8000700214BF82F0100282F48052F4E60323F1
:106E900084F86430FEF746FD0B460A460021204682
:106EA000FFF7A6FDBEE639B1042384F86430FEF78F
:106EB00039FDD4E91A23F1E7052384F86430FEF79D
:106EC00031FD0B460A46A9E690F87630074A80F86D
:106ED0007E3043F0800310B5D364436804461B68DA
:106EE0000BB1012198470323237010BD005C0040C3
:106EF00070B50D46164610B9FDF7E0F8FEE7FDF750
:106F000031F80378022B02D0FDF7D8F8FEE743688A
:106F10001B6813B1FDF7D2F8FEE703230370436E3D
:106F20000E4A5C68C36EE66043F0800365602360D0
:106F3000836E08305B68DA60826E5D601A6022687A
:106F400042F0010222601A6842F001021A60FDF765
:106F5000EDFABDE87040FEF70DBB00BF84C6000827
:106F60007047000090F8743003F06003202B07D1C5
:106F700090F87530202B03D3212B03D9222B09D075
:106F800000207047054B83660723C3660023036711
:106F9000012070470023C0E91A33F8E750080020A9
:106FA00038B5D0F89044014620680378042B1ED1F0
:106FB0000B7D022B1BD101232279458903FA02F2B2
:106FC0002A4214D1EFF3118272B1D1E90925AA4204
:106FD00001D1096A59B9043209D04FF4807361793B
:106FE000FFF706FD002038BDFDF768F8FEE7012039
:106FF000F9E7006BFFF7D4BF113110B550F821400D
:10700000002C3DD0FEF78EFC04216018FDF76EF9D0
:10701000D4F890241368527903EB8203DB689B69F0
:107020005A68EFF311831BB12AB9FDF747F8FEE761
:10703000FDF744F8FEE7236B043B9A42F5D8D4E908
:1070400009318B4204D1216A11B1FDF737F8FEE70F
:107050001A60226A01322262226B1344E26A63627E
:1070600093420AD204F11800FDF726F92046FFF7F3
:1070700097FFBDE81040FEF74FBCA36B6362F1E7DA
:1070800010BD000008B5EFF311832BB1EFF30582BB
:107090002AB1FDF713F8FEE7FDF710F8FEE70D4BF8
:1070A00019681A60A1B10C4B0C4A196811600C4A9E
:1070B00012682AB11A6822F47F021A601A681A60EC
:1070C0004FF08052074B1A60BFF34F8FBFF36F8FA3
:1070D00008BD00BF3816002020ED00E03C13002062
:1070E0004813002004ED00E008B510B9FCF7E6FFF6
:1070F000FEE74FF0FF31BDE80840C068FDF71CBD5A
:1071000070B5044610B9FCF7D9FFFEE7FCF72AFF7B
:1071100003785A1E012A04D9052B04D0FCF7CEFFB0
:10712000FEE7012B36D04FF400420025A36F606FBD
:107130001A6042681D605D605D611368016823F03C
:107140000F0313600E23027C03FA02F24A60226FDF
:107150005668316821F00F0131601168127C93404C
:107160004B60FFF789FA206FFFF786FA0D4B9C42C0
:1071700010D14FF000420C4BC3F88020012283F85D
:107180001F53C3F88420094A83F82053D36923F49A
:107190000013D3610023636001232370BDE87040B6
:1071A000FEF7E8B93409002000E100E000100240D9
:1071B000F8B50446FFF7A4FFE36F01219889FEF7B5
:1071C000BEF8E36F0121D889FEF7B9F8E56F072112
:1071D000E889FEF795F80721A889FEF791F80120C4
:1071E000FDF788FB20270026E36F00219889FEF732
:1071F000A6F80120FDF77EFBE36F9889FEF78CF877
:10720000002846D1E36F01219889FEF798F8012004
:10721000FDF770FB6525E36F9889FEF77DF840B3B5
:10722000E36FD889FEF778F860B3E36F0021D8895F
:10723000FEF785F80120FDF75DFBE36FD889FEF7C7
:107240006BF8054638BBE36F9889FEF765F820B305
:10725000E36F0121D8890136FEF771F8F6B20120FB
:10726000FDF748FB082E0ED92046FEF7B7F9284651
:10727000F8BD0120013DFDF73DFB15F0FF05CAD12A
:107280000125F1E70646013F17F0FF07ACD10225C3
:10729000EAE70325E8E70425E6E70525E4E700003B
:1072A0002DE9F74F044689461E46154612B9FCF7EC
:1072B00005FFFEE74FF00008234FD0F818A0FCF7B9
:1072C00051FEFCF7CFFD3B6806F1FF3BF31800933E
:1072D00063680BB36368013B636009F101030193C9
:1072E00023695A1C226199F800201A70D4E90332EC
:1072F0009A4224BFA3682361BAF1000F01D020464F
:10730000D047FEF737F9013D08F1010817D0FCF727
:1073100029FEDDF80490DBE71BF1030F06D93146A7
:107320002046FDF7D5F80028D2D006E0FCF79AFDFC
:107330003968009B591A8E42F2D2FEF71BF940467B
:1073400003B0BDE8F08F00BF341600203830FFF7DF
:10735000A7BF4FF0FF333830FFF7A2BF70B5044628
:107360000D461646FCF7FEFD6368A3B16368013B5A
:10737000636023695A1C22611D70D4E903329A426A
:1073800024BFA3682361A3690BB120469847FEF789
:10739000F1F8002007E031462046FDF799F8002873
:1073A000E2DAFEF7E7F870BD3830FFF7D7BF4FF0ED
:1073B000FF323830FFF7D2BF2DE9F74F0446894638
:1073C0001E46154612B9FCF779FEFEE74FF000089D
:1073D000234FD0F818A0FCF7C5FDFCF743FD3B6830
:1073E00006F1FF3BF318009363680BB36368013B3E
:1073F000636063695A1C62611B7809F1010289F8B4
:107400000030E368019262699A4224BFA368636115
:10741000BAF1000F01D02046D047FEF7ABF8013D8E
:1074200008F1010817D0FCF79DFDDDF80490DBE7BB
:107430001BF1030F06D931462046FDF749F8002815
:10744000D2D006E0FCF70EFD3968009B591A8E4237
:10745000F2D2FEF78FF8404603B0BDE8F08F00BFD0
:10746000341600201830FFF7A7BF4FF0FF33183055
:10747000FFF7A2BF38B504460D46FCF773FD6368FD
:107480009BB163686269013B6360531C636115785B
:10749000E268934224BFA3686361A3690BB12046ED
:1074A0009847FEF767F8284607E029462046FDF78B
:1074B0000FF80028E3DAFEF75DF838BD1830FFF763
:1074C000D9BF4FF0FF311830FFF7D4BF10B5EFF33D
:1074D00011832BB1EFF305832BB1FCF7EFFDFEE732
:1074E000FCF7ECFDFEE719B18369043B8B4202D245
:1074F000FCF7E4FDFEE7836813B9FCF7DFFDFEE768
:10750000C36819608268013A8260826913444269E3
:10751000C360934224BF036AC36000234362C36A0B
:1075200013B1BDE81040184710BD38B504460D46EC
:10753000EFF311832BB1EFF305836BB1FCF7BEFDC5
:10754000FEE7FCF7BBFDFEE72379ABB929462046F1
:10755000FCF7BEFF00280EDBA368002BF4D0A36865
:1075600013B9FCF7ABFDFEE70020E3681A1D626269
:10757000A2691344A36238BD6FF00100FBE738B580
:1075800004460D461046FCF7EDFC636A3BB9014624
:107590002046FFF7CAFF10B1FDF7ECFF38BD636A64
:1075A0001D70636AA26A01339342636204D3A169C6
:1075B00020460439FFF78AFFFDF7DCFF0020EDE7E6
:1075C00070B50446D0F890040D468368164613B192
:1075D0000121006898473246294604F14C00BDE875
:1075E0007040FFF7CCBFD0F8902438B593680446BC
:1075F0000D4613B1012110689847294604F14C004B
:107600004FF0FF32BDE83840FFF7B9BF08B5EFF3E0
:10761000118353B1D0E903239A4201D182683AB968
:10762000184650F8043B0B6008BDFCF747FDFEE729
:107630000020F9E713B5284CFEF774F9D4F890143C
:1076400008680378042B38D1237D022B35D1012320
:107650000A799340028913422FD1EFF3118313B3B8
:10766000D4E91632934230D1626D002A2DD0226FB8
:107670005AB3043AD21A28D01A60626D01A9013AAD
:107680006265626E15481344226EA365934224BF5F
:10769000E36EA36500232367FFF7B8FF024628B90E
:1076A000FCF70CFDFEE7FCF709FDFEE7D4F890447B
:1076B000019B21792068FFF713F9094A1368013308
:1076C0001360FEF729F902B010BD8B68002BF4D0CF
:1076D00000219847F1E700BF3C0A0020880A0020FB
:1076E000B812002013B5046BD4F890341A681178DE
:1076F000042916D1217D022913D119790123128978
:107700008B4013420DD101A904F14C00FFF77EFF1D
:10771000024630B1D4F89044019B21792068FFF7EC
:10772000DFF802B010BD00EB81032DE9F3419C6A44
:1077300005460E46002C35D0FEF7F4F805EB86071B
:107740000821201DFCF7D2FDFB6804F14C085B69A1
:107750001B68D3B1EFF3118343B1D4E916239A42E6
:1077600007D1626D2AB1FCF7A9FCFEE7FCF7A6FC85
:10777000FEE7626D01326265626E1344226EE3655C
:10778000934212D24046FCF797FD01A94046FFF70D
:107790003DFF024660B1019B31462846FFF7A0F845
:1077A000FEF7BAF802B0BDE8F081E36EE365E9E701
:1077B000FB685A69126832B11B8A013B134002D13F
:1077C00005F17402E8E7D4F890249368002BE7D021
:1077D000012110689847E3E710B5EFF311832BB14F
:1077E000EFF305832BB1FCF769FCFEE7FCF766FCC1
:1077F000FEE7836813B9FCF761FCFEE783688269E2
:10780000013B83600369134442690361934224BFCF
:10781000036A036100234362C36A13B1BDE81040E9
:10782000184710BD38B504460D46EFF311832BB150
:10783000EFF305836BB1FCF741FCFEE7FCF73EFC80
:10784000FEE72379ABB929462046FCF741FE002824
:107850000EDBA368002BF4D0A36813B9FCF72EFC51
:10786000FEE700202269131D126863621344A362BD
:1078700038BD6FF00100FBE738B504460846FCF759
:1078800071FB636A4BB901462046FFF7CBFF054603
:1078900018B1FDF76FFE284638BD636AA26A13F877
:1078A000015B93426362F4D32046FFF795FFF0E754
:1078B0001830FFF7E1BF4FF0FF311830FFF7DCBFA2
:1078C00010B500B9FEE7FCF74DFBD0E90F34634378
:1078D0000268D1181B1B13444160C3600021FF23C1
:1078E00082604FF0FF32816380F8443080F8453089
:1078F00000F11803C0E906234361036200F12C0381
:107900000161C0E90A32C0E90C334162FCF71EFB99
:10791000012010BD10B5FCF725FB174B1A78022A81
:1079200002D0FCF7CBFBFEE75A68126812B1FCF7F5
:10793000C5FBFEE7032204241A705A6E51680F4AF1
:10794000CA60DA6E4C600A609A6E5268D060186F36
:10795000546040F080001060086840F0010008604A
:10796000116803F1080041F001011160FCF7DEFD30
:10797000BDE81040FDF7FEBDD00E002038100020FD
:1079800008B5144B196899B1FCF76CFA124B1A68D8
:107990004FF47A734B4393420AD8104AD36943F0A9
:1079A000C053D36144F24D220D4B9A62FEF766F844
:1079B000FCF7D8FA0B4B1A78022A02D0FCF77EFBB0
:1079C000FEE74AF6AA229B681A60FDF7D3FD012064
:1079D00008BD00BF580800203416002000100240E7
:1079E000006C0040CC0F002037B5540702D0FCF7E4
:1079F00065FBFEE701F132041BB950F82450AA429E
:107A000039D011430B0E8DF804301C4D0B0C8DF842
:107A1000053040F824200B0A8DF806308DF8071049
:107A2000FCF7A0FA2B78022B02D0FCF747FBFEE70D
:107A300001246B685A681B8904FA03F35361FDF74C
:107A400099FD01A8FFF766FFFCF78CFA2B78022B53
:107A500002D0FCF733FBFEE76B685A681B8904FA17
:107A600003F31361FDF786FD00230622934201D044
:107A70000133FBE72346184603B030BDD00E00208B
:107A80004FF6FF72036810B51B89044693420BD072
:107A900000211846FDF753FC2368DB690BB1002079
:107AA00098470023237110BD012320220221FFF7F4
:107AB0009BFFF1E770B5D0F8D040D0F8DC2024F07F
:107AC000E0538C0604F0E0541C4322F480220B07A0
:107AD00048BF42F48022002305210546FFF784FFBA
