:020000040800F2
:1020000000040020612100080D3D00080D3D00087E
:102010000D3D00080D3D00080D3D00080D3D000878
:102020000D3D00080D3D00080D3D0008C9370008B2
:102030000D3D00080D3D0008D1370008CD370008E0
:102040000D3D00080D3D00080D3D00080D3D000848
:102050000D3D00080D3D00080D3D00080D3D000838
:102060000D3D00080D3D00080D3D00084D4E0008D7
:10207000054E0008BD4D0008754D00082D4D0008A7
:10208000E54C00089D4C00080D3D00080D3D000882
:10209000956600080D3D00080D3D00080D3D000847
:1020A0000D3D00080D3D00080D3D00080D3D0008E8
:1020B0000D3D00080D3D00080D3D0008714F000862
:1020C000914E00080D3D00080D3D00080D3D000833
:1020D0000D3D00080D3D00080D3D00084969000850
:1020E0000D3D00080D3D00080D3D00080D3D0008A8
:1020F0000D3D00080D3D00080D3D00080D3D000898
:102100000D3D00080D3D00080D3D00080D3D000887
:102110000D3D00080D3D00080D3D00080D3D000877
:102120000D3D00080D3D00080D3D00080D3D000867
:102130000D3D00080D3D00080D3D00080D3D000857
:102140000D3D00080D3D00080D3D00080D3D000847
:102150000D3D00080D3D00080D3D00080D3D000837
:1021600072B6264880F3098825484EF60851CEF20B
:1021700000010860022080F31488BFF36F8F01F024
:1021800007FE04F0ABF94FF055301E491E4A91424C
:102190003CBF41F8040BFAE71C49184A91423CBF86
:1021A00041F8040BFAE71A491A4A1B4B9A423EBF00
:1021B00051F8040B42F8040BF8E700201749184ABD
:1021C00091423CBF41F8040BFAE701F0C1FD01F078
:1021D000DEFD144C144DAC4203DA54F8041B88475E
:1021E000F9E702F08FFB114C114DAC4203DA54F8C1
:1021F000041B8847F9E701F0C9BD00000008002072
:10220000002000080000002000040020000400203E
:10221000B4C9000800080020240900202809002073
:10222000E8150020602100086021000860210008F6
:10223000602100082A2A2A2A2A2A2A2A2A2A2A2A1D
:102240002A2A2A2A2A2A2A2A2A2A2A2A2A2A2A2AEE
:102250002A2A2A2A2A2A2A2A2A2A2A2A2A2A2A2ADE
:102260002A2A2A2A2A2A2A2A2A2A2A2A2A2A2A2ACE
:102270002A2A2A2A2A2A2A2A2A2A2A2A2A2A2A2ABE
:102280002A2A2A2A2A2A0D0A4672656552544F5371
:10229000204B65726E656C205631302E302E300D1D
:1022A0000A436F7079726967687420284329203265
:1022B00030313720416D617A6F6E2E636F6D2C2047
:1022C000496E632E206F722069747320616666699F
:1022D0006C69617465732E2020416C6C20526967B3
:1022E0006874732052657365727665642E0D0A0DED
:1022F0000A5065726D697373696F6E206973206827
:102300006572656279206772616E7465642C2066FF
:10231000726565206F66206368617267652C207442
:102320006F20616E7920706572736F6E206F6274BA
:1023300061696E696E67206120636F7079206F66D6
:102340000D0A7468697320736F6674776172652013
:10235000616E64206173736F636961746564206486
:102360006F63756D656E746174696F6E2066696CFC
:10237000657320287468652022536F6674776172D4
:102380006522292C20746F206465616C20696E0DB4
:102390000A74686520536F66747761726520776987
:1023A00074686F7574207265737472696374696F91
:1023B0006E2C20696E636C7564696E672077697432
:1023C000686F7574206C696D69746174696F6E20D3
:1023D0007468652072696768747320746F0D0A757C
:1023E00073652C20636F70792C206D6F646966793A
:1023F0002C206D657267652C207075626C6973683E
:102400002C20646973747269627574652C2073750D
:10241000626C6963656E73652C20616E642F6F72E8
:102420002073656C6C20636F70696573206F660D37
:102430000A74686520536F6674776172652C206139
:102440006E6420746F207065726D6974207065729F
:10245000736F6E7320746F2077686F6D207468657A
:1024600020536F6674776172652069732066757298
:102470006E697368656420746F20646F20736F2CBD
:102480000D0A7375626A65637420746F20746865E1
:1024900020666F6C6C6F77696E6720636F6E64691E
:1024A00074696F6E733A0D0A0D0A54686520616293
:1024B0006F766520636F70797269676874206E6FDC
:1024C0007469636520616E64207468697320706547
:1024D000726D697373696F6E206E6F7469636520C6
:1024E0007368616C6C20626520696E636C756465ED
:1024F0006420696E20616C6C0D0A636F706965738E
:10250000206F72207375627374616E7469616C20E0
:10251000706F7274696F6E73206F662074686520C7
:10252000536F6674776172652E20496620796F75E6
:10253000207769736820746F20757365206F7572DA
:1025400020416D617A6F6E0D0A4672656552544F77
:1025500053206E616D652C20706C6561736520641D
:102560006F20736F20696E2061206661697220752B
:10257000736520776179207468617420646F657376
:10258000206E6F7420636175736520636F6E66756E
:1025900073696F6E2E0D0A0D0A54484520534F463D
:1025A00054574152452049532050524F56494445B3
:1025B0004420224153204953222C20574954484F4C
:1025C00055542057415252414E5459204F462041B4
:1025D0004E59204B494E442C204558505245535398
:1025E000204F520D0A494D504C4945442C20494E2C
:1025F000434C5544494E4720425554204E4F542099
:102600004C494D4954454420544F20544845205787
:10261000415252414E54494553204F46204D455258
:102620004348414E544142494C4954592C20464953
:10263000544E4553530D0A464F52204120504152AB
:10264000544943554C415220505552504F53452008
:10265000414E44204E4F4E494E4652494E47454DFD
:10266000454E542E20494E204E4F204556454E543F
:10267000205348414C4C2054484520415554484F24
:102680005253204F520D0A434F5059524947485414
:1026900020484F4C44455253204245204C4941422A
:1026A0004C4520464F5220414E5920434C41494D04
:1026B0002C2044414D41474553204F52204F544810
:1026C0004552204C494142494C4954592C205748C5
:1026D00045544845520D0A494E20414E204143542D
:1026E000494F4E204F4620434F4E54524143542CA5
:1026F00020544F5254204F52204F5448455257496E
:1027000053452C2041524953494E472046524F4D84
:102710002C204F5554204F46204F5220494E0D0A31
:10272000434F4E4E454354494F4E2057495448203D
:1027300054484520534F465457415245204F52204C
:1027400054484520555345204F52204F5448455238
:10275000204445414C494E475320494E205448455A
:1027600020534F4654574152452E0D0A0D0A6874A6
:1027700074703A2F2F7777772E4672656552544FD3
:10278000532E6F72670D0A687474703A2F2F617739
:10279000732E616D617A6F6E2E636F6D2F66726539
:1027A0006572746F730D0A2A2A2A2A2A2A2A2A2A6B
:1027B0002A2A2A2A2A2A2A2A2A2A2A2A2A2A2A2A79
:1027C0002A2A2A2A2A2A2A2A2A2A2A2A2A2A2A2A69
:1027D0002A2A2A2A2A2A2A2A2A2A2A2A2A2A2A2A59
:1027E0002A2A2A2A2A2A2A2A2A2A2A2A2A2A2A2A49
:1027F0002A2A2A2A2A2A2A2A2A0D0A436869626969
:102800004F53202D20436F707972696768742028B8
:10281000432920323030362E2E323031362047696F
:102820006F76616E6E6920446920536972696F0D1D
:102830000A0D0A4C6963656E73656420756E646584
:10284000722074686520417061636865204C69631B
:10285000656E73652C2056657273696F6E20322E1B
:1028600030202874686520224C6963656E73652288
:10287000293B0D0A796F75206D6179206E6F742088
:1028800075736520746869732066696C6520657866
:102890006365707420696E20636F6D706C69616E22
:1028A0006365207769746820746865204C69636586
:1028B0006E73652E0D0A596F75206D6179206F62F8
:1028C0007461696E206120636F7079206F66207477
:1028D0006865204C6963656E73652061740D0A0D2F
:1028E0000A20202020687474703A2F2F7777772E73
:1028F0006170616368652E6F72672F6C6963656EC6
:102900007365732F4C4943454E53452D322E300D80
:102910000A0D0A556E6C6573732072657175697264
:102920006564206279206170706C696361626C65B6
:10293000206C6177206F7220616772656564207416
:102940006F20696E2077726974696E672C20736FCF
:102950006674776172650D0A646973747269627571
:1029600074656420756E64657220746865204C69B6
:1029700063656E736520697320646973747269623C
:1029800075746564206F6E20616E2022415320496A
:1029900053222042415349532C0D0A574954484F62
:1029A00055542057415252414E54494553204F529D
:1029B00020434F4E444954494F4E53204F462041E7
:1029C0004E59204B494E442C20656974686572202D
:1029D00065787072657373206F7220696D706C69B1
:1029E00065642E0D0A53656520746865204C696323
:1029F000656E736520666F722074686520737065FC
:102A00006369666963206C616E67756167652067DD
:102A10006F7665726E696E67207065726D6973732B
:102A2000696F6E7320616E640D0A6C696D69746103
:102A300074696F6E7320756E6465722074686520AA
:102A40004C6963656E73652E0D0A2A2A2A2A2A2A82
:102A50002A2A2A2A2A2A2A2A2A2A2A2A2A2A2A2AD6
:102A60002A2A2A2A2A2A2A2A2A2A2A2A2A2A2A2AC6
:102A70002A2A2A2A2A2A2A2A2A2A2A2A2A2A2A2AB6
:102A80002A2A2A2A2A2A2A2A2A2A2A2A2A2A2A2AA6
:102A90002A2A2A2A2A2A2A2A2A2A2A2A0D0A436F75
:102AA0007079726967687420286329203230313761
:102AB0002C20426572746F6C642056616E206465D0
:102AC0006E204265726768202876616E64656E626A
:102AD0006572676840626572746F6C642E6F7267AE
:102AE000290D0A416C6C20726967687473207265E5
:102AF0007365727665642E0D0A5468697320776F6A
:102B0000726B20686173206265656E20646576650E
:102B10006C6F70656420746F20737570706F727461
:102B20002072657365617263682066756E646564A2
:102B30002062790D0A2246756E6420666F722053FA
:102B40006369656E74696669632052657365617255
:102B500063682C20466C616E64657273222028467F
:102B60002E572E4F2E2D566C61616E646572656E08
:102B7000292E0D0A0D0A52656469737472696275B3
:102B800074696F6E20616E642075736520696E20B4
:102B9000736F7572636520616E642062696E617225
:102BA0007920666F726D732C2077697468206F725C
:102BB00020776974686F75740D0A6D6F6469666952
:102BC000636174696F6E2C20617265207065726D2F
:102BD00069747465642070726F76696465642074CA
:102BE0006861742074686520666F6C6C6F77696EBD
:102BF0006720636F6E646974696F6E7320617265BC
:102C0000206D65743A0D0A202020202A2052656428
:102C10006973747269627574696F6E73206F662070
:102C2000736F7572636520636F6465206D7573746F
:102C30002072657461696E207468652061626F76C8
:102C40006520636F707972696768740D0A202020AF
:102C50002020206E6F746963652C2074686973206E
:102C60006C697374206F6620636F6E646974696F3A
:102C70006E7320616E642074686520666F6C6C6F83
:102C800077696E6720646973636C61696D65722E24
:102C90000D0A202020202A2052656469737472690D
:102CA000627574696F6E7320696E2062696E6172FD
:102CB0007920666F726D206D757374207265707205
:102CC0006F64756365207468652061626F76652046
:102CD000636F707972696768740D0A202020202064
:102CE000206E6F746963652C2074686973206C6949
:102CF0007374206F6620636F6E646974696F6E739E
:102D000020616E642074686520666F6C6C6F7769F3
:102D10006E6720646973636C61696D657220696EAA
:102D2000207468650D0A202020202020646F6375C0
:102D30006D656E746174696F6E20616E642F6F7261
:102D4000206F74686572206D6174657269616C735F
:102D50002070726F76696465642077697468207486
:102D6000686520646973747269627574696F6E2E28
:102D70000D0A202020202A204E6569746865722083
:102D8000746865206E616D65206F662074686520CB
:102D9000617574686F72206E6F72207468650D0AB9
:102DA0002020202020206E616D6573206F662069D1
:102DB000747320636F6E7472696275746F727320BE
:102DC0006D6179206265207573656420746F20657C
:102DD0006E646F727365206F722070726F6D6F74A6
:102DE000652070726F64756374730D0A2020202053
:102DF0002020646572697665642066726F6D207448
:102E000068697320736F667477617265207769747F
:102E1000686F75742073706563696669632070728A
:102E2000696F72207772697474656E207065726D57
:102E3000697373696F6E2E0D0A0D0A544849532049
:102E4000534F4654574152452049532050524F56F4
:102E5000494445442042592054484520434F505945
:102E6000524947485420484F4C4445525320414E04
:102E70004420434F4E5452494255544F52532022FE
:102E800041532049532220414E440D0A414E5920BE
:102E900045585052455353204F5220494D504C49AC
:102EA00045442057415252414E544945532C2049E4
:102EB0004E434C5544494E472C20425554204E4FCA
:102EC00054204C494D4954454420544F2C205448DB
:102ED0004520494D504C4945440D0A5741525241F5
:102EE0004E54494553204F46204D45524348414E8C
:102EF000544142494C49545920414E44204649547A
:102F00004E45535320464F52204120504152544980
:102F100043554C415220505552504F534520415239
:102F2000450D0A444953434C41494D45442E2049DF
:102F30004E204E4F204556454E54205348414C4C50
:102F40002054484520415554484F52204F52204468
:102F500049535452494255544F52204245204C49FE
:102F600041424C4520464F5220414E590D0A44499A
:102F7000524543542C20494E4449524543542C2039
:102F8000494E434944454E54414C2C2053504543EF
:102F900049414C2C204558454D504C4152592C200C
:102FA0004F5220434F4E53455155454E5449414C85
:102FB0002044414D414745530D0A28494E434C5545
:102FC00044494E472C20425554204E4F54204C49E2
:102FD0004D4954454420544F2C2050524F43555294
:102FE000454D454E54204F46205355425354495465
:102FF00055544520474F4F4453204F52205345527C
:1030000056494345533B0D0A4C4F5353204F4620DE
:103010005553452C20444154412C204F52205052AE
:103020004F464954533B204F5220425553494E4539
:10303000535320494E54455252555054494F4E29EE
:1030400020484F574556455220434155534544204B
:10305000414E440D0A4F4E20414E59205448454F91
:103060005259204F46204C494142494C4954592C11
:10307000205748455448455220494E20434F4E540E
:10308000524143542C20535452494354204C4941FB
:1030900042494C4954592C204F5220544F52540D00
:1030A0000A28494E434C5544494E47204E45474C0B
:1030B0004947454E4345204F52204F5448455257AB
:1030C000495345292041524953494E4720494E20F2
:1030D000414E5920574159204F5554204F462054B6
:1030E000484520555345204F4620544849530D0A22
:1030F000534F4654574152452C204556454E204982
:10310000462041445649534544204F4620544845A3
:1031100020504F53534942494C495459204F46205F
:10312000535543482044414D4147452E0D0A2A2A14
:103130002A2A2A2A2A2A2A2A2A2A2A2A2A2A2A2AEF
:103140002A2A2A2A2A2A2A2A2A2A2A2A2A2A2A2ADF
:103150002A2A2A2A2A2A2A2A2A2A2A2A2A2A2A2ACF
:103160002A2A2A2A2A2A2A2A2A2A2A2A2A2A2A2ABF
:103170002A2A2A2A2A2A2A2A2A2A2A2A2A2A2A2AAF
:103180000D0A0000D0400B1CD1409C46203AD34091
:1031900018435242634693401843704753B94AB9A3
:1031A000002908BF00281CBF4FF0FF314FF0FF304F
:1031B00000F07AB9ADF1080C6DE904CE00F006F824
:1031C000DDF804E0DDE9022304B070472DE9F047A3
:1031D0008C460E460446089D002B50D18A42174665
:1031E0006CD9B2FA82FEBEF1000F0BD0CEF1200CEA
:1031F00001FA0EF620FA0CFC02FA0EF74CEA060C65
:1032000000FA0EF43A0CBCFBF2F9BBB202FB19CC8B
:1032100009FB03FA4FEA144848EA0C46B2450AD9BA
:10322000F61909F1FF3180F02581B24540F2228183
:10323000A9F102093E44A6EB0A06B6FBF2F002FB36
:10324000106600FB03F3A4B244EA0644A34209D982
:10325000E41900F1FF3280F00B81A34240F20881B3
:1032600002383C440021E41A40EA0940002D62D0B3
:10327000002324FA0EF42C606B60BDE8F0878B42CB
:1032800007D9002D55D0002185E841000846BDE84A
:10329000F087B3FA83F1002940F08F80B34202D364
:1032A000824200F2FC80841A66EB03060120B446D9
:1032B000002D40D085E81010BDE8F08712B9012735
:1032C000B7FBF2F7B7FA87FEBEF1000F35D1012147
:1032D000F61B4FEA174C1FFA87F8B6FBFCF20CFB03
:1032E000126608FB02F0230C43EA0646B04207D9F7
:1032F000F61902F1FF3302D2B04200F2D2801A4630
:10330000361AB6FBFCF00CFB106608FB00F8A3B203
:1033100043EA0644A04507D9E41900F1FF3302D27D
:10332000A04500F2B9801846A4EB080440EA024028
:103330009CE729462846BDE8F08707FA0EF7CEF14C
:10334000200326FA03F24FEA174CB2FBFCF11FFAF6
:1033500087F80CFB112206FA0EF620FA03F301FBA4
:1033600008F933431E0C46EA0246B14500FA0EF452
:1033700009D9F61901F1FF3280F08C80B14540F295
:10338000898002393E44A6EB0906B6FBFCF00CFB33
:10339000106200FB08F99EB246EA0246B14507D921
:1033A000F61900F1FF3371D2B1456FD902383E44AE
:1033B000A6EB090640EA01418FE7C1F1200722FA96
:1033C00007F88B4048EA030326FA07F44FEA134E46
:1033D000B4FBFEF91FFA83FC0EFB19448E4020FA61
:1033E00007F809FB0CFA48EA06084FEA184646EACD
:1033F0000444A24502FA01F200FA01F608D9E418E1
:1034000009F1FF3044D2A24542D9A9F102091C4476
:10341000A4EB0A04B4FBFEF00EFB104400FB0CFC12
:103420001FFA88F848EA0444A44507D9E41800F1D3
:10343000FF3E29D2A44527D902381C4440EA09405E
:10344000A0FB0289A4EB0C0CCC45C246CE4615D39A
:1034500012D055B1B6EB0A036CEB0E0606FA07F76D
:10346000CB401F43CE402F606E600021BDE8F08747
:103470001046F7E68946DEE64645EAD2B8EB020A90
:1034800069EB030E0138E4E77046D7E718468FE78B
:103490008146BDE7114676E702383C4444E70846DA
:1034A00006E7023A3E442BE7704700BF844641EAF4
:1034B000000313F0030349D1403A23D30B680360A0
:1034C0004B6843608B688360CB68C3600B690361A2
:1034D0004B6943618B698361CB69C3610B6A03628A
:1034E0004B6A43628B6A8362CB6AC3620B6B036372
:1034F0004B6B43638B6B8363CB6BC3634030403157
:10350000403ADBD230320BD30B6803604B68436028
:103510008B688360CB68C36010301031103AF3D2EF
:103520000C3205D351F8043B40F8043B043AF9D27D
:10353000043208D0D2071CBF11F8013B00F8013B50
:1035400001D30B8803806046704700BF082A13D35D
:103550008B07B1D010F00303AED0C3F10403D21A2D
:10356000DB071CBF11F8013B00F8013BA4D331F885
:10357000023B20F8023B9FE7043AD9D3013A11F805
:10358000013B00F8013BF9D20B7803704B78437094
:103590008B7883706046704780EA010C1CF0030F43
:1035A00037D110F0030C20F0030021F0030150F894
:1035B000042B08BF51F8043B0ED08CF0030C6FF0C5
:1035C0007F434FEACC0C23FA0CFC51F8043B42EA4F
:1035D0000C0243EA0C0300BFA2F1013C9A4201BF76
:1035E0002CEA020C1CF0803F50F8042B51F8043BED
:1035F000F2D04FEA02604FEA1222012828BFB0EB56
:10360000036F08BF1B0AF4D003F0FF03000EC01ABB
:10361000704710F0030F0AD010F8012B11F8013B8E
:10362000012A28BF9A42F4D0A2EB030070474DF85C
:10363000045D50F8042B01F0030521F0030151F85B
:10364000043B022D26D04DD822F07F45B5EB132F39
:10365000A2F1013C2CEA020C0DD11CF0803C08BF09
:1036600051F8043B0AD185EA0205B5EB036F0CD192
:1036700050F8042BE8E74FEA13235BE03CF07F4C63
:1036800054D10B784FEA126554E04FEA126503F00B
:10369000FF034FE04FEA0245A2F1013C4FEA154516
:1036A0002CEA020CB5EB134F18D11CF0803C08BF7C
:1036B00051F8043B07D185EA0205B5EB034F09D168
:1036C00050F8042BE6E75FEA0C4C2FD10B884FEA49
:1036D00012452FE04FEA03434FEA12454FEA1343E6
:1036E00028E000BF02F0FF05B5EB136FA2F1013C2B
:1036F0002CEA020C0DD11CF0803C08BF51F8043BB1
:103700000AD185EA0205B5EB032F0AD150F8042B44
:10371000E8E74FEA13630DE012F0FF0F06D051F80F
:10372000043B4FEA122523F07F4303E04FF00000F3
:1037300020BC704705F0FF0203F0FF00012828BFFE
:10374000904204BF2D0A1B0AF4D0A2EB000020BC5B
:10375000704700BF90F87630074A80F87E3043F01B
:10376000800310B5D364436804461B680BB1012184
:1037700098470323237010BD005C00407047000091
:1037800090F8743003F06003202B19D190F8752065
:10379000212A0AD0222A4FF000030ED0202A0FD16E
:1037A000084A82660722C26604E0064B8366072346
:1037B000C36600230367012070478366C366F9E789
:1037C000002070470008002007F06ABB07F03ABBF2
:1037D00007F0C6BA10B5EFF31183DBB903F074FE3E
:1037E000FEE7836813B903F06FFEFEE7C368196054
:1037F0008268013A8260826913444269C3609342DD
:1038000024BF036AC36000234362C36A83B1BDE877
:1038100010401847EFF3058313B103F055FEFEE7A0
:1038200019B18369043B9942DBD903F04DFEFEE7F1
:1038300010BD10B5EFF31183ABB903F045FEFEE701
:1038400083688269013B83600369134442690361B1
:10385000934224BF036A036100234362C36A73B1C6
:10386000BDE810401847EFF3058313B103F02CFEB9
:10387000FEE78368002BE3D103F026FEFEE710BDD0
:1038800038B504460D46EFF31183EBB903F01CFE87
:10389000FEE72379ABB92946204603F06BFE0028EA
:1038A00019DBA368002BF4D0A36813B903F00CFE56
:1038B000FEE7E36800201A1D6262A2691344A36256
:1038C00038BD6FF0010038BDEFF30583002BE8D061
:1038D00003F0FAFDFEE738BD38B504460D46EFF3B8
:1038E0001183EBB903F0F0FDFEE72379ABB929466C
:1038F000204603F03FFE002819DBA368002BF4D01C
:10390000A36813B903F0E0FDFEE722690020131D50
:10391000126863621344A36238BD6FF0010038BDC2
:10392000EFF30583002BE8D003F0CEFDFEE738BDB2
:10393000F8B50C461146EFF311827ABB03F0C4FDD3
:10394000FEE701250689A540ADB216EA050702D0BB
:1039500003F0BAFDFEE73543058100EB8400C26841
:103960005069128A80E888009A4228BF1A4681600E
:10397000C2602046A40004F1804404F5B84402F07B
:103980006BFE236823F4F04323F0400383F03003FD
:1039900043F4004343F080032360F8BD08B1072CD3
:1039A000CFD903F091FDFEE7F8B5EFF311848CBB9E
:1039B00003F08AFDFEE70126448906FA01F5ADB25F
:1039C00014EA050702D003F07FFDFEE72C43448193
:1039D00000EB8100C468A069826080E8880093B928
:1039E0008681890001F1804101F5B8410B6823F41B
:1039F000904323F0700383F4405343F4004343F0B7
:103A000080030B60F8BD628A013B1344B3FBF2F301
:103A10008381E6E708B10729CDD903F055FDFEE71C
:103A200070B504460E461546EFF311830BBB03F049
:103A30004BFDFEE72378042B02D003F045FDFEE7A3
:103A400004EB8603D96811B103F03EFDFEE7686917
:103A5000DD6010B1102207F081FCA86918B11022B6
:103A6000002107F07BFC31462046BDE8704002F0A3
:103A700075BD08B1002DDDD103F026FDFEE738B598
:103A8000D0F89044014620680378042B1ED10B7DAA
:103A9000022B1BD101232279458903FA02F22A4223
:103AA00014D1EFF311824AB903F00EFDFEE74FF493
:103AB00080736179FFF778FF002038BD4A6A8D6A0C
:103AC000AA4201D1096A09B90432F0D1012038BDF6
:103AD000113110B550F82140002C3CD000F024FEEC
:103AE0000421601803F083FDD4F890241368527900
:103AF00003EB8203DB689B695A68EFF31183FBB920
:103B000003F0E2FCFEE7636AA16A8B4201D1216AFD
:103B1000F1B91A60226A01322262226B1344E26A0E
:103B20006362934201D3A36B636204F1180004F053
:103B300063FB2046FFF7A3FFBDE8104000F0EEBD99
:103B40001AB1236B043B9A42DDD903F0BDFCFEE7BA
:103B500003F0BAFCFEE710BD006BFFF790BF00005A
:103B600008B5EFF31183C3B903F0AEFCFEE7114BC8
:103B7000114A19681160114A12682AB11A6822F4B0
:103B80007F021A601A681A604FF080520C4B1A605C
:103B9000BFF34F8FBFF36F8F08BDEFF3058212B1F4
:103BA00003F092FCFEE7074B19681A600029DED18A
:103BB00008BD00BF20ED00E03414002038140020C0
:103BC00004ED00E08414002008B510B903F07CFC7B
:103BD000FEE7C068BDE8084004F056B908B510B962
:103BE00003F072FCFEE74FF0FF31BDE80840C0680B
:103BF00004F0C0BE08B5EFF3118313B903F064FC01
:103C0000FEE70369C2689A4203D182680AB10020C4
:103C100008BD184650F8043B0B6008BD00EB81035B
:103C2000F7B59C6A05460E46002C48D000F07CFD96
:103C300005EB86070821201D03F0D9FCFB685B69B2
:103C40001B686BB3EFF31183ABB903F03DFCFEE7E8
:103C5000FB685A69126832B11B8A013B134002D1DA
:103C600005F1740225E0D4F8902493682BB3012168
:103C70001068984721E0E36DA26D9A4201D1626D10
:103C8000FAB9626D01326265626E1344226EE365B9
:103C9000934201D3E36EE36504F14C0004F0ACFA07
:103CA00001A904F14C00FFF7A5FF02460028CFD080
:103CB000019B31462846FFF73BFE00F02FFD03B085
:103CC000F0BD03F001FCFEE713B5046BD4F89034AB
:103CD0001A681178042916D1217D022913D1197986
:103CE000012312898B4013420DD101A904F14C002C
:103CF000FFF780FF024630B1D4F89044019B217950
:103D00002068FFF715FE02B010BD000008B50D4B8E
:103D10001968C1F308010F2911D90123103901F0E5
:103D20001F00834008484A0940F82230A0F58070FF
:103D300040F822300548BDE8084005F0F5B803F02A
:103D4000C3FBFEE704ED00E080E200E0B4B500084C
:103D500070B500240C4B03F18000A3F1100126C9BB
:103D60000439AA4207D353F8041C8A4208D31033FB
:103D70008342F2D170BD51F8046F42F8046BF0E752
:103D800042F8044BF1E700BFDCB50008FEE77047DE
:103D90007047000070B50D461646044608B101B1E3
:103DA00012B903F091FBFEE707F03CF82378022BF1
:103DB00002D003F089FBFEE763681B6813B103F0D0
:103DC00083FBFEE70323B5F5803F237002D303F0A6
:103DD0007BFBFEE7636E0F4A5868E36EC66043F0F4
:103DE000800345600360A36E5B68DA60226F5D60EC
:103DF0001A60026842F0010202601A6804F10800C9
:103E000042F001021A6003F093FBBDE8704000F03D
:103E10003BBB00BFCAB5000870B5044610B903F03B
:103E200053FBFEE706F0FEFF23785A1E012A04D951
:103E3000052B04D003F048FBFEE7012B36D04FF4EE
:103E400000420025A36F606F1A6042681D605D60CC
:103E50005D611368016823F00F0313600E23027C79
:103E600003FA02F24A60226F5668316821F00F01AE
:103E700031601168127C93404B6001F0D3FB206FDE
:103E800001F0D0FB0D4B9C4210D14FF000420C4B87
:103E9000C3F88020012283F81F53C3F88420094A05
:103EA00083F82053D36923F40013D36100236360A4
:103EB00001232370BDE8704000F0E6BA2809002015
:103EC00000E100E0001002402DE9F74F044689466A
:103ED0001E46154612B903F0F7FAFEE74FF0000848
:103EE000234FD0F818A006F09DFF06F017FF3B689F
:103EF00006F1FF3BF318009363680BB36368013B63
:103F0000636023695A1C226109F10102019299F848
:103F100000201A70E36822699A4224BFA3682361D3
:103F2000BAF1000F01D02046D04700F0ADFA013DB4
:103F300008F1010817D006F075FFDDF80490DBE703
:103F40001BF1030F06D93146204603F013FB00286E
:103F5000D2D006E006F0E2FE3968009B591A8E4284
:103F6000F2D200F091FA404603B0BDE8F08F00BFF6
:103F7000801400203830FFF7A7BF4FF0FF333830F0
:103F8000FFF7A2BFF8B504460E46174606F04AFFF3
:103F90006368A3B16368013B636023695A1C2261B3
:103FA0001E70E36822699A4224BFA3682361A36953
:103FB0000BB12046984700F067FA002507E0394624
:103FC000204603F0D7FA051EE2DA00F05DFA284633
:103FD000F8BD3830FFF7D6BF4FF0FF323830FFF76B
:103FE000D1BF00002DE9F74F044689461E4615460D
:103FF00012B903F069FAFEE74FF00008234FD0F83A
:1040000018A006F00FFF06F089FE3B6806F1FF3BA3
:10401000F318009363680BB36368013B636009F1B5
:104020000103019363695A1C62611B7889F80030AF
:10403000E36862699A4224BFA3686361BAF1000F22
:1040400001D02046D04700F01FFA013D08F10108D9
:1040500017D006F0E7FEDDF80490DBE71BF1030F55
:1040600006D93146204603F085FA0028D2D006E072
:1040700006F054FE3968009B591A8E42F2D200F0C5
:1040800003FA404603B0BDE8F08F00BF8014002063
:104090001830FFF7A7BF4FF0FF331830FFF7A2BF6C
:1040A00070B504460E4606F0BDFE636883B16368D2
:1040B0006269013B6360531C63611578E268934257
:1040C00024BFA3686361A36943B12046984705E014
:1040D0003146204603F04EFA051EE6DA00F0D4F928
:1040E000284670BD1830FFF7DBBF4FF0FF311830A6
:1040F000FFF7D6BF2DE9F74F04460D461F469246FF
:1041000012B903F0E1F9FEE706F08CFE06F006FEB8
:10411000284B002698461A6807F1FF3B07EB020977
:10412000636A3BB91BF1030F2AD939462046FFF7D2
:10413000A7FB68BB606AA36AAAEB06021B1A93423C
:1041400028BF1346402B29D905F1400355F8042B0D
:104150009D4240F8042BF9D1636A403640336362D4
:10416000626AA36A9A4204D3A16920460439FFF720
:1041700031FB00F089F956450CD206F053FECFE72B
:1041800006F0CCFDD8F80010A9EB01018F42CDD28A
:1041900000F07AF9304603B0BDE8F08F1A462946A0
:1041A0000193FFF783F9019B626A1D441A4462621E
:1041B0001E44D5E7801400202DE9F0410446D0F8D4
:1041C00090040E4685681746984615B1012100688F
:1041D000A84743463A46314604F14C00BDE8F04159
:1041E000FFF788BF70B50446D0F890040D46836889
:1041F000164613B10121006898473246294604F15A
:104200004C004FF0FF33BDE87040FFF773BF70B54F
:1042100004460E46154606F005FE636A4BB929466C
:104220002046FFF72DFB054618B100F02DF9284672
:1042300070BD636A1E70636AA26A0133934263624F
:1042400004D3A16920460439FFF7C4FA00F01CF931
:104250000025ECE770B50446D0F890040D4683685D
:10426000164613B10121006898473246294604F1E9
:104270004C00BDE87040FFF7CABFD0F8902438B5B5
:10428000936804460D4613B10121106898472946EA
:1042900004F14C004FF0FF32BDE83840FFF7B7BFE4
:1042A0002DE9F74F04460E461F46924612B903F019
:1042B0000BF9FEE706F0B6FD06F030FD284B0025B1
:1042C00098461A6807F1FF3B07EB0209636A3BB99E
:1042D0001BF1030F2AD939462046FFF7FDFA68BBC8
:1042E000616AA36AAAEB05025B1A934228BF1346D0
:1042F000402B29D9334601F1400251F8040B914279
:1043000043F8040BF9D1636A4036403363624035A9
:10431000626AA36A9A4202D32046FFF78AFA00F043
:10432000B3F855450CD206F07DFDCFE706F0F6FC5C
:10433000D8F80010A9EB01018F42CDD200F0A4F80B
:10434000284603B0BDE8F08F1A4630460193FFF7C8
:10435000ADF8019B626A1E441A4462621D44D7E7AD
:10436000801400201830FFF79BBF4FF0FF33183048
:10437000FFF796BF38B504460D4606F053FD636A55
:104380004BB929462046FFF7A7FA054618B100F0B9
:104390007BF8284638BD636AA26A13F8015B934232
:1043A0006362F4D32046FFF744FAF0E71830FFF7D2
:1043B000E1BF4FF0FF311830FFF7DCBF022910B525
:1043C00006D0032906D00129194818BF002010BDC6
:1043D000184810BD022A03D8174800EBC20010BDD0
:1043E000032A22D115490B780BB1154810BD322094
:1043F0001C4608704A709A0802F10052A2F6180290
:10440000981C1278C3F340039B0042FA03F303F0B5
:104410000F03092B94BF303357330B54302801EB73
:1044200000035C700346E6D1DFE7002010BD00BF4B
:10443000A0B7000854B7000850B800086C0A002064
:1044400068B8000838B50D4B0D461B7803B999B113
:104450000B4C2278AA420FD006F0C6FC094B1A6C0E
:104460003DB142F400721A642570BDE8384006F090
:10447000AFBC22F40072F6E738BD00BF0708002089
:1044800008080020005C004008B5EFF3118313B961
:1044900003F01AF8FEE7EFF3058212B103F014F807
:1044A000FEE70E4B19681A60A1B10D4B0D4A196851
:1044B00011600D4A12682AB11A6822F47F021A604C
:1044C0001A681A604FF08052084B1A60BFF34F8F82
:1044D000BFF36F8FBDE8084006F098BC841400203D
:1044E00020ED00E0341400203814002004ED00E03A
:1044F000F8B50446C56F0021E88904F0CEFC012020
:1045000003F08CFBE36F0021988904F0C6FC0120C6
:1045100003F084FB297CA88904F0A0FC012003F0AF
:104520007DFB297CE88904F099FC012003F076FBEF
:10453000E56F15B902F0C8FFFEE723785A1E012A7D
:1045400004D9052B02D002F0BFFFFEE706F06AFC9B
:1045500027786560012FA56F39D19A23E3668A23F6
:10456000A366654B9C4232D1644E2246336964494E
:1045700043F4001333610023206F336103F0AEFE78
:1045800010B102F0A1FFFEE722465E49606F03F022
:10459000A5FE10B102F098FFFEE7C0224FF00041E7
:1045A000F36943F40013F361574B83F81F23C3F8F7
:1045B0008011196083F82023C3F884715F60A36EB3
:1045C00043F44053A366E36E43F44053E366236F22
:1045D00060685A6805F110039360626F4B49526836
:1045E00093604FF4004300222B604FF410632A6065
:1045F0006B6043685E1E8E4202D902F065FFFEE7E3
:10460000A16F067A4F6827F03F073F043F0C4F60C9
:104610004F6847F024074F603D4FBB421ED8012E24
:1046200002D002F051FFFEE73A4E5B0096FBF3F238
:1046300003FB126313B102F047FFFEE792B2032AB5
:1046400002D802F041FFFEE72526B2F5805FC2F3F3
:104650000B030E621ED302F037FFFEE72E4FBB4264
:104660003EDCB21E012A02D902F02EFFFEE7022E26
:10467000284F27D103EB430397FBF3F203FB12739D
:1046800013B102F021FFFEE792B213430B2243F471
:1046900000430A62CB6102780B68022A9BB221D0E8
:1046A000032A25D0012A02D123F00A039BB20B6012
:1046B0002B6843F001032B6002232370BDE8F84010
:1046C000FFF7E2BE1926734397FBF3F203FB127365
:1046D00013B102F0F9FEFEE792B24FF48043D4E743
:1046E0001346D7E723F008039BB243F00203DEE74B
:1046F00043F00A03DBE700BF280900200010024056
:10470000BD500008514C000800E100E0FF083D00EA
:10471000A086010000512502801A0600014B18688E
:1047200006F056BBA40A002008B506F05DFB014B5D
:10473000186008BDA40A002013B5FFF7F5FF284B49
:10474000D3F890141C4608680278042A15D11B7D02
:10475000022B12D101230A799340028913420CD112
:10476000EFF311838BB902F0AFFEFEE7D4F890446B
:10477000019B21792068FFF7DBF81A4A136801339F
:104780001360FFF7CBFF02B010BDA36DE26D934243
:1047900001D1626D2AB98B68002BEED000219847B9
:1047A000EBE7226F002AF6D0043AD21AF3D01A604F
:1047B000626D01A9013A6265626E0B481344226E74
:1047C000A365934224BFE36EA36500232367FFF72D
:1047D00011FA02460028C9D102F076FEFEE700BFBA
:1047E0003C0D0020A00A0020880D002038B50446AA
:1047F000052975D8DFE801F01A03081A1A35394877
:10480000BDE8384004F090BBFFF78EFF2046364AE3
:104810000121FFF705F9354A02212046FFF700F98B
:10482000EFF311834BBB02F04FFEFEE70125304C46
:10483000FFF77AFF02212F4802F0D9FE04F1180099
:10484000257703F0B9FC84F8505004F14C002A4C51
:1048500003F0B2FC227812B1284804F065FB002373
:1048600036E0FFF761FF0121224802F0C0FE00227E
:104870001F4B1A7783F850202BE000251C4CA36BAC
:104880002562A3626362E563256404F1180003F006
:1048900093FC2577EFF31183FBB1A36E04F14C0079
:1048A0006365E36E2567E365A365656703F084FCD4
:1048B000201D012184F8505002F099FE20460E4C34
:1048C000FFF7DDF8227812B90D4804F02DFB012323
:1048D0002370BDE83840FFF721BF02F0F5FDFEE789
:1048E00038BD00BF2AB70008D8B60008FCB60008DB
:1048F0003C0D0020400D00202012002048B7000889
:1049000040B70008AA4B4FF0FF311A690022142665
:10491000144680B519611A61D868D960DA60D9691E
:10492000A44841F08051D961D969A34D41F000619B
:10493000D961016888B041F4807101609F490A60C3
:104940009F4906FB02504068046041F83240013242
:10495000072AF6D14FF0FF329A4901274A60996938
:10496000994D41F07D0199616FF44013974905F12C
:104970001000CB60964B974E4B604FF088330B6026
:10498000C1F80C24C1F80434C1F80034C1F80C2873
:10499000C1F80438C1F80038C1F80C2CC1F8043C47
:1049A000C1F8003C01F58061C1F80C2CC1F8043C51
:1049B000C1F8003C2F706C6003F09BFB1021864B0C
:1049C000864AAB67A6F114036B67854BE8601A60F3
:1049D00003F158021A62DA629A6203F168025A62BB
:1049E0001A64DA649A6403F178025A647D4A2E6785
:1049F0002C667D4D1A657D4ADC619C60D9635C60E4
:104A0000DC609C611C635B639C635B6568189A67F0
:104A10001F752F706C60AC6003F06BFB744B002251
:104A20002B66A6F164036B6641F20A03EB6641F262
:104A300018032B676F4B503EE860AE661F705C60DA
:104A400003F1280103F1440041F8042F8842CA61B0
:104A5000FAD11A815A8101234FF00072664C2370FB
:104A6000664BA36003F550435A6006F0DBF92378E8
:104A7000013B012B234602D902F026FDFEE745F259
:104A800055515F4A6260A2681160D468002CFCD165
:104A90000621516040F6FF7191604AF6AA2111602B
:104AA0004CF6CC410227012611601F70FFF7ECFC89
:104AB00005AB01930096534B4FF480725249534813
:104AC00003F096F964230693069B642B00D0FEE75F
:104AD0004F4D504B85F861702B6307AB01937822E3
:104AE00023464D494D480295009406F0F3F92846B7
:104AF00003F0C4F8079B002B3DD102F0E5FCFEE774
:104B00009DF8133001245B00DBB28DF813300B46A7
:104B10009DF81320591E1206F2D4414A04B11360C5
:104B200013681B0203F4E0631360079B3D4ADBB28A
:104B300013703D4B1A6842F47F021A601A6842F003
:104B40007F421A6042F22832384B1A604FF4E96211
:104B5000374B1A600522374B1A6042F22732364B28
:104B60001A60032243F8042C0022344B1A6006F02A
:104B700085F906F077F906F055F94FF0FF31304B23
:104B80001960304B1E60304B1C60264B1A78D2B235
:104B9000079219701B782D4ADBB28DF813309DF8FF
:104BA000133003F0BF03137007231D4A1360AFE7F0
:104BB00000100240007000404CB60008881300202E
:104BC0005013002000000240280900200008014086
:104BD00088828888C4B600080054004070B8000875
:104BE000B0090020B96000085412002000480040BD
:104BF00000300140C8120020300A00200030004080
:104C000090B80008956C000820B70008499000088B
:104C1000880C0020A80A002025B700084D7900085C
:104C2000CC15002000E400E020ED00E01C12002084
:104C3000501200201812002014E000E03814002068
:104C4000D01500206814002080140020C815002012
:104C500008B50B0702D502F037FCFEE7436F816F02
:104C60005868026822F00F020260187C1A680E234E
:104C7000834053604B6843F400734B6008BD08B534
:104C8000EFF3118333B902F01FFCFEE7BDE80840E3
:104C900003F04ABA00680028F8D108BD08B50D4BEA
:104CA0000D4A19681268090E01F00E01114206D072
:104CB0000A065A60094A136B0BB1506B98470021E2
:104CC000074B1A6819601AB1BDE8084001F01EBE12
:104CD00008BD00BF000002408000024050130020C9
:104CE0008414002008B50D4B0D4A19681268090D8F
:104CF00001F00E01114206D00A055A60094A936A72
:104D00000BB1D06A98470021074B1A6819601AB195
:104D1000BDE8084001F0FABD08BD00BF0000024038
:104D20006C000240501300208414002008B50D4B85
:104D30000D4A19681268090C01F00E01114206D0E3
:104D40000A045A60094A136A0BB1506A9847002155
:104D5000074B1A6819601AB1BDE8084001F0D6BDCA
:104D600008BD00BF00000240580002405013002060
:104D70008414002008B50D4B0D4A19681268090B00
:104D800001F00E01114206D00A035A60094A9369E4
:104D90000BB1D06998470021074B1A6819601AB106
:104DA000BDE8084001F0B2BD08BD00BF00000240F0
:104DB00044000240501300208414002008B50D4B1D
:104DC0000D4A19681268090A01F00E01114206D055
:104DD0000A025A60094A13690BB1506998470021C9
:104DE000074B1A6819601AB1BDE8084001F08EBD82
:104DF00008BD00BF000002403000024050130020F8
:104E00008414002008B50D4B0D4A19681268090971
:104E100001F00E01114206D00A015A60094A936856
:104E20000BB1D06898470021074B1A6819601AB176
:104E3000BDE8084001F06ABD08BD00BF00000240A7
:104E40001C000240501300208414002008B50C4BB5
:104E50000C4A1968126801F00E01114205D00A4A85
:104E6000596013680BB1506898470021074B1A68C6
:104E700019601AB1BDE8084001F048BD08BD00BF87
:104E8000000002400800024050130020841400205B
:104E9000F8B5344B996F4C6904F45F40C0434861E6
:104EA000586FA2B24668356825F00F053560057C5D
:104EB00006680E2000FA05F575601D6F6F683E6884
:104EC00026F00F063E602E682D7CA8407060D3F857
:104ED00080000130C3F8800012F4807018BF0120F8
:104EE0009705986042BF986840F0020098605605A8
:104EF0000BD5486820F400704860086840F40070E2
:104F00000860996841F004019960150542BF9968ED
:104F100041F008019960500442BF996841F02001B6
:104F20009960D10442BF9A6842F010029A6022044C
:104F300042BF9A6842F040029A609B6843B1FFF713
:104F4000F3FB6FF001010848FFF799FEFFF7E6FB5E
:104F50000021064B1A6819601AB1BDE8F84001F04B
:104F6000D5BCF8BD28090020880900208414002041
:104F7000F8B54D4DAC6FD5F88020A3696669013254
:104F800016F4807FC5F88020294601D11D2A1CD93E
:104F9000636923F480736361636823F4007363605F
:104FA00001238B60FFF7C0FB6FF001013F48FFF763
:104FB00066FEFFF7B3FB00213D4B1A681960002A1B
:104FC00071D0BDE8F84001F0A1BC46EA0343394A7C
:104FD00023F07F4393422ED00AD8073A93421DD044
:104FE000013293422CD016F00A0F18BFA369E2E7F2
:104FF000314A93423AD002329342F4D12B6F5B682C
:105000005F68002F3DD0B5F8643043F00103A5F888
:105010006430236843F4A0632360CCE7B5F86430C0
:105020001A0A06D003F0010343F0F00302F006026F
:1050300013432361D7E7B5F86430C3F34703F8E7B8
:10504000636823F4007363602B6F5B681A6842F037
:1050500001021A60626842F4805262605B68012B50
:10506000C1D8236823F480632360BCE7636823F41A
:10507000007363606B6F5A68136843F00103136039
:10508000B1E7636823F400736360236843F400733B
:105090002360FFF749FB394605F16000FFF7EFFD9C
:1050A000FFF73CFB9FE7F8BD280900208809002096
:1050B00084140020080003008200070038B511F0B6
:1050C0000805044602D002F0FFF9FEE7026F836F85
:1050D0005068016821F00F010160107C11680E22F8
:1050E00082404A605A6822F480525A601A6822F458
:1050F00080621A601A6842F400721A60FFF714FBAB
:10510000294604F16000FFF7BAFDBDE83840FFF71B
:1051100005BB000010B590F864300446062B3FD85C
:10512000DFE803F01E1E1E13041E2100052380F875
:105130006430FFF7F9FA002320461A461946FEF7B5
:10514000F7FBBDE81040FFF7E9BAC3689B695B68ED
:105150004BBB036F03B19847002384F8643010BD44
:1051600002F0B2F9FEE748F280000F490B6823F421
:10517000F04323F0400383F0100202430A600B68FF
:1051800023F4904323F0700383F4805303430B60B4
:1051900063681B6813B10621204698470623DCE7A5
:1051A00002F092F9FEE710BD005C004038B590F8BF
:1051B00064300446062B57D8DFE803F03604223665
:1051C0003631390090F87B1090F87A20C36E42EAAD
:1051D00001229A4214D9C268128AB3FBF2F502FB8B
:1051E00015356DB9FFF7A0FA2B462A462946204609
:1051F000FEF79EFBFFF792FA022384F8643038BD75
:10520000032384F86430FFF78FFA002320461A4600
:105210001946FEF7C9FBBDE83840FFF77FBA036FB8
:1052200003B198470023E8E702F04EF9FEE748F2A1
:1052300080000F490B6823F4F04323F0400383F010
:10524000100202430A600B6823F4904323F07003BA
:1052500083F4805303430B6063681B6813B106211A
:10526000204698470623C8E702F02EF9FEE700BF64
:10527000005C0040002370B5044680F86430C14BE8
:1052800000F174021B6D03F1804303F5C04303EB8F
:1052900001118B6803F1005303F540535B0003F1E8
:1052A000100153F8040B8B4222F8020BF9D163680A
:1052B0009B68002B38D194F8743013F0600514D13A
:1052C00094F8752003F07F0343EA0223B3F5407F8F
:1052D00000F0AF8077D8022B00F0E8804AD8002B8E
:1052E00000F09180012B00F0DB8048F28000A5499E
:1052F0000B6823F4F04323F0400383F010020243D1
:105300000A600B6823F4904323F0700383F4805306
:1053100003430B6063681B6813B10621204698475E
:10532000062384F8643070BD204698470028C2D018
:1053300094F87B2094F87A3043EA0223E26E934299
:1053400038BFE36694F97430E56E002B80F2088173
:10535000002D00F0F980012384F86430FFF7E4F9B0
:10536000E36EA26E00212046FEF7E2FABDE870402F
:10537000FFF7D4B9B3F5807F4CD0B3F5817FB4D1BA
:1053800094F87630002BB0D194F8782012F00F0307
:1053900000F040819B0003F1804312F0800F03F581
:1053A000B8431A6800F09E8002F03002302A00F004
:1053B00031811A6822F4F04222F0400282F0200289
:1053C00042F400429BE0B3F5C06F3CD00BD840F2F2
:1053D0000232934200F09780B3F5A06F85D1A566A5
:1053E000E566694B14E0B3F5106F42D040F6024217
:1053F000934255D0B3F5006F7FF477AF04F17F038C
:10540000A366012333E004F17C02A2660222E26675
:1054100023678DE794F87630012B7FF466AFB4F8FC
:105420007C3023F00203A4F87C30A566E56625678E
:105430007EE794F87630012B7FF457AFB4F87C30D8
:1054400043F00203EFE794F87920616894F878302C
:105450004E6843EA022394F8771094F876202046A9
:10546000B04700283FF441AF4368A3660368E36692
:10547000DDE794F87F2094F876309A4200F0CA80F5
:105480002378042B40F0B980FFF74EF9EFF3118336
:10549000002B7FD102F018F8FEE702F015F8FEE7C6
:1054A0003A4BA3660223E3660023B1E794F8782021
:1054B000344912F0800F02F00F02D2B251F82220CC
:1054C00009D012F030023FF410AF102A00F0A6808D
:1054D0002F4AA266CBE712F440523FF406AFB2F572
:1054E000805FF3E702F44052B2F5405F00F0928033
:1054F0001A6822F4F04222F0400242F4204242F0C4
:1055000080021A6086E094F87630002B7FF4EDAECE
:1055100094F8782012F00F037CD09B0003F18043B5
:1055200003F5B84312F0800F1A6815BF22F4F04259
:1055300022F4904222F0400222F0700214BF82F066
:10554000100282F480523BE7032384F86430FFF7B3
:10555000EBF82B462A4600212046FEF725FA05E700
:105560003DB1042384F86430FFF7DEF8E36EA26EE9
:10557000F1E7052384F86430FFF7D6F82B462A4676
:10558000F0E600BF005C0040553700089CB80008FA
:1055900098B800082378042B7FF47FAF002123897B
:1055A00004F12C0203F001032381638903F001035A
:1055B000638104F1100343F8041B9A42FBD140239A
:1055C000012248F28000C4F88430930003F1804344
:1055D00003F5B843196801320143082A19601860BD
:1055E000F3D1FFF79BF80023032184F87F30636831
:1055F00021701B680BB12046984794F876304BB168
:1056000084F87F300423237063681B6813B1022180
:10561000204698470023A366E366F9E6004A58E768
:105620009AB8000870B510B901F04EFFFEE70125E9
:10563000154A467C136805FA06F1194202D101F0B9
:1056400043FFFEE723EA01038168136013EA0104C4
:105650000BD1827C02F01F018D4050090B49203094
:1056600041F82050114481F800430021084A5B06AC
:1056700042F8361002EBC602516001BF054A536979
:1056800023F00103536170BD8813002000E100E0A6
:1056900050130020001002400846024A024900F060
:1056A0000FBF00BF342200089EB800082DE9F04F5C
:1056B0002426DFF8DC8285B0D8F800500C4606FBC3
:1056C00005F003F0EBFA0746002800F0958001F0A2
:1056D000F3FED8F800309D42C0F091804FF00008F2
:1056E0004546DFF8B09208F1500106FB0570012233
:1056F000494405F0ABFCA8F1140818F1640F054407
:10570000F1D1864B0222196806FB057005F09EFC5C
:10571000834B05441968022206FB057005F096FCD0
:10572000054404227F4906FB057005F08FFC054403
:1057300006FB057003227C4905F088FC054402F055
:1057400083F87A4A0D21204603F09EFC784A0A210C
:10575000204603F099FC774A0B21204603F094FC85
:10576000754A0B21204603F08FFC744A062120461F
:1057700003F08AFC724A0621204603F085FC714A38
:105780000921204603F080FC6F49204600F098FE76
:105790003E464FF00008DFF80092DFF800A2DFF885
:1057A00000B2A8452DD10026384603F04FFA6649CD
:1057B000204600F085FE654A0D21204603F064FC7A
:1057C0005B4A0A21204603F05FFC614A0B21204618
:1057D00003F05AFC5F4A0B21204603F055FC5E495A
:1057E000204600F06DFE5D4B5D4F1D68DFF8B48113
:1057F000DFF8AC91002D66D105B0BDE8F08F002533
:105800009DE733684A460093B3680D21204603F0B4
:105810003BFC7368504619460293FDF7BDFE029BA0
:10582000002836D14F4A0A21204603F02DFCF369A7
:105830004D4A0B21204603F027FC338C484A0B21AC
:10584000204603F021FC7369454A0621204603F0F7
:105850001BFC33690621424A204603F015FC3268DE
:10586000039205F0DFFA414B1B68029305F0CEFA74
:10587000029B039A9A4212D13D4A0921204603F025
:1058800003FC3149204600F01BFE08F101082436D4
:1058900087E75A460A21204603F0F6FBC7E7337B29
:1058A000002BE9D0012B01D1324AE6E7022B01D1CE
:1058B000314AE2E7032B01D1304ADEE7042B0CBF6B
:1058C0002F4A304AD9E733463A460D21204603F0A5
:1058D000DBFBEB68CBB14A460A21204603F0D4FB40
:1058E0002B46214A0B21204603F0CEFB2B681E4A93
:1058F0000B21204603F0C8FB2B7C63B122492046D4
:1059000000F0DEFD0136AD6874E742460A2120460C
:1059100003F0BAFBE4E71D49F1E700BFC015002022
:10592000C41500206C140020D415002068B90008AC
:1059300070B900087AB9000885B9000890B9000864
:1059400096B900089CB90008DBC10008E5B9000859
:10595000F0B90008FBB9000804BA0008AC14002034
:105960008EC30008ABB90008B0B90008A813002026
:10597000B5B90008BDB90008C3B90008CBB9000823
:10598000D5B90008DDB900080CBA000815BA00083E
:105990003C140020AC130020A2B9000825B7000871
:1059A0009EB800081CBB00080D4B10B51B689C6D11
:1059B000ACB1E06808B103F049F9224609496069D1
:1059C00000F07EFD2146074803F0DCFAA3690BB125
:1059D000E06998472046BDE8104003F037B910BD94
:1059E000A813002098BA00082DE9F04F8246002441
:1059F000B64BA5B01B68026898650146B44803F031
:105A0000C1FADAF80830DAF804600393DAF80C30F7
:105A1000B0491C70DAF80C3030460993DAF81030CF
:105A20000B940A930C940D9400F04AFD0494DFF853
:105A3000CCB24FF0000814AFC1463D46A6493046EF
:105A400000F03EFDDAF80440236801225B680DF1A6
:105A50001F0120469847002841D09DF81F101B29A0
:105A600000F02B81B9F1000F33D05B2900F02881C1
:105A7000B8F1000F2BD0412919D10022294609A8DD
:105A800000F087FBB0F100081FDD08234A225946C9
:105A9000204600F015FD9149204600F011FD2A46F0
:105AA0008F49204600F00CFD05EB08070DE0422968
:105AB0000BD10122294609A800F06BFBB0F10008C8
:105AC00002D18DF85080E0E7DFDA4FF00008C146E0
:105AD000BAE7042916D18349204600F0F1FC7D493C
:105AE000304600F0EDFC8049304600F0E9FC05F05E
:105AF00099F901217D4801F07AFD02F079FC25B089
:105B0000BDE8F08F082901D07F2912D1AF429BD088
:105B1000236808219B6820469847236820219B68BA
:105B200020469847236808219B6820469847013FF4
:105B30008AE70D2940F082806649204600F0C0FCCB
:105B40000A997C1B4B1E9C4230DB9DF81030284686
:105B50003B7008A900F092FB002507460EAC08A98F
:105B6000002000F08BFB38B1052D40F0AB80604980
:105B7000304600F0A5FC002724AB049A03EB850314
:105B800043F8582C002F3FF454AF5A493846FDF7DC
:105B900003FD002840F0D980002D00F0B180554A67
:105BA0005549304600F08CFC41E7013C2B1913F8B5
:105BB000013C202B02D1002CF7DCC6E7002CC4DD11
:105BC0000C9B0998DDF82CE07345A5BFA3EB0E02F2
:105BD0000132AEEB03028A1AB8BF02F1FF329442DF
:105BE00080F2D180A1EB030808F1FF38444503F1AE
:105BF00001030ADB424629461844FDF757FCA4EB93
:105C0000080205EB0801099802E0224629461844DB
:105C1000FDF74CFC0C9B099A9DF81010D4540C9B7A
:105C200001341C440A9B0C949C42A4BFE41A0C94BB
:105C30000C9B099AD15400230D9386E70E291FD19E
:105C40000122294609A800F0A4FA031E059314D1E5
:105C50008DF8509008234A225946204600F030FC27
:105C60001E49204600F02CFC2A461D49204600F023
:105C700027FC059B2B441F46E6E6FFF6E5AEE9E769
:105C8000102908D14A46294609A800F082FA031EC5
:105C90000593DFDCD8E61F297FF6D6AE0DF18F0322
:105CA0009F42BFF4D1AE236820469B6898479DF879
:105CB0001F30013707F8013CC6E64FF00109C3E683
:105CC000C846C1E644F82500013548E7A81300207E
:105CD0001CBA0008DBC1000837BA00084BBA00083C
:105CE0009EB800084FBA000891BA0008EC0C0020DA
:105CF00052BA000867BA00086CBA000840BA000837
:105D00002549304600F0DCFB244C254F0C35631947
:105D100053F80C2C32B9039B4BB92249304600F0A2
:105D2000CFFB84E63946304600F0CAFBEEE7039B22
:105D30001B4D03F10C040C3454F8182C002AECD041
:105D40002946304600F0BCFBF5E70EAC00942B462C
:105D50003A463146114800F075FA00283FF467AE24
:105D6000039B33B910493A46304600F0A9FB0F496E
:105D7000D4E700942B463A463146039800F062FA85
:105D80000028EFD153E610F80E2072440132914200
:105D900000DC521A0B9215E778BA0008B0BA000876
:105DA00088BA0008DBC100089EB800088CBA000859
:105DB000012A10B50C4609D00949204600F080FBA5
:105DC0002046BDE81040074900F07ABB1B68BDE8DB
:105DD00010401878A0F131035842584104F08EBDAC
:105DE000A1B80008AAB800082DE9F04F012A87B031
:105DF0000E461C461BD143491868FDF7CDFB0746EC
:105E000018BB414D414C4FF0FF31286802F0B2FD04
:105E1000D4F80080666824223946204605F09EFAB0
:105E20002868C4F80080666002F02EF80AE0022AB2
:105E30000BD137491868FDF7AFFB30B961683548B9
:105E400003F0A0F807B0BDE8F08F2F4F2F4C4FF0B4
:105E5000FF31386802F08EFD226A1AB12E493046B1
:105E600000F02EFBA368E360A38AE382A38A3BB918
:105E7000E3683868A360E38AA382D5E75D462EE035
:105E800002F08AFB054602F087FB40EA0520A0618C
:105E90001FFA80F90028EBD04FF0000A0DF10C0832
:105EA000D4F818B0BBF1000FE8D0BBF10C0F28BF3D
:105EB0004FF00C0B00221FFA8BF5019202F06CFBE5
:105EC000019A08F80200013291B2A942F5D3A26901
:105ED000A2EB0B02A26112B9A28A013AA282326835
:105EE000414613682A46554430461FFA85FA9847BA
:105EF000CA45D5D3336802221B6808493046984703
:105F0000B4E700BF49B900081412002010140020A3
:105F10004FB900089EB8000853B90008DBC100085B
:105F200038B50C46CAB92749204600F0C9FA2649B7
:105F3000204600F0C5FA2549204600F0C1FA244960
:105F4000204600F0BDFA2349204600F0B9FA224964
:105F50002046BDE8384000F0B3BA012A2FD11D68B1
:105F60001E492846FDF718FBF0B11D492846FDF7EC
:105F700013FBD8B11B492846FDF70EFB10B901F001
:105F8000A3FAFEE718492846FDF706FBB8B9174DF6
:105F90000420A847052805D13620A847372801D175
:105FA0001349D5E71349D3E744F24C20124AD36989
:105FB00043F0C053D361114B986204F02DFD44F2BD
:105FC0004D20F3E7A1B80008B8B80008C8B8000829
:105FD000DAB80008EDB80008FEB8000811B90008EA
:105FE00019B9000820B9000826B900080D080020DA
:105FF0002EB9000839B9000800100240006C0040BA
:10600000F0B5074D2B780D2B08D80C245C43054FB9
:1060100001333E1938517160B2602B70F0BD00BF82
:10602000100800204008002070B503782BB32D2BFA
:106030000CBF0124002425460444002014F8012B41
:1060400012B9E5B1404270BDA2F13003DBB2092BB9
:1060500000FB01F688BF4FF0FF3002F0DF0298BF6F
:1060600058B2A2F14103192B9CBF373A50B2884273
:1060700003DA431C03D03044E0E74FF0FF3070BD3B
:106080000369C2689A421FBF4268D25C0133036150
:1060900014BF10466FF001007047C36882689A42CF
:1060A0001FBF4268D154C36801331ABFC3600020C8
:1060B0006FF0010070470000024AD36843F080038C
:1060C000D36070470048004038B505462B69EC683E
:1060D0000846E41A944228BF1446696822461944C7
:1060E000FDF7E4F92B69204623442B6138BD38B510
:1060F000C36884680546E41A944228BF1446406881
:1061000022461844FDF7D2F9EB6820462344EB60A1
:1061100038BD08B50B0702D501F0D6F9FEE708BD7A
:1061200038B50B07044602D501F0CEF9FEE7836EC1
:1061300059680A6822F00F020A601A7C19680E2357
:1061400003FA02F24A60426E5568296821F00F0195
:1061500029601168127C93404B6043681B682BB127
:106160000422027098472378042B01D10223237064
:10617000FEF7DAFAEFF3118313B901F0A5F9FEE7A0
:10618000A06810B1002101F0CFFFBDE83840FEF754
:10619000C5BAF8B50F46044618B94FF0FF36304679
:1061A000F8BD8568C66800212846B04215D1012A8D
:1061B00004D12369002B43DD023B2361236999420B
:1061C000EBDBA84201F1FF31266810D1765DC6B93C
:1061D000012AE2D101332361E1E7236801311B5C2D
:1061E0000133184463689842A8BFC01ADDE78B42A8
:1061F000ECD0765D013635446668B542A8BFAD1B6C
:10620000DFE70133236140220021384605F0A6F87C
:10621000636872199A42206805F1010105DA0144A8
:1062200032463846FDF742F9B9E75D1B013D0144AE
:106230002A463846FDF73AF9721B21687819F1E7CA
:106240000026ACE72DE9F04105460E461746984674
:10625000286810B90120BDE8F0813946FDF79CF9A6
:10626000044640B9A8686F68069B42463146B84765
:106270002046BDE8F0810C35EAE7000070B50D4618
:1062800000B108602E68A6B10E49304605F078F9D5
:10629000315C341822290FD10134204605F0ACF8C6
:1062A00028602B681BB15A1C2A6000221A702378C0
:1062B00003B90024204670BD0249204605F03EF98E
:1062C000EEE700BF1ABB00082DE9F04F0B468046F1
:1062D00015464FF0000987B019785E1C002900F0C0
:1062E000E880252907D0D8F8003040469B689847B9
:1062F00009F1010987E05A784FF0000B2D2A08BFF9
:106300009E1C37780CBF01230023302F18BF202795
:10631000019308BF013616F8012BA2F13001C9B272
:10632000092903D92A2A05D1297804350A2303FB30
:106330000B1BF0E72E2A4FF000010ED116F8012BAF
:10634000A2F13000C0B2092803D92A2A05D1287841
:1063500004350A2303FB0101F0E702F0DF004C28BB
:1063600003D1307808B102460136632A4DD07BD87C
:106370004F2A00F09C806ED8442A01D0492A6ED161
:10638000296805F1040A0029BCBF2D228DF80C20D4
:106390004FF00A02BABF49420DF10D0003A801F007
:1063A00054FD03AC051B019AABEB050323EAE37331
:1063B000002A3AD1C3F1000BDBB121782D290CD191
:1063C000302F0AD1D8F800204046926801939047B8
:1063D000019B013409F10109013DD8F8002039463B
:1063E00092684046019390471BF1010B019BF4D149
:1063F00099442B46013B1AD5002DA8BFA9445C4601
:10640000FCB95546D944334666E720272A6806ACCE
:1064100005F1040A04F80C2D0DF10D00C2E710225D
:1064200005F1040A296803A8B9E79B46E1E7D8F813
:10643000002014F8011B9268404601939047019B8D
:10644000D8E7D8F8003039469B6840469847013C69
:10645000D6E70A22E4E7552AFBD0582ADFD006AC5B
:1064600004F80C2DAA46D7E76F2A20D003D8642A57
:1064700086D0692A83E7752AEBD0782ACFD0732A91
:10648000EDD12C680D4B47F6FF72002C08BF1C465F
:10649000002908BF1146224605F1040A1046057876
:1064A000013215B18D1AEC42F8D520277AE708227F
:1064B000B6E7484607B0BDE8F08F00BF13BB000841
:1064C0000EB403B503AA52F8041B0192FFF7FCFEB9
:1064D00002B05DF804EB03B0704700001C4B1A6873
:1064E00042F001021A601A689207FCD51A6802F09D
:1064F000F9021A6000225A605A6812F00C0FFBD1A0
:106500001A6842F480321A601A689003FCD55A6AFD
:1065100042F001025A625A6A9107FCD55A6842F465
:10652000F8125A601A6842F080721A601A68920172
:10653000FCD51221074A5A60074A11605A6842F096
:1065400002025A605A6802F00C02082AFAD1704717
:106550000010024000641F0000200240F8B500EB6C
:106560008103DE68336803F00303022B26D0032B7C
:1065700004D0012B1FD100F0A7FFFEE74FF4C0624B
:10658000334B0F011C6D736904F1804404F5C04462
:106590003D19CBB100236B60338AD0F884E001331E
:1065A00023F001037344B3F5007FC0F8843007D9AA
:1065B00000F08AFFFEE74FF40072E1E70022DFE718
:1065C00047F804E042F02002B36933B3748A3E2CEA
:1065D00004F1FF3316D943F01F0301331D4E5B1145
:1065E00046EA83239BB2EB60D0F88430013424F078
:1065F00001041C44B4F5007FC0F884400AD900F0BF
:1066000063FFFEE7022643F00103013393FBF6F339
:106610009B02E7E7AB6042F4005248F2800042EA96
:10662000010323F47843890023F0F00301F1804152
:1066300001F5B841034322F4F1620B6022F0070236
:106640000B685204520C5A4002430A60F8BD00BF66
:10665000005C00400080FFFF0D4B00011B6D10B57A
:1066600003F1804303F5C043C418C358104603F137
:10667000005303F540535B006260141A00280C4479
:1066800000DC10BD2488023843F8044BF5E700BF56
:10669000005C00402DE9F74F944D6C6C660504D505
:1066A0006FF480636B6401F067FE200511D52B6CDD
:1066B0008F4843F008032B646FF400636B64037826
:1066C00080F880300523037043681B680BB10421F8
:1066D0009847E10414D5854B9A6C12040CD41A6CBB
:1066E000834822F008021A6490F8803003704368EF
:1066F0001B680BB1052198476FF480527B4B5A649D
:10670000A30508D57A484368DB6803B198476FF45E
:106710000072764B5A64764EDFF8EC8114F4004137
:106720001BD1744B1A681960A2B1734B734A196874
:106730001160734A12682AB11A6822F47F021A6043
:106740001A681A604FF080526E4B1A60BFF34F8F79
:10675000BFF36F8F03B0BDE8F08F04F00F04A50006
:1067600005F1804505F5B845D5F800A0A71C06EB56
:1067700087031AF0800FD3F8049026D02A68D9F83E
:10678000143002EA080242F400422A60D9685A68CA
:1067900018680A44801A5A602BD0B9F81020824237
:1067A00028BF02469868DA60014499602046FFF7E6
:1067B00053FF2B6823F4F04323F0400383F03003AE
:1067C00043F4004343F080032B601AF4004F72D06F
:1067D0002B681AF4006F03EA080343F080032B6070
:1067E00016D006EB87077B685B68214630469847E2
:1067F00061E0012303FA04F2338923EA02033381BF
:10680000D9F80830002BE0D0214630469847DCE725
:10681000364AD9F81830126DD3F808A002F1804238
:1068200002F5C04202EB04118A68D1F80CE002F1D3
:10683000005202F540525200CEF3090100929346F5
:106840008A1C0AF102000192019AA2EB000CD444C6
:10685000BCF1010F32D84808B1EB400F18BF009AC5
:106860002EF0010E18BF52F820204FEA8E5E4FEA3C
:106870009E5E18BF0AF80E209A680A449A605A6809
:106880000A445A601A68521A1A609A89013A92B2F6
:106890009A81B9F812308B4200D8CAB9012303FAA1
:1068A00004F2738906EB870723EA020373817B688E
:1068B000DB68002B99D10D4B5C6C2FE75BF804CBA8
:1068C000023000F804CC4FEA1C2C00F803CCBBE7E4
:1068D0002B6823F4904323F0700383F4405343F474
:1068E000004343F080032B60E5E700BF005C0040FD
:1068F000C81200208414002020ED00E03414002091
:106900003814002004ED00E00F07FFFF0A4B0B4A8C
:10691000196811600A4A12682AB11A6822F47F02C3
:106920001A601A681A604FF08052064B1A60BFF363
:106930004F8FBFF36F8F704720ED00E034140020BD
:106940003814002004ED00E02DE9F047614CA66FFB
:10695000F7683368DA059DB20BD5FDF7E5FE4FF415
:106960000071201D00F043FE6FF480733360FDF76B
:10697000D5FEFDF7D9FEDFF8688108F1140915F09E
:106980002F0F0ED1FDF7CAFE39066DD52A066BD53D
:10699000FDF7CAFEEFF31183002B4BD100F094FDFD
:1069A000FEE72B0713D015F0080F0CBF0021802144
:1069B000E80748BF41F02001AA0748BF41F0400165
:1069C0006B0748BF41F48071404600F010FEA806F6
:1069D000D6F804A02BD5EFF3118313B900F074FDA2
:1069E000FEE7E36994F87C501BB90421404600F0AF
:1069F000FEFDEFF3118313B900F066FDFEE7A36A15
:106A0000E26A934202D1E269002A4AD1E26905EAC8
:106A10000A050132E2615A1CA2621D70A26A636A11
:106A20009A4201D3236AA362484601F0E5FB356828
:106A3000ADB2A4E7E36CA26C9A4202D1E26B002AE9
:106A400035D1E26B0132E2635A1CE26493F80080B4
:106A5000636C9A4201D3236CE3641F4801F0CCFBC2
:106A6000C6F80480FDF75AFE6B0611D5FDF75CFEF3
:106A7000A26CE36C9A4201D1E36B1BBB6FF0400345
:106A800027F040073F043F0CF7603360FDF746FEF8
:106A90000021124B1A681960CAB1BDE8F047FFF730
:106AA00035BF4FF48061404600F0A1FDBFE70821EB
:106AB0000B4800F09CFD4FF63F733B4043F0400312
:106AC000F360CFE71021064800F091FDD6E7BDE85E
:106AD000F08700BFB0090020E809002084140020DE
:106AE000B409002008B5012140F2031002F0D5F9E5
:106AF0004FF47A7001F092F80022014B1A7008BD31
:106B000021120020002AF8B50C4606DD144A15496A
:106B10002046BDE8F840FFF7D3BC00252E46124BB7
:106B20001F68124B1B681A688AB93A4610492046FA
:106B3000FFF7C6FC32460F492046FFF7C1FC3A4634
:106B40000D492046FFF7BCFC2A460C49E0E75B688C
:106B500003B101369D4238BF1D461346E3E700BF2F
:106B60000FBB00086CBA00089C140020A41400207D
:106B700041BC00085FBC000877BC000895BC000859
:106B8000012A084619BF034A03491A680349FFF757
:106B900097BC00BF4CBB00086CBA00080CBC0008D6
:106BA000002A13B50C4607DD2046124A124902B0EE
:106BB000BDE81040FFF784BC104A11492046FFF79A
:106BC0007FFC104A10492046FFF77AFC0F4A104913
:106BD0002046FFF775FC0F4A0F492046FFF770FC6F
:106BE0000E4B0F4A00930F490F4B2046FFF768FCEE
:106BF00002B010BDFDBA00086CBA00085BBB00080B
:106C000068BB00087BBB000888BB00089BBB000872
:106C1000C5BB0008D8BB0008FEBB000838BC000894
:106C200015BC000821BC000811BC0008002A10B5E2
:106C30000C4606DD064A07492046BDE81040FFF72E
:106C40003FBC04F06BF8044B04491A68F4E700BF3A
:106C500007BB00086CBA000880140020B3BC000811
:106C6000002A08B5084605DDBDE80840064A074980
:106C7000FFF726BC04F0D6F80121054800F0B7FC68
:106C8000BDE8084001F0B4BBF8BA00086CBA0008CF
:106C9000EC0C00202DE9FF474FF4806001F0FEFF6F
:106CA000964C054624220021204604F057FB4FF461
:106CB000806350202560636001F0F0FF044650B10E
:106CC0000023012580F846302060C563036401F08D
:106CD000E5F984F84C50204601F0B0FF884B894814
:106CE0001C6002F04FF94FF480630024864D874EFC
:106CF0006B6174603460B46004F094F8EFF3118356
:106D0000002B40F0D28100F0DFFBFEE721464FF47C
:106D1000847002F0A3F8012000F080FF4FF484702B
:106D200002F0A8F806467A4C7A4802F0C5F87A4B89
:106D30002046E367FDF7DCFB224678497848FFF7F9
:106D40005FF904F06FF8774A137D591E012902D9C3
:106D500000F0BAFBFEE7012B0CD17349CB6943F479
:106D60008023CB61C021714B83F827138021C3F8A6
:106D7000841159604FF49C71936F002799604021F2
:106D80004FF00109196142F22C11C3F81490D96037
:106D90001F6019684FF0FF0A5B68022382F87CA02D
:106DA0001375FCF7DDFE04F031F8032002F098F8CB
:106DB0008046742001F072FF5D4B04460360477605
:106DC00080F8707080F818A0203001F092F9237ECE
:106DD000E061627E4946204603F030FE0746002807
:106DE00000F0A081534B201D2361534BA4606360CE
:106DF000524B49461A681860E26003F0E5F8B8F1B2
:106E0000000F07D00823C8F804304D4BC8F80040E5
:106E1000C8F808304B4802F0B5F84B4802F04CF87F
:106E200083E14A4802F0AEF84FF00008F2E10DF1BC
:106E30000F03082204F054FA38B9204603F022F96F
:106E400047F6FF739842A0804CD1414802F09AF86F
:106E500037B3FF233F4C40492376404B22466361C2
:106E60003F4B40482362FFF7CBF8B8F1000F06D143
:106E70003D4802F087F8E36943F01E03E36136B949
:106E80003A4802F07FF8E36943F00103E3613849CF
:106E9000304801F087FF00282DD1364802F072F803
:106EA00000243548354B0121C360354B44600360F5
:106EB000224B344E1A681860826003F085F8324B1A
:106EC000802201930123314900933148234600F089
:106ED0008FFF03F0A7FF3278531E012B62D900F019
:106EE000F3FAFEE72B4802F04DF822462A492B48D8
:106EF000FFF786F8ACE72A48D0E700BF101400205F
:106F00001412002048BD000800080140EC0C0020CD
:106F10002809002018BF000820BB000859A200085B
:106F200058BD0008B00900200010024000E100E058
:106F300094BF00085CBD00086FAB0008AC140020D3
:106F400034BB0008B7BE0008F4BE000887BD0008C7
:106F50009CBD0008FC0C0020219C0008BCBC000863
:106F600015A90008DFBD0008E7BD0008FBBD00084B
:106F70002C0800200DBE0008200D00203FBE000898
:106F800095AB0008C8120020B014002046BE0008CF
:106F90008D9F0008BCBD0008C1A00008DABD000834
:106FA00027BE0008AB4B204673602346F11804331C
:106FB000202BC860FAD1012A1BD1A749CB6943F421
:106FC0000003CB61A1F5DA310A64D022A34B83F828
:106FD00013234FF40022C3F880211A60E02283F8C3
:106FE00014234FF48012C3F880211A60086401F062
:106FF000C3F94FF002089A4C86F80080FCF7B0FD08
:1070000003F004FF974B0121236000234FF48277A4
:1070100004F180002362A3606360E360A361A06267
:107020006062A063E36323648F48E364236763675C
:107030008E4B04F522722175217784F8501004F5E7
:107040009261A367E2622763C4F834806064A46439
:10705000C4F85480E265A26521666766C4F868805A
:10706000E266E46703F0DEFE237D013B012B02D9DB
:1070700000F02AFAFEE77E4BF462C4F89034B46460
:10708000346384F81480FCF76BFD03F0BFFE4FF40B
:10709000806378482B6101F075FF002276497748BC
:1070A00001F018FA04B0BDE8F087754BF360FDF706
:1070B000EBF90423734E3020337101F0EFFD3060A3
:1070C00070B32346704A04600134042C826043602C
:1070D00000F10C00F7D16D4801F054FF6C4900201D
:1070E00001F014FF6B49012001F010FF6A490220F2
:1070F00001F00CFF002269496948FEF781FF032176
:107100004FF4847001F0AAFE012000F087FD4FF4D7
:10711000847001F0AFFE00287FF4F8AD012602E68E
:107120006048B8E7604801F02DFF604B604C019368
:107130000123402200935F495F4B604800F058FEF6
:107140004FF480720021204604F008F95C4B04F1F2
:1071500008012360812320462374637402F0BCFC81
:10716000D4F800E02046BEF81430DEF8102013F00A
:10717000010F03BF5B0852084FF080710021B3F587
:10718000806FBFF44EAE012BB2FBF3F208BF0023B9
:1071900041EA8333DEF81810B2FBF1F401FB14214D
:1071A00000297FF43EAEB4F5805FBFF43AAE4CF2F6
:1071B0005031C0F8C03002F543434F33B3FBF1F315
:1071C0009BB2B3F5806FA0F8BC40A0F8C430BFF408
:1071D00028AE3C4BC0F8B820C0F8F4303A4B3B4CDA
:1071E000C0F8E8303A4BC0F8EC001A681C60C0F8F0
:1071F000F020A4F1E80002F007FC804600283FF4EC
:1072000010AE3448A4F1E8023349FEF7F9FE3348E2
:1072100001F0B8FE0023324C07226360314B182185
:10722000236031480DF10E0302F090FF00287FF437
:107230000CAE9DF80E30022B7FF407AE2368186861
:10724000197903238DF80F3000287FF4F0AD00F09A
:107250003BF9FEE79CBF00080010024000E100E09F
:107260003C0D0020ACBF0008593B0008C93C000899
:1072700064BF00084EBE00085DBE0008B0090020D3
:10728000A959000888140020F4C0000882BE000834
:1072900000080140000C014000100140319E000830
:1072A0009CBE000866BE0008A1BE0008BC150020F8
:1072B000B814002064BD0008B81500200191000832
:1072C000CCBE000868BD0008F99A0008A01500208F
:1072D000AC14002070BD0008ADA6000874BD000805
:1072E000340D0020ECBE000828090020052937B520
:1072F00002D900F0E9F8FEE7540702D000F0E4F804
:10730000FEE701F132041BB950F82450AA421BD009
:1073100011430B0E8DF804300B0C40F824208DF82F
:1073200005300B0A8DF806308DF8071001F042F990
:1073300001A801F06BF901F053F9062200239342F2
:1073400001D00133FBE70123184603B030BD2DE91E
:10735000F04106460F4690460525002457F82520A3
:10736000B8F1000F12D1002D0CBF2346002329468F
:1073700003F001033046FFF7B9FF15F1FF3544EA8A
:107380000004E4B2EAD22046BDE8F0810123EEE732
:10739000094B0A4A1B681268D06A58B9084A126831
:1073A000012A08D8012B06D8064B1868064B1B6823
:1073B000C01A7047002070474C140020A81300200A
:1073C000AC130020D015002080140020F8B50D4625
:1073D000044600B9FEE701B9FEE703F023FD2B6880
:1073E0000F49581C0A688E4611D00E48216807685C
:1073F0006668B94201D0B24210D2921B9A420BD2B7
:107400009B1A2B6003682360DEF800306360002461
:1074100003F0FCFC2046F8BD00232B600124F7E7B5
:1074200080140020501400201E4B30B51A681E4BEB
:1074300012B101221A6030BD1C491A600B681B6B27
:107440001A68B2F1A53F0BD15A68B2F1A53F07D136
:107450009A68B2F1A53F03D1DB68B3F1A53F02D032
:107460000B680B68FEE7124B1B68B3FA83F3142218
:10747000DBB2C3F11F035A430E488558841805B97F
:10748000FEE7656808326D680244954208BF6A6885
:10749000656008BF6260142202FB03035B68DB685F
:1074A0000B6030BD4414002084140020A813002079
:1074B0004C140020AC130020024A136801331360FF
:1074C000704700BF4414002008B503F0ABFC002255
:1074D000024B1A6072B671B608BD00BF6814002076
:1074E00073B505460C46EFF3118323B9FFF7ECFFA4
:1074F000FEE7019818E0EFF3058313B1FFF7E4FF0F
:10750000FEE779B135B103F08DFC084B1E6803F03E
:107510007DFC2E60224601A94FF0FF3000F08AFE6C
:107520000028E6D14FF0FF3002B070BDA813002054
:1075300037B50446EFF3118313B9FFF7C5FFFEE734
:10754000EFF3058313B1FFF7BFFFFEE730B103F0A0
:1075500069FC074B1D6803F059FC25604FF0FF32B2
:1075600001A9104600F066FE019803B030BD00BFCF
:10757000A8130020F8B505460E4619B310B9FFF759
:10758000A3FFFEE7EFF311835BB9FFF79DFFFEE773
:107590003B685A6531462C600020BDE8F840FFF793
:1075A0009FBFEFF3058313B1FFF78EFFFEE7074F91
:1075B00003F038FC3C6803F029FC2A68002CE7D073
:1075C0002346E6E74FF0FF30F8BD00BFA8130020C8
:1075D00008B5EFF3118333B9FFF776FFFEE7BDE897
:1075E000084000F0A1BD00680028F8D108BD70B5C2
:1075F000054610B9FFF768FFFEE7EFF311839BB96B
:10760000FFF762FFFEE723691E4206D06369A169A6
:1076100033436361E068FFF7EAFF22696B6824681F
:1076200023EA02036B6007E04668C3680E434660C6
:107630000BB1314698472C68002CE4D16B683BB104
:1076400005F108006FF00201BDE87040FFF7C0BF10
:1076500070BD4168826803698A60826851605968B8
:10766000884208BF5A60002202611A68013A1A6013
:10767000186870470A6830B5531C0AD103695A6804
:107680004A6091608B605960036808610133036050
:1076900030BD00F108035C682568AA42EFD3234699
:1076A000F9E743689A684B608A609A68516099600C
:1076B00003680861013303607047000038B5C36890
:1076C000DC6804B9FEE704F118052846FFF7C1FF9E
:1076D000124B1B68FBB9251D2846FFF7BAFF012393
:1076E0000F49E26A08689340034314200B6029465F
:1076F0000C4B00FB0230FFF7D4FF0B4BE26A1B6818
:10770000DB6A9A4289BF01240024084B1C6003F005
:1077100077FC204638BD29460548ECE74414002094
:107720004C140020AC130020A81300208414002067
:10773000541400202DE9F84F384B1B68002B4BD117
:10774000374B1C6801341C607CB9364B1A681268D0
:1077500002B1FEE7344A1968106818601160334AB4
:1077600013680133136003F04BFC314D4FF0000BF5
:107770002B68304F9C423ED3DFF8A880DFF8C490DE
:10778000D8F80020126872BB4FF0FF322A6032E056
:1077900006F1040A5046FFF75CFFB16A19B106F121
:1077A0001800FFF756FF01224FF0140EF06AD9F8C7
:1077B000003002FA00F119431F4BC9F800100EFB0C
:1077C00000305146FFF76DFF3868F16AC26A914296
:1077D00028BF4FF0010BD3E7184A4FF0000B136896
:1077E0000133136011E0D8F80020D268D6687168C0
:1077F0008C42CDD229603A680F4BD16A14224A4399
:107800009A58022A28BF4FF0010B0D4A1268002A2D
:1078100018BF4FF0010B5846BDE8F88F4414002004
:1078200080140020C0150020C41500205014002032
:10783000D0150020A8130020AC1300202412002033
:10784000841400204C1400202DE9F843334C2368A5
:1078500003B9FEE703F0E6FA2368013B23602468DE
:107860002CB1002403F0D2FA2046BDE8F8832C4B5B
:107870001B68002BF5D0DFF8CC902A4FDFF8C880CA
:10788000D9F800304BBB0CB103F0BAFB264D2C6885
:1078900044B10127254EFFF74DFF00B13760013C91
:1078A000F9D12C60214B1B68002BDAD0204B214AE8
:1078B00019681160204A12682AB11A6822F47F02FE
:1078C0001A601A681A604FF080521C4B1A60BFF39E
:1078D0004F8FBFF36F8F0124C4E7D9F80C30012517
:1078E000DC68261D04F11800FFF7B3FE3046FFF7F1
:1078F000B0FE1420E26A396805FA02F30B4300FB7C
:10790000028031463B60FFF7CCFE0D4BE26A1B68FC
:10791000DB6A9A4224BF054B1D60B1E74414002086
:107920003C1400204C140020241200208414002059
:1079300020ED00E0341400203814002004ED00E0B5
:10794000A813002054140020AC13002080B5954DDE
:10795000954C964E964F3368002B71D1954B1B6812
:10796000012B13D9944B22681A60944B1B682BB1DE
:10797000236823F47F032360236823604FF0805241
:107980008F4B1A60BFF34F8FBFF36F8FDFF87C828E
:1079900098F80030BFF35B8F73B3DFF87492002167
:1079A000D9F8000000F0E6FF30B30026854F002034
:1079B0003B69FB6103F05AF9002003F057F9BE61FF
:1079C00003F0ACF9804B814F1A6881498148FEF77A
:1079D00077FD384687F83F6003F082FD81B2384674
:1079E00003F088F900F0AEFDD9F8000000F04CFA81
:1079F000BFF35B8F88F80060774B1B788BB1774EB5
:107A0000337803F0FF0163B9012340F203103370B0
:107A100001F043FA724A7349734800F05BFD00B904
:107A20003070FFF7B5FC012893D9704EDFF89891BC
:107A3000FFF742FD3268D9F800309A4215D2FEE7CE
:107A400003F0F0F9EB68D3F80C8008F10400FFF7BD
:107A500000FE3B68013B3B603368013B336003F051
:107A6000D5F9404603F0DEFA75E7FFF791FC0128EF
:107A700040F289805E4B5F4A1B685F4F984228BF87
:107A800018461368DFF88CC123F0010313605B4BC9
:107A900039681B68421E01FB023EDCF800309E453F
:107AA00088BFAEEB030E72B6BFF34F8FBFF36F8F7D
:107AB000534B1B68002B69D1524B1B68002B65D1BF
:107AC000DFF85481D8F80080DFF8E480D8F800802F
:107AD000DFF83481C8F800E0C8F8043058F8043CF6
